:020000040800F2
:1000000084780120F1080008B9080008F108000808
:10001000BD080008BD080008BD0800080000000079
:10002000000000000000000000000000BD08000803
:10003000BD080008BD080008BD080008C108000888
:10004000BD080008BD080008BD080008BD0800087C
:10005000BD080008BD080008BD080008BD0800086C
:10006000BD080008BD080008BD080008BD0800085C
:10007000BD080008BD080008BD080008BD0800084C
:10008000BD080008BD080008BD080008BD0800083C
:10009000BD080008BD080008BD080008BD0800082C
:1000A000BD080008C1070008BD080008BD08000819
:1000B000BD080008BD080008BD080008BD0800080C
:1000C000BD080008BD080008BD080008BD080008FC
:1000D000BD080008BD080008BD080008BD080008EC
:1000E000BD080008BD080008BD080008BD080008DC
:1000F000BD080008BD080008BD080008BD080008CC
:10010000BD080008BD080008BD080008BD080008BB
:10011000BD080008BD080008BD080008BD080008AB
:10012000BD080008BD080008BD080008BD0800089B
:10013000BD080008BD080008BD080008BD0800088B
:10014000BD080008BD080008BD080008BD0800087B
:10015000BD080008BD080008BD080008BD0800086B
:10016000BD080008BD080008BD080008BD0800085B
:10017000BD080008BD080008BD080008BD0800084B
:10018000BD080008BD08000838B547F68403C2F270
:1001900001031C885B88A34215D047F68405C2F290
:1001A000010504EB440105EB410101F104014FF0AD
:1001B000060204F095FD04F1010404F01F042C80F4
:1001C0004FF0010038BD4FF0000038BD30B583B0AE
:1001D0004FF008004FF0010100F0E8FE4FF001027F
:1001E0008DF804204FF000038DF806304FF04005E5
:1001F00000958DF807208DF805304FF44064C4F267
:1002000002042046694601F0EFF82046294601F035
:1002100079F94FF4805500954FF002038DF80730BF
:100220002046694601F0E0F82046294601F06CF9C5
:1002300003B030BD38B54FF04E004FF0000103F071
:10024000DBF94FF04F004FF0000103F0D5F940F219
:100250000003C2F200031B6819884FF0220003F06C
:10026000CBF94FF001031C4640F20005C2F2000535
:100270002A6832F8130003F0E7F904F10104234679
:10028000B4F5004FF4D1044C044D34F8020F03F0E0
:10029000DBF9AC42F9D138BD660000206858012076
:1002A0002DE9F04182B005460C4617461E460DF179
:1002B000060001A903F018FA04EB840405EB841589
:1002C00096B14FF0000347F6FF7440F26808C2F29F
:1002D000000840F2000CC2F2000C48F2B511C1F661
:1002E0004E314FF496302DE04FF0000347F6FF7487
:1002F00040F26808C2F2000840F2000CC2F2000CA2
:1003000048F2B511C1F64E314FF49630A54206D8E9
:10031000BDF80660DCF8002022F8156005E0A5F5C0
:100320000042BDF8066028F8126005F10102A1FB49
:1003300002654FEA553500FB152503F10103BB4269
:10034000E4D91AE0A54206D8BDF80660DCF8002022
:1003500022F8156005E0A5F50042BDF8066028F812
:10036000126005F5A072A1FB02654FEA553500FB4E
:10037000152503F10103BB42E4D902B0BDE8F081C9
:100380002DE9F84F044616469B465788B2F806807A
:1003900008EB07091FFA89F907EB58081FFA88F8D4
:1003A00001F1FF3ABAF1000F40F3BD804FF00001B8
:1003B00001EB410334F91330A8EBA3039BB201F125
:1003C000010505EB450234F91220A8EBA20292B216
:1003D000BB4238BF3B46BA4238BF3A464B4528BFBE
:1003E0004B464A4528BF4A463088091888B29A4287
:1003F00034BF11461946D21A002AB8BF524292B2EF
:100400004FF00103FFF74CFFA9B28A45D0DCBBF8DF
:100410000260BBF8068008EB0607BFB206EB58087F
:100420001FFA88F84FF000034FF00109254603EB4F
:10043000430205EB4202B2F902E0A8EBAE0E1FFA4E
:100440008EFE03F1010404EB440205EB4202B2F913
:100450000220A8EBA20292B2B64538BFB646B2421D
:1004600038BF3246BE4528BFBE46BA4228BF3A46CC
:10047000BBF800001B1898B2724534BF1146714694
:10048000CEEB0202002AB8BF524292B24B46FFF7AF
:1004900007FFA3B29A45CADC0A9B5E88B3F80680C0
:1004A00008EB0607BFB206EB58081FFA88F84FF0B2
:1004B00000034FF00109D346DDF828A003EB430207
:1004C00005EB4202B2F904E0A8EBEE0E1FFA8EFE35
:1004D00003F1010404EB440205EB4202B2F90420EB
:1004E000A8EBE20292B2B64538BFB646B24238BF78
:1004F0003246BE4528BFBE46BA4228BF3A46BAF881
:1005000000001B1898B2724534BF11467146CEEBFD
:100510000202002AB8BF524292B24B46FFF7C0FE19
:10052000A3B29B45CADCBDE8F88F00BF2DE9F00FF0
:1005300086B00390049105924FF0020B47F6FF75C9
:1005400040F26809C2F2000940F20008C2F2000855
:1005500048F2B514C1F64E3406A901EB8B0252F8ED
:100560000CACBAF80010BAF80220A1F5A05002EBCA
:10057000820C00EB8C1CA1F59651BAF8060000F134
:100580001F0012FA80F202EB820201EB821201924A
:10059000BAF8041062464FF49630AA4233F812704B
:1005A00099BFD8F8006026F81270A2F5004629F825
:1005B000167002F10106A4FB06724FEA523200FBEC
:1005C000126201F1FF3189B20029E6D10CF5A07C5D
:1005D00001998C45DCD10BF1FF3B1FFA8BFB4FF6E9
:1005E000FF729345B8D106B0BDE8F00F704700BF69
:1005F00070B584B04FF00100014600F01FFD4FF4CC
:100600000073ADF80C304FF000052E46ADF80650E3
:100610004FF00903029304A94AF2104321F80C3D5C
:100620002C46C4F20104204601F0EEFF20464FF0B4
:10063000010102F0ADF820464FF001010A4602F038
:1006400077FC4FF4E06000F0C5FA4FF019038DF825
:1006500000304FF001038DF803308DF801508DF814
:100660000250684600F0C0FA04B070BD2DE9F047B2
:1006700084B045F67004C2F20104204600F0FAFB93
:10068000626844F6D353C1F26203A3FB02134FEA3C
:10069000931202F1FF324EF21003CEF200035A60C1
:1006A0004FF46D42CEF200024FF0F00182F82310B9
:1006B0004FF000049C604FF007021A60FFF786FDC0
:1006C000FFF796FF03F08EFD4FF61F00214602F064
:1006D000F3FF44F61463C0F60003224647F6FF71A9
:1006E00040F26807C2F2000740F20006C2F20006BC
:1006F0008C4203D81D893068855204E0D019A0F5DA
:1007000080301D89058004F1010402F1020203F129
:100710000203B4F5963FEBD100F032F9064647F6F6
:100720008407C2F2010707F1C80A40F20008C2F2CA
:10073000000808F104091FE0B7F8C44020B200EB3C
:10074000400007EB400000F1C80002A94FF006028C
:1007500004F0C6FA04F101039BB2A7F8C4301BB23F
:10076000B3F5807F08DD07F1CE0150464FF4C0623B
:1007700004F0F8FAA7F8C44002A8FFF705FD012825
:10078000DAD000F0FDF8801B3228F5D900F0F8F837
:10079000064608F10C0408F11405484621462A468D
:1007A000064BFFF7C3FE009550464FF480714A4652
:1007B0002346FFF7E5FDFFF73DFDDDE71C4E000892
:1007C000F0B589B04FF00000C4F201004FF0010114
:1007D00002F0BCFB01286DD14FF00000C4F2010013
:1007E0004FF0010102F0CCFB4FF040038DF81830C0
:1007F0004FF080038DF819304FF007038DF81A3051
:100800004FF000068DF81B608DF81C6006A803F001
:1008100067FF4FF020038DF814304FF001078DF87B
:1008200015704FF00C038DF8163005A803F034FF57
:100830000DF11F004FF00F013A4603F001FE03A82F
:100840004FF029014FF0060203F0FAFD9DF90C303C
:10085000ADF80C309DF90E30ADF80E309DF910302A
:10086000ADF8103047F68404C2F20104658805EB48
:10087000450004EB400000F1040003A94FF006021C
:1008800004F02EFAED1905F01F0565804FF00803FE
:1008900001934FF002038DF808308DF809308DF880
:1008A0000A608DF80B704FF48050C4F2020001A969
:1008B00000F09AFD09B0F0BDFEE700BFFEE700BF03
:1008C00045F68003C2F201031B683BB145F6800385
:1008D000C2F201031A6802F1FF321A6047F654733C
:1008E000C2F201031A6802F101021A60704700BFE8
:1008F00008B5164B164A9A4211D24EF25C02C0F667
:10090000020240F20003C2F2000340F26800C2F2A9
:10091000000052F8041B43F8041B8342F9D30D4B2B
:100920000D4A9A420DD240F26803C2F200034FF022
:10093000000147F66072C2F2010243F8041B9342C1
:10094000FBD300F023F8FFF791FE08BD68000020FC
:1009500000000020607F01206800002045F6800331
:10096000C2F2010318601A461368002BFCD17047CD
:1009700047F65473C2F201034FF000021A60704749
:1009800047F65473C2F201031868704782B04FF4FF
:100990006D43CEF20003D3F8882042F47002C3F80E
:1009A00088204FF46053C4F202031A6842F0010237
:1009B0001A604FF000029A60196821F0847121F4E6
:1009C0008031196043F21001C2F200415960196888
:1009D00021F480211960DA60009201921A6842F4D1
:1009E00080321A604FF46052C4F20202136803F4BA
:1009F00000330193009B03F101030093019B1BB99A
:100A0000009BB3F5A06FF1D14FF46053C4F2020321
:100A10001B6813F4003F14BF012300230193019BC3
:100A2000012B46D14FF46053C4F202031A6C42F01A
:100A300080521A644FF4E042C4F20002116841F49B
:100A4000804111609A689A609A6842F400429A6004
:100A50009A6842F4A0529A6045F20842C0F240728D
:100A60005A601A6842F080721A604FF46052C4F201
:100A70000202136813F0007FFBD04FF47053C4F2EE
:100A8000020340F205621A604FF46053C4F202039D
:100A90009A6822F003029A609A6842F002029A6011
:100AA0004FF46052C4F20202936803F00C03082B67
:100AB000FAD14FF46053C4F202039A6822F40002A0
:100AC0009A604FF44052C5F20002C3F884201A68BD
:100AD00042F080621A604FF46052C4F2020213685E
:100AE00013F0006FFBD04FF46D43CEF200034FF0D4
:100AF00000629A6002B070474FF46053C4F2020380
:100B00009B6803F00C03042B0DD0082B15D0002B91
:100B100044D140F21C03C2F200034FF41052C0F261
:100B2000F4021A6043E040F21C03C2F200034FF4E7
:100B30009052C0F27A021A6039E04FF46053C4F266
:100B4000020359685B6803F03F0311F4800F4FF410
:100B50006052C4F202025068C0F3881019BF4FF40B
:100B60009051C0F27A014FF41051C0F2F401B1FB80
:100B7000F3F202FB00F24FF46053C4F2020359682F
:100B800040F21C03C2F20003C1F3014101F1010173
:100B90004FEA4101B2FBF1F21A6008E040F21C0397
:100BA000C2F200034FF41052C0F2F4021A604FF484
:100BB0006053C4F202039A68C2F3031240F21C03AA
:100BC000C2F200039A181279196821FA02F21A6027
:100BD000704700BF40F0BE6040F420204FF46D43EA
:100BE000CEF20003D860704710B4C3786BB34FF4F3
:100BF0006D43CEF20003DB686FEA0303C3F3022305
:100C00004178C3F10402D2B201FA02F2D2B24FF03B
:100C10000F0141FA03F18478214011434FEA011199
:100C2000C9B202784FF46143CEF200039A1882F8F9
:100C3000001302784FEA521102F01F024FF0010038
:100C400000FA02F243F8212010E003784FEA531231
:100C500003F01F034FF0010101FA03F14FF4614368
:100C6000CEF2000302F1200243F8221010BC7047BC
:100C700021F0604121F07F0108434FF46D43CEF233
:100C800000039860704700BF39B14FF46D43CEF256
:100C900000031A691043186170474FF46D43CEF298
:100CA00000031A6922EA00001861704704284EF216
:100CB0001003CEF200031A680CBF42F0040222F0C7
:100CC00004021A60704700BF4FF46053C4F202037D
:100CD0001A6842F001021A604FF000029A60196827
:100CE00021F0847121F48031196043F21001C2F2C5
:100CF00000415960196821F480211960DA60704759
:100D000043F60203C4F202034FF000021A70187097
:100D1000704700BF4FF46053C4F202031A6822F018
:100D2000F80242EAC0001860704700BF4FF00003AD
:100D3000C4F247231860704743F67003C4F20203FD
:100D40004FF000021A701A70012802D004280FD147
:100D500007E043F67003C4F202034FF001021A7079
:100D6000704743F67003C4F202034FF005021A7095
:100D7000704700BF4FF46863C4F2472318607047A0
:100D8000014341EA8212009942EA01614FEA5302AB
:100D900002F1FF3241EA02424FF46053C4F202030F
:100DA0005A6070474FF06003C4F2472318607047E1
:100DB0004FEA801040EA01704FF46053C4F202031E
:100DC000C3F88400704700BF4FF06803C4F24723A4
:100DD000186070474FF04C03C4F247231860704707
:100DE0004FF46053C4F202039A6822F0EC6210439D
:100DF00008439860704700BF4FF46053C4F2020389
:100E00009A6822F07842104308439860704700BF08
:100E10004FF46053C4F202039A6822F003021043B5
:100E2000986070474FF46053C4F20203986800F072
:100E30000C0070474FF46053C4F202039A6822F02A
:100E4000F0021043986070474FF46053C4F20203FD
:100E50009A6822F4E0521043986070474FF4605350
:100E6000C4F202039A6822F4604242EAC000986029
:100E7000704700BF10B44FF46053C4F202039B6884
:100E800003F00C03042B09D0082B0DD0002B38D114
:100E90004FF41053C0F2F403036037E04FF4905363
:100EA000C0F27A03036031E04FF46053C4F20203EE
:100EB0005C685A6802F03F0214F4800F4FF46053EC
:100EC000C4F202035B68C3F3881319BF4FF4905454
:100ED000C0F27A044FF41054C0F2F404B4FBF2F1FF
:100EE00001FB03F14FF46053C4F202035A68C2F3EA
:100EF000014202F101024FEA4202B1FBF2F3036048
:100F000004E04FF41053C0F2F40303604FF4605256
:100F1000C4F202029168C1F3031140F23003C2F23D
:100F20000003595C046824FA01F141609468C4F339
:100F300082241C5D21FA04F484609268C2F3423278
:100F40009B5C21FA03F1C16010BC704700F4407350
:100F5000B3F5407F0CD14FF46053C4F2020399689B
:100F600021F4F81120F0704222F440720A439A6092
:100F70004FF46053C4F202031A6F4FEA00504FEA75
:100F8000105010431867704740F63C63C4F2472383
:100F9000186070474FF46463C4F2472318607047C9
:100FA0004FF4AE73C4F247231860704739B14FF461
:100FB0006053C4F202031A6B1043186370474FF476
:100FC0006053C4F202031A6B22EA000018637047F0
:100FD00039B14FF46053C4F202035A6B10435863A3
:100FE00070474FF46053C4F202035A6B22EA0000C8
:100FF0005863704739B14FF46053C4F202039A6BDF
:101000001043986370474FF46053C4F202039A6B25
:1010100022EA00009863704739B14FF46053C4F27C
:1010200002031A6C1043186470474FF46053C4F203
:1010300002031A6C22EA00001864704739B14FF4B9
:101040006053C4F202035A6C1043586470474FF463
:101050006053C4F202035A6C22EA000058647047DD
:1010600039B14FF46053C4F202031A691043186196
:1010700070474FF46053C4F202031A6922EA000079
:101080001861704739B14FF46053C4F202035A69D2
:101090001043586170474FF46053C4F202035A6919
:1010A00022EA00005861704739B14FF46053C4F22E
:1010B00002039A691043986170474FF46053C4F279
:1010C00002039A6922EA00009861704739B14FF42F
:1010D0006053C4F202031A6A1043186270474FF457
:1010E0006053C4F202031A6A22EA000018627047D1
:1010F00039B14FF46053C4F202035A6A1043586284
:1011000070474FF46053C4F202035A6A22EA0000A7
:101110005862704739B14FF46053C4F202031A6D3C
:101120001043186570474FF46053C4F202031A6D00
:1011300022EA00001865704739B14FF46053C4F2D9
:1011400002035A6D1043586570474FF46053C4F260
:1011500002035A6D22EA00005865704739B14FF416
:101160006053C4F202039A6D1043986570474FF4C0
:101170006053C4F202039A6D22EA0000986570473A
:1011800039B14FF46053C4F202031A6E104318666B
:1011900070474FF46053C4F202031A6E22EA000053
:1011A0001866704739B14FF46053C4F202035A6EA7
:1011B0001043586670474FF46053C4F202035A6EEE
:1011C00022EA00005866704739B143F60D03C4F2B5
:1011D00002031A7810431870704743F60D03C4F2E7
:1011E00002031A7822EA0000187070474FEA501381
:1011F000012B05D14FF46053C4F202031B6807E0D2
:10120000022B4FF46053C4F202030CBF1B6F5B6FE1
:1012100000F01F0023FA00F000F00100704700BF4B
:1012200010B582B04FF0000301934FF03104204617
:10123000FFF7DCFF019B03F101030193019BB3F571
:10124000A06F01D00028F2D04FF03100FFF7CEFFA1
:10125000003018BF012002B010BD00BF4FF4605332
:10126000C4F202035A6F42F080725A67704700BF9F
:101270004FF46053C4F20203DB6818420CBF002035
:101280000120704743F60E03C4F202031870704742
:1012900008B54FF00003C4F2020398420BD14FF09F
:1012A00001000146FFF7DCFE4FF001004FF00001A6
:1012B000FFF7D6FE08BD4FF48063C4F202039842E4
:1012C0000CD14FF002004FF00101FFF7C9FE4FF0C3
:1012D00002004FF00001FFF7C3FE08BD4FF40063AA
:1012E000C4F2020398420CD14FF004004FF0010108
:1012F000FFF7B6FE4FF004004FF00001FFF7B0FE1D
:1013000008BD4FF44063C4F2020398420CD14FF081
:1013100008004FF00101FFF7A3FE4FF008004FF067
:101320000001FFF79DFE08BD4FF48053C4F2020395
:1013300098420CD14FF010004FF00101FFF790FEE2
:101340004FF010004FF00001FFF78AFE08BD4FF488
:10135000A053C4F2020398420CD14FF020004FF08A
:101360000101FFF77DFE4FF020004FF00001FFF775
:1013700077FE08BD4FF4C053C4F2020398420CD16B
:101380004FF040004FF00101FFF76AFE4FF04000C0
:101390004FF00001FFF764FE08BD4FF4E053C4F2C4
:1013A000020398420CD14FF080004FF00101FFF78B
:1013B00057FE4FF080004FF00001FFF751FE08BDCF
:1013C0004FF40053C4F2020398420BD14FF48070E3
:1013D0004FF00101FFF744FE4FF480704FF0000121
:1013E000FFF73EFE08BD00BF2DE9F0074FF00002F9
:1013F00013464FF001074FF0030C1E4607FA03F4A3
:101400000D682540A54243D1D0F8009090460CFAD3
:1014100002F46FEA040404EA0909C0F80090D0F865
:1014200000A091F8049009FA02F949EA0A09C0F803
:10143000009091F8049009F1FF395FFA89F9B9F148
:10144000010F1CD8D0F8089004EA0909C0F80890E8
:10145000D0F808A091F8059009FA02F949EA0A09BA
:10146000C0F80890D0F8049029EA05054560456861
:1014700091F8069009FA03F6B6B22E434660C568A5
:101480002C40C460C568CC7904FA08F42C43C460CD
:1014900003F1010302F10202102BAED1BDE8F00707
:1014A000704700BF4FF6FF7303604FF000030371F6
:1014B00043718371C371704782B04FF480330193DD
:1014C000019B0B430193019BC361C161019BC361FC
:1014D000C3690193C369019302B07047036919425C
:1014E0000CBF002001207047006980B2704700BF28
:1014F000436919420CBF002001207047406980B247
:10150000704700BF01837047418370470AB1018370
:1015100070474183704700BF41617047436959403C
:101520004161704730B401F007034FEA83034FEA8B
:10153000D10101F1080150F821504FF00F0404FAD5
:1015400003F425EA040440F8214050F8214002FA4F
:1015500003F3234340F8213030BC704728B943F2ED
:10156000DB024FF020431A6005E043F2D2024FF055
:10157000204343F8202000F101016FF070424FF04A
:10158000204343F821204FF48273CAF2000343F84A
:101590002020704710B40268816843681943C3680B
:1015A0001943036919434369194383691943C3699B
:1015B0001943036A1943436A1943836A1943C36A87
:1015C0001943036B19434FF0204343F822108368FB
:1015D000082B08D102684FF0204353F8221041F045
:1015E000400143F82210026802F10102436B9C693A
:1015F000196821435C6841EA04119C6841EA0421AE
:10160000DC6841EA04411C6941EA04515B6941EA32
:1016100003614FF0204343F82210C36AB3F5804FB3
:1016200017D10268836B986919680143586841EAC9
:101630000011986841EA0021186941EA00515B698C
:1016400041EA03614FF48273CAF2000343F82210A7
:1016500008E002684FF48273CAF200036FF0704131
:1016600043F8221010BC704710B44FF00003036021
:101670004FF0020242608360C36003614361836193
:10168000C36103624FF4805242624FF4005282629F
:10169000C3620363416B4FF00F020A60416B4A6003
:1016A000446B4FF0FF01A160446BE260446B226128
:1016B000446B6261446BA361846B2260846B6260E3
:1016C000846BA160816BCA60816B0A61816B4A6126
:1016D000826B936110BC704741B14FF0204353F8C7
:1016E000202042F0010243F8202070474FF02042B2
:1016F00052F820104FF6FE73C0F20F030B4042F871
:101700002030704710280CBF60238023CAF20003EA
:101710004FF018021A604FF040025A604FF0FC324E
:101720009A60DA60704700BF30B4446883681C4335
:1017300044F00804C3681C4303691C43436944EA3A
:101740004324836944EA4334C3695A689D684FEA75
:10175000054545EA02251A681543DB6845EA036535
:10176000036A59689A684FEA024242EA01221968FC
:101770000A43DB6842EA03620368102B0CBF602354
:101780008023CAF200031C609D60DA6030BC7047A1
:101790004FF0100303604FF0000343608360C360A9
:1017A000036143618361C2694FF0FC031360C26946
:1017B0005360C2699360C269D360026A1360026AAF
:1017C0005360026A9360026AD360704751B1102877
:1017D0000CBF60238023CAF200031A6842F004029F
:1017E0001A60704710280CBF60228022CAF20002E3
:1017F00011684FF6FB73C0F20F030B401360704784
:1018000051B110280CBF60238023CAF200031A686C
:1018100042F040021A60704710280CBF60228022FC
:10182000CAF2000211684FF6BF73C0F20F030B40FB
:1018300013607047102805D14FF06003CAF200030F
:10184000586970474FF08003CAF200035869704727
:101850004FF0A003CAF200034FF018021A604FF0D5
:1018600000025A604FF0FC329A60DA601A617047E9
:1018700010B4026842F01002436842EA43228368CF
:1018800042EA43324FF0A003CAF200031A60C26872
:10189000546891684FEA014141EA042114682143E8
:1018A000D26841EA02629A600269546891684FEA1C
:1018B000014141EA042114682143D26841EA0262ED
:1018C000DA604269506891684FEA014141EA0021BB
:1018D00010680143D26841EA02621A6110BC704785
:1018E0004FF00003036043608360C2684FF0FC0365
:1018F0001360C2685360C2689360C268D3600269B3
:10190000136002695360026993600269D36042699F
:10191000136042695360426993604269D3607047C3
:1019200040B14FF0A003CAF200031A6842F004026B
:101930001A6070474FF0A002CAF2000211684FF619
:10194000FB73C0F20F030B4013607047A2B1102865
:1019500007D14FF06003CAF200035A68114359607F
:101960007047B0F5807F0CBF8023A023CAF200032C
:101970005A68114359607047102808D14FF060032E
:10198000CAF200035A6822EA010159607047B0F5B3
:10199000807F0CBF8023A023CAF200035A6822EA8A
:1019A00001015960704700BF102805D14FF0600356
:1019B000CAF200035B6807E0B0F5807F0CBF8023AC
:1019C000A023CAF200035B680B420CBF0020012079
:1019D000704700BF102808D14FF06003CAF200031F
:1019E0005A6822EA010159607047B0F5807F0CBF48
:1019F0008023A023CAF200035A6822EA0101596039
:101A0000704700BF102805D14FF06003CAF20003F1
:101A10005B6807E0B0F5807F0CBF8023A023CAF28B
:101A200000035B680B4205D013EAD1010CBF002014
:101A3000012070474FF00000704700BF102808D108
:101A40004FF06003CAF200035A6822EAD1015960DC
:101A50007047B0F5807F0CBF8023A023CAF200033B
:101A60005A6822EAD1015960704700BF08B54FF4A7
:101A7000A843C4F2000398420CD14FF400104FF079
:101A80000101FFF723FB4FF400104FF00001FFF7B7
:101A90001DFB08BD4FF4B043C4F2000398420CD1C3
:101AA0004FF480004FF00101FFF710FB4FF480006E
:101AB0004FF00001FFF70AFB08BD4FF4B843C4F232
:101AC000000398420BD14FF400004FF00101FFF7E3
:101AD000FDFA4FF400004FF00001FFF7F7FA08BDE0
:101AE00070B584B004460D46868826F03F064FEA5E
:101AF00006464FEA16466846FFF7BCF902994DF6CE
:101B00008362C4F21B32A2FB01024FEA92421643E7
:101B1000A680238823F001034FEA03434FEA1343CF
:101B200023802B6848F2A060C0F2010083420BD8EA
:101B30004FEA4303B1FBF3F189B202F101022284BF
:101B4000032998BF04212EE0EE884BF6FF708642F1
:101B500005D103EB4303B1FBF3F189B208E003EBDA
:101B6000830303EB8303B1FBF3F189B241F48041BA
:101B70004FEA01534FEA13530BB941F001016FEAE9
:101B800041416FEA514189B24FF4967303FB02F26F
:101B900044F6D353C1F2620383FB02034FEAA3135B
:101BA00003F101032384A18323889BB243F0010343
:101BB0002380238823F4806323F00A034FEA03433E
:101BC0004FEA13436989AA880A4313439BB22380CF
:101BD0002A89AB8913439BB2238104B070BD00BF37
:101BE00041F2883303604FF0000383804BF6FF72AD
:101BF000C280038143814FF480438381704700BFDB
:101C000029B103889BB243F0010303807047038826
:101C100023F001034FEA03434FEA13430380704765
:101C200029B103889BB243F4807303807047038813
:101C300023F480734FEA03434FEA13430380704752
:101C400029B103889BB243F4007303807047038873
:101C500023F400734FEA03434FEA134303807047B2
:101C600012B141F0010101E001F0FE010182704773
:101C700029B103889BB243F48063038070470388D3
:101C800023F480634FEA03434FEA13430380704712
:101C9000838901F0FE0123F0FE034FEA03434FEA7C
:101CA00013430B438381704729B183899BB243F06F
:101CB000010383817047838923F001034FEA0343C3
:101CC0004FEA13438381704729B103889BB243F0E5
:101CD000400303807047038823F040034FEA034327
:101CE0004FEA13430380704739B103886FEA4343D7
:101CF0006FEA53439BB20380704703884FEA434324
:101D00004FEA53430380704729B903889BB243F0DD
:101D1000800303807047038823F080034FEA034366
:101D20004FEA134303807047B1F5804F08D0838B8F
:101D300023F480434FEA03434FEA134383837047FE
:101D4000838B9BB243F4804383837047B1F5006F6C
:101D500005D103889BB243F4006303807047038876
:101D600023F400634FEA03434FEA134303807047B1
:101D7000B1F5005F05D103889BB243F400530380A3
:101D80007047038823F400534FEA03434FEA134399
:101D90000380704729B103889BB243F0100303808E
:101DA0007047038823F010034FEA03434FEA1343BD
:101DB0000380704701827047008AC0B2704700BF3D
:101DC00029B103889BB243F4805303807047038892
:101DD00023F480534FEA03434FEA134303807047D1
:101DE000B1F5006F05D103889BB243F40063038013
:101DF0007047038823F400634FEA03434FEA134319
:101E00000380704729B103889BB243F0200303800D
:101E10007047038823F020034FEA03434FEA13433C
:101E200003807047008BC0F30720704729B1838877
:101E30009BB243F4006383807047838823F400637C
:101E40004FEA03434FEA13438380704729B18388E5
:101E50009BB243F4805383807047838823F480537C
:101E60004FEA03434FEA13438380704782B04FF039
:101E7000000301930190019BC9180191019B1888EF
:101E800080B202B0704700BF22B183889BB2194371
:101E90008180704783889BB223EA0101818070476B
:101EA000838A9BB2008B43EA0040084020F07F40C9
:101EB000814214BF00200120704700BF838A9BB27B
:101EC000008B43EA004020F07F40704782B04FF023
:101ED00000030193009300904FEA1173019321F0E6
:101EE0007F41019B23B1009B03F11403009305E0A4
:101EF0004FEA1141009B03F118030093009B1B68FC
:101F000019420CBF0020012002B070476FEA0101A6
:101F100089B28182704700BF83889AB2838A9BB25C
:101F20000B4207D001F0E06112EA11410CBF002022
:101F3000012070474FF00000704700BF6FEA0101B9
:101F400089B28182704700BF08B54FF44053C4F294
:101F5000010398420CD14FF480504FF00101FFF77C
:101F6000C7F84FF480504FF00001FFF7C1F808BDEB
:101F70004FF46053C4F2000398420CD14FF48040F8
:101F80004FF00101FFF7A2F84FF480404FF000013D
:101F9000FFF79CF808BD4FF47053C4F20003984259
:101FA0000BD14FF400404FF00101FFF78FF84FF4D1
:101FB00000404FF00001FFF789F808BD10B4028817
:101FC00002F441524C880B8823438C882343CC88ED
:101FD00023430C8923434C8923438C892343CC8995
:101FE000234313439BB20380838B23F400634FEAA4
:101FF00003434FEA134383830B8A038210BC704769
:10200000F0B4838B23F47A6323F01F034FEA034376
:102010004FEA134383834FF002030384848BA4B2FB
:102020008B68022B54D08E88002E14BF0226012606
:102030004FF46053C4F202039B6813F4000F07D0FF
:102040004FF46053C4F202039A6822F400029A60CB
:102050004FF46053C4F20203D3F88450D3F88420C1
:102060005F68C5F3881507F03F074FF49053C0F23F
:102070007A03B3FBF7F303FB05F3C2F30272B3FB7E
:10208000F2F3CA88B2F5007F0EBF1B0A7601B3FBDC
:10209000F6F303EB83034FEA43038A68B3FBF2F3DF
:1020A00003F105039BB24CF6CD42CCF6CC42A2FB29
:1020B00003534FEAD30303F001024FEA5303A3F1A2
:1020C0000205ADB2FD2D08D84FEA022292B208E017
:1020D0004FF000024FF0020303E04FF000024FF018
:1020E00002031343CA88134303840A8844EA0203A1
:1020F00043F400634A8813438A8813438A8913434D
:102100009BB28383F0BC70474FF000030380438091
:102110008380C380038143818381C3814FF00703A0
:10212000038270474FF00003038043808380C380A5
:102130004FF0020282608381704700BF29B103889B
:102140009BB243F0400303807047038823F04003B1
:102150004FEA03434FEA13430380704729B1838B4F
:102160009BB243F4806383837047838B23F4806343
:102170004FEA03434FEA134383837047038823F4F2
:1021800000634FEA03434FEA1343038003889BB283
:1021900019430180704700BFB1F5804F05D1038816
:1021A0009BB243F4804303807047038823F4804349
:1021B0004FEA03434FEA1343038070474FF6FF6330
:1021C000994205D003889BB243F480730380704723
:1021D000038823F480734FEA03434FEA13430380D9
:1021E000704700BF29B183889BB243F0040383800A
:1021F0007047838823F004034FEA03434FEA1343F5
:102200008380704729B183889BB243F01003838099
:102210007047838823F010034FEA03434FEA1343C8
:102220008380704710B4838B23F47A6323F01F03F9
:102230004FEA03434FEA134383834FF002030384BF
:10224000828B92B20B88B3F5007F05D0002B0CBFB8
:102250004FF48073002301E04FF480734C882243D5
:1022600042F400628C88224389890A4392B2134364
:10227000838310BC704700BF808980B2704700BF65
:102280008181704729B103889BB243F400530380D6
:102290007047038823F400534FEA03434FEA134384
:1022A0000380704703889BB243F4805303807047D8
:1022B000012902D0008B80B27047808A80B27047BB
:1022C000008A80B2704700BF22B183889BB2194355
:1022D0008180704783889BB223EA01018180704727
:1022E0004FEA11114FF0010303FA01F189B222B153
:1022F00083889BB219438180704783889BB223EA0D
:1023000001018180704700BF038919420CBF002082
:10231000012070476FEA010189B20181704700BF57
:1023200010B483889CB2028992B201F00F034FF07F
:10233000010000FA03F31A4208D04FEA111100FA23
:1023400001F10C420CBF0020012001E04FF0000021
:1023500010BC704701F00F014FF0010303FA01F3C5
:102360006FEA03039BB20381704700BF30B4048C53
:1023700024F001044FEA04444FEA14440484058B1A
:10238000048C25F0F3054FEA05454FEA15452A432D
:1023900042EA031292B224F00A044FEA04444FEADC
:1023A000144444F0010421430283018430BC70478B
:1023B00030B4048C24F010044FEA04444FEA14446F
:1023C0000484058B048C25F440754FEA05554FEACB
:1023D000155545EA022242EA033292B224F0A004E3
:1023E0004FEA04444FEA144444F0100444EA011153
:1023F00089B20283018430BC704700BF08B54FF03A
:102400000003C4F2010398420BD14FF001000146D2
:10241000FEF76EFE4FF001004FF00001FEF768FE80
:1024200008BDB0F1804F0BD14FF001000146FEF71F
:102430004DFE4FF001004FF00001FEF747FE08BDD2
:102440004FF48063C4F2000398420CD14FF00200B5
:102450004FF00101FEF73AFE4FF002004FF000018D
:10246000FEF734FE08BD4FF40063C4F20003984247
:102470000CD14FF004004FF00101FEF727FE4FF0A2
:1024800004004FF00001FEF721FE08BD4FF4406349
:10249000C4F2000398420CD14FF008004FF0010144
:1024A000FEF714FE4FF008004FF00001FEF70EFE9D
:1024B00008BD4FF48053C4F2000398420CD14FF092
:1024C00010004FF00101FEF701FE4FF010004FF039
:1024D0000001FEF7FBFD08BD4FF4A053C4F200035A
:1024E00098420CD14FF020004FF00101FEF7EEFDB5
:1024F0004FF020004FF00001FEF7E8FD08BD4FF45B
:102500008063C4F2010398420CD14FF002004FF0F7
:102510000101FEF7EDFD4FF002004FF00001FEF764
:10252000E7FD08BD4FF48043C4F2010398420CD18B
:102530004FF480304FF00101FEF7DAFD4FF48030A8
:102540004FF00001FEF7D4FD08BD4FF48843C4F2FC
:10255000010398420CD14FF400304FF00101FEF717
:10256000C7FD4FF400304FF00001FEF7C1FD08BD7C
:102570004FF49043C4F2010398420CD14FF48020F1
:102580004FF00101FEF7B4FD4FF480204FF0000141
:10259000FEF7AEFD08BD4FF4C053C4F200039842ED
:1025A0000CD14FF040004FF00101FEF78FFD4FF0CE
:1025B00040004FF00001FEF789FD08BD4FF4E053E5
:1025C000C4F2000398420CD14FF080004FF001019B
:1025D000FEF77CFD4FF080004FF00001FEF776FD26
:1025E00008BD4FF40053C4F2000398420BD14FF4DE
:1025F00080704FF00101FEF769FD4FF480704FF0DD
:102600000001FEF763FD08BD03889BB24FF0000296
:10261000C4F2010290421AD04FF48062C4F2010267
:10262000904214D0B0F1804F11D04FF48062C4F2C8
:10263000000290420BD04FF40062C4F200029042BC
:1026400005D04FF44062C4F20002904204D14FF62C
:102650008F721A404B8813434FF48052C4F2000229
:10266000904221D04FF4A052C4F2000290421BD0FD
:102670004FF6FF421A400B891A4302804B68C3622F
:102680000B8803854FF00003C4F20103984205D084
:102690004FF48063C4F20103984201D18B7A038620
:1026A0004FF001038382704703804B68C3620B883D
:1026B0000385EDE74FF0FF3343604FF000030380E5
:1026C000038143808372704701858282704700BF17
:1026D000038823F070034FEA03434FEA13430B438D
:1026E0000380704741627047C1627047406A70471B
:1026F000008D80B2704700BF29B103889BB243F0C0
:10270000020303807047038823F002034FEA034368
:102710004FEA13430380704729B103889BB243F00B
:10272000040303807047038823F004034FEA034344
:102730004FEA13430380704729B103889BB243F0EB
:10274000800303807047038823F080034FEA03432C
:102750004FEA134303807047038823F008034FEACE
:1027600003434FEA1343038003889BB2194301805C
:10277000704700BF038823F440734FEA03434FEAD6
:102780001343038003889BB219430180704700BF45
:1027900029B103889BB243F001030380704703888B
:1027A00023F001034FEA03434FEA134303807047CA
:1027B00070B4038C23F001034FEA03434FEA134341
:1027C0000384038C8588ADB2028B22F073024FEA3A
:1027D00002424FEA12420C88224323F002034FEADE
:1027E00003434FEA13434E888C893443A4B22343F6
:1027F0004FF00004C4F20104A04205D04FF48064FD
:10280000C4F20104A04211D14FF6F7741C40CB89E9
:102810001C434FF6FB7323408C8823434FF6FF4441
:102820002C404E8A0D8A3543ADB225438580028304
:102830008A684263038470BC704700BF30B4038C65
:1028400023F010034FEA03434FEA13430384038C3E
:102850008488A4B2028B22F4E6424FEA02424FEA95
:1028600012420D8842EA052292B223F020034FEA79
:1028700003434FEA13438D8943EA05134D8843EA26
:1028800005139BB24FF00005C4F20105A84205D024
:102890004FF48065C4F20105A84216D14FF67F754A
:1028A0001D40CB8945EA03154FF6BF732B408D8839
:1028B00043EA05139BB24FF2FF3525400C8A45EAE7
:1028C00084054C8A45EA8404A4B2848002838A6821
:1028D0008263038430BC704730B4038C23F480736C
:1028E0004FEA03434FEA13430384038C8488A4B262
:1028F000828B22F073024FEA02424FEA12420D88A5
:102900002A4323F400734FEA03434FEA13438D89AC
:1029100043EA05234D8843EA05239BB24FF00005A7
:10292000C4F20105A84205D04FF48065C4F2010548
:10293000A84216D14FF2FF751D40CB8945EA032509
:102940004FF6FF332B408D8843EA05239BB24CF6AC
:10295000FF7525400C8A45EA04154C8A45EA0414A3
:10296000A4B2848082838A68C263038430BC7047C7
:1029700030B4038C23F480534FEA03434FEA1343EC
:102980000384038C8588ADB2828B22F4E6424FEA41
:1029900002424FEA12420C8842EA042292B223F425
:1029A00000534FEA03434FEA13438C8943EA04334D
:1029B0004C8843EA04339BB24FF00004C4F2010494
:1029C000A04205D04FF48064C4F20104A04206D1B5
:1029D0004BF6FF742C400D8A44EA8515ADB2858014
:1029E00082838A680264038430BC70474FF000031E
:1029F00003804380838083608381C3810382438219
:102A0000704700BF30B400F11803058CADB24FF031
:102A1000010404FA01F425EA0404048409B1082934
:102A20000AD14FEA5101CC584FF68F702040C85060
:102A3000C8580243CA500EE0A1F10401C1F34E018F
:102A4000CC5848F6FF702040C850C8584FEA0222C0
:102A500092B20243CA5030BC704700BF4163704716
:102A600081637047C163704701647047038B23F033
:102A700070034FEA03434FEA13430B43038370474A
:102A8000038B23F4E0434FEA03434FEA134343EA43
:102A900001239BB203837047838B23F070034FEABB
:102AA00003434FEA13430B4383837047838B23F421
:102AB000E0434FEA03434FEA134343EA01239BB247
:102AC00083837047038B23F008034FEA03434FEAE5
:102AD00013430B4303837047038B23F400634FEAD4
:102AE00003434FEA134343EA01239BB20383704736
:102AF000838B23F008034FEA03434FEA13430B434E
:102B000083837047838B23F400634FEA03434FEAC8
:102B1000134343EA01239BB283837047038B23F063
:102B200004034FEA03434FEA13430B430383704705
:102B3000038B23F480634FEA03434FEA134343EAD2
:102B400001239BB203837047838B23F004034FEA76
:102B500003434FEA13430B4383837047838B23F470
:102B600080634FEA03434FEA134343EA01239BB2D6
:102B700083837047038B23F080034FEA03434FEABC
:102B800013430B4303837047038B4FEA43434FEADE
:102B9000534343EA01239BB203837047838B23F0A3
:102BA00080034FEA03434FEA13430B438383704789
:102BB000838B4FEA43434FEA534343EA01239BB2DB
:102BC00083837047038C23F002034FEA03434FEAE9
:102BD00013430B4303847047038C23F008034FEA2D
:102BE00003434FEA13430B4303847047038C23F0E2
:102BF00020034FEA03434FEA134343EA01139BB216
:102C000003847047038C23F080034FEA03434FEAA9
:102C1000134343EA01139BB203847047038C23F4EC
:102C200000734FEA03434FEA134343EA01239BB285
:102C300003847047038C23F400634FEA03434FEA95
:102C4000134343EA01239BB203847047038C23F4AC
:102C500000534FEA03434FEA134343EA01339BB265
:102C60000384704710B4048CA4B24FF0010303FA3C
:102C700001F324EA03030384038C02FA01F11943EC
:102C800089B2018410BC704710B4048CA4B24FF018
:102C9000040303FA01F324EA03030384038C02FA16
:102CA00001F1194389B2018410BC70474FF0000351
:102CB000038043804FF001028280C380038170470C
:102CC000406B7047806B7047C06B7047006C7047FB
:102CD000038B23F00C034FEA03434FEA13430383B0
:102CE000038B9BB219430183704700BF038B23F40E
:102CF00040634FEA03434FEA13430383038B9BB2C2
:102D000043EA012189B20183704700BFF8B5054647
:102D10000C46498800290CBF02260026A288012AF9
:102D200014BF0127022723888BB92389FFF71EFBD5
:102D3000E1882846FFF7CCFF2389284631463A46EA
:102D4000FFF736FBE1882846FFF7D0FFF8BD23895F
:102D5000FFF72EFBE1882846FFF7C8FF23892846A6
:102D600031463A46FFF702FBE1882846FFF7B0FFFD
:102D7000F8BD00BF838B23F00C034FEA03434FEAF7
:102D800013438383838B9BB219438183704700BFB6
:102D9000838B23F440634FEA03434FEA1343838357
:102DA000838B9BB243EA012189B28183704700BFC4
:102DB000F8B504460D460B884BB94988AA882B897B
:102DC000FFF7D4FAE9882046FFF782FFF8BD042B0D
:102DD00009D14988AA882B89FFF7EAFAE9882046B1
:102DE000FFF784FFF8BD082B28D148888E880F890B
:102DF000218C21F480714FEA01414FEA1141218475
:102E0000A28B238C22F0F3024FEA02424FEA1242D5
:102E100042EA071292B2324323F420634FEA03439B
:102E20004FEA134343EA00239BB243F48073A28327
:102E30002384E9882046FFF79DFFF8BD48888F88E6
:102E40000E89218C21F480514FEA01414FEA114152
:102E50002184A28B238C22F440724FEA02524FEA63
:102E6000125242EA072242EA063292B223F4005397
:102E70004FEA43434FEA534343EA00339BB243F4E0
:102E80008053A2832384E9882046FFF781FFF8BDA1
:102E90004A880B8813438A881343CA8813430A89D4
:102EA00013434A8913438A8913439BB2A0F84430E1
:102EB000704700BF4FF00003038043808380C380CE
:102EC000038143818381704749B1B0F844306FEA90
:102ED00043436FEA53439BB2A0F844307047B0F8C5
:102EE00044304FEA43434FEA5343A0F8443070471D
:102EF00029B183889BB243F00403838070478388A1
:102F000023F004034FEA03434FEA134383807047DF
:102F100029B183889BB243F0010383807047838883
:102F200023F001034FEA03434FEA134383807047C2
:102F300022B183899BB219438181704783899BB2F7
:102F400023EA01018181704781827047038A194217
:102F50000CBF0020012070476FEA010189B2018295
:102F6000704700BF038A828992B2194204D011428D
:102F70000CBF0020012070474FF00000704700BFD9
:102F80006FEA010189B20182704700BF1143A0F8C6
:102F90004810704722B183899BB2194381817047E1
:102FA00083899BB223EA01018181704729B183881B
:102FB0009BB243F0080383807047838823F00803A3
:102FC0004FEA03434FEA134383807047038923F09A
:102FD00007034FEA03434FEA13430381704700BFDF
:102FE000038923F070034FEA03434FEA13430B4373
:102FF0000381704738B504460D46602905D1114656
:103000004FF00102FFF7D4F904E011464FF001023E
:10301000FFF7ACF920462946FFF7E2FF23899BB270
:1030200043F00703238138BD10B50446FFF7D8FFEE
:1030300023899BB243F00703238110BD838823F0CB
:1030400070034FEA03434FEA1343838083889BB2A4
:1030500019438180704700BF038923F007034FEABB
:1030600003434FEA1343038103899BB21943018150
:10307000704700BF038923F080034FEA03434FEA00
:103080001343038103899BB219430181704700BF39
:1030900010B40489E4B221430A4342EA032292B203
:1030A000028110BC704700BF10B50446FFF7F0FF67
:1030B00023899BB243F48043238110BD10B504469D
:1030C000FFF7E6FF238923F077034FEA03434FEA34
:1030D000134343F07703238110BD00BF70B406890A
:1030E000048B058C26F007064FEA06464FEA164683
:1030F000314324F4407424F003044FEA04444FEABB
:10310000144444F4807444F0010425F022054FEA8D
:1031100005454FEA15452A4342EA031292B201815E
:103120000483028470BC704729B183889BB243F04A
:10313000800383807047838823F080034FEA034332
:103140004FEA134383807047A0F85010704700BFC8
:10315000F0B583B04FF004004FF00101FEF7BCFA68
:103160004FF00400FEF7FAF94CF2037300934FF0AE
:1031700000048DF804408DF807404FF44066C4F217
:10318000020630466946FEF72FF9304621462246B0
:10319000FEF7C8F930464FF001012246FEF7C2F9AA
:1031A00030464FF008012246FEF7BCF930464FF09A
:1031B00009012246FEF7B6F930464FF00A012246D1
:1031C000FEF7B0F930464FF00E012246FEF7AAF99D
:1031D00030464FF00F012246FEF7A4F94FF68073F8
:1031E00000934FF48057C4F2020738466946FEF751
:1031F000FBF838464FF007012246FEF793F93846B0
:103200004FF008012246FEF78DF938464FF00901CC
:103210002246FEF787F938464FF00A012246FEF7AC
:1032200081F938464FF00B012246FEF77BF938460C
:103230004FF00C012246FEF775F938464FF00D01AC
:103240002246FEF76FF938464FF00E012246FEF790
:1032500069F938464FF00F012246FEF763F94FF245
:103260003F0300934FF4A055C4F202052846694677
:10327000FEF7BAF8284621462246FEF753F92846BB
:103280004FF001012246FEF74DF928464FF00201AA
:103290002246FEF747F928464FF003012246FEF783
:1032A00041F928464FF004012246FEF73BF9284633
:1032B0004FF005012246FEF735F928464FF00C0184
:1032C0002246FEF72FF928464FF00D012246FEF761
:1032D00029F928464FF00E012246FEF723F9284629
:1032E0004FF00F012246FEF71DF94FF03F03009308
:1032F0004FF4C055C4F2020528466946FEF774F83B
:10330000284621462246FEF70DF928464FF00101D6
:103310002246FEF707F928464FF002012246FEF743
:1033200001F928464FF003012246FEF7FBF8284634
:103330004FF004012246FEF7F5F828464FF005014C
:103340002246FEF7EFF84FF460530093304669468B
:10335000FEF74AF830464FF00B012246FEF7E2F83E
:1033600030464FF00C012246FEF7DCF830464FF0B5
:103370000D012246FEF7D6F84FF030030093304699
:103380006946FEF731F830464FF004012246FEF759
:10339000C9F830464FF005012246FEF7C3F84FF456
:1033A0008063009328466946FEF71EF828464FF0D2
:1033B0000C012246FEF7B6F84FF00303009338469F
:1033C0006946FEF711F8384621462246FEF7AAF86C
:1033D00038464FF001012246FEF7A4F803B0F0BDD5
:1033E000F0B583B04FF01A004FF00101FDF7DEFD9C
:1033F0004CF2B37300934FF002038DF804308DF854
:1034000005304FF000068DF806604FF001078DF88B
:1034100007704FF44064C4F2020420466946FDF789
:10342000E3FF204631464FF00C02FEF77BF82046C2
:1034300039464FF00C02FEF775F820464FF00401B4
:103440004FF00C02FEF76EF820464FF005014FF0EA
:103450000C02FEF767F820464FF007014FF00C0210
:10346000FEF760F820464FF008014FF00C02FEF71F
:1034700059F820464FF009014FF00C02FEF752F8C0
:1034800020464FF00A014FF00C02FEF74BF82046A1
:103490004FF00E014FF00C02FEF744F820464FF0BB
:1034A0000F014FF00C02FEF73DF84FF688730093C2
:1034B0004FF48055C4F2020528466946FDF794FF93
:1034C00028464FF003014FF00C02FEF72BF8284678
:1034D0004FF007014FF00C02FEF724F828464FF09A
:1034E00008014FF00C02FEF71DF828464FF00901C5
:1034F0004FF00C02FEF716F828464FF00A014FF085
:103500000C02FEF70FF828464FF00B014FF00C02AB
:10351000FEF708F828464FF00C010A46FEF702F8BD
:1035200028464FF00D014FF00C02FDF7FBFF284637
:103530004FF00E014FF00C02FDF7F4FF28464FF05C
:103540000F014FF00C02FDF7EDFF4FF00803009361
:103550008DF804708DF805608DF806608DF80760B1
:1035600020466946FDF740FF4FF4005500958DF861
:1035700004708DF805708DF806608DF807602046A0
:103580006946FDF731FF20462946FDF7BBFF03B032
:10359000F0BD00BF10B596B04FF001000146FDF739
:1035A00029FD4FF0050300934FF0000401940293AE
:1035B00003940494059406940794089409944FF096
:1035C00010030A930B940C940D940E940F944FF4E3
:1035D000805310931194129413940DEB04031493DD
:1035E000159307A8FDF7D6FF20464FF00101FEF71F
:1035F00073F816B010BD00BF4FF0C04318804FF0F5
:103600000003C6F210031980704700BF10B50346CF
:103610000C464FF04E001946FFF7EEFF4FF04F00FB
:103620002146FFF7E9FF10BD4FF0C04318804FF06F
:103630000003C6F21003188880B270474FF02202D0
:103640004FF0C0431A8070474FF00003C6F21003DA
:10365000188070474FF00003C6F21003188880B23C
:10366000704700BF08B54FF000000146FFF7CEFFDE
:10367000FFF7E4FF4FF4C8434FF00002C6F2100218
:103680004FF600011180013BFCD14FF4C8434FF0CD
:103690000002C6F210024FF4FC611180013BFCD124
:1036A0004FF4C8434FF00002C6F210024FF01F0162
:1036B0001180013BFCD108BD82B0ADF80600ADF829
:1036C0000410BDF8062092B247F65873C2F2010307
:1036D0001A80BDF8042092B240F24003C2F2000307
:1036E0001A8002B0704700BF47F65873C2F2010358
:1036F0001B889BB2038040F24003C2F200031B8888
:103700009BB20B80704700BF82B0ADF80600BDF8D9
:10371000062092B247F65873C2F201031A8002B033
:10372000704700BF82B0ADF80600BDF8062092B227
:1037300040F24003C2F200031A8002B0704700BF9B
:10374000704700BF704700BF47F65873C2F20103CD
:103750005860704747F65873C2F2010358687047C3
:1037600010B504464FF000000146FFF74FFFFFF78A
:1037700065FF4FF496334FF00002C6F2100214803A
:10378000013BFCD110BD00BF2DE9F84F8B469046A0
:1037900047F65873C2F201035D68EB88002B53D0E3
:1037A00082464FF000064AF6AB27CAF6AA2740F237
:1037B0004009C2F2000958465146FFF727FFFFF7BC
:1037C0003DFFAB8873B34FF0000438F81610204665
:1037D000A7FB032E4FF6F8720EEA02024FF0800E9E
:1037E0000EFA02F242FA04F20A4201D10C2B06D977
:1037F00041FA00F111F0010F07D10C2B05D9B9F8EE
:10380000000080B2FFF720FF07E047F65873C2F2CE
:103810000103188880B2FFF717FF04F10104AB8899
:10382000A342D2D80AF1010A1FFA8AFA5846514631
:10383000FFF7ECFE06F1010647F65873C2F20103EA
:103840005D68EB88B342B6D8BDE8F88F10B5A2F139
:103850002004E4B25A2C0ED9BF2A03D9A2F1610286
:10386000D4B208E0A82A04D0B82A14BF1446A02471
:1038700001E04FF09F0447F65873C2F201035B6802
:10388000DA8802FB04F21B6803EB4202FFF77CFFBD
:1038900010BD00BF2DE9F04106464FF000044FF087
:1038A000200747F65875C2F2010540F23F1830462E
:1038B00021463A46FFF7CAFF6B689B88E418A4B21A
:1038C0004445F4D9BDE8F0812DE9F04107460A7876
:1038D000B2B10E464FF0000447F65875C2F201052A
:1038E00040F23F1838462146FFF7B0FF6B689B88CF
:1038F000E418A4B2444503D816F8012F002AF1D1E8
:10390000BDE8F081F8B504460E4615461F464FF057
:1039100045002146FFF770FE6319B3F5A07F06DB73
:103920004FF0460040F23F11FFF766FE05E02D190B
:10393000A9B24FF04600FFF75FFEF719EF2FD4BF93
:1039400039024FF46F41214389B24FF04400FFF731
:1039500053FE20463146FFF759FEF8BD704700BFC1
:103960002DE9F04106460C4690461D46FFF74EFEF7
:103970002DB14746B8F1000F17D1BDE8F081FFF730
:103980005DFE4546B8F1000F27D04FF0000447F622
:103990005876C2F20106308880B2FFF755FE04F176
:1039A0000104AC42F7D3BDE8F0814FF0000547F6C3
:1039B0005878C2F20108FFF741FEB8F8000080B263
:1039C000FFF742FE04F10104A4B230462146FFF79E
:1039D0001DFE05F10105BD42EDD3BDE8F08100BF3C
:1039E00008B580B2B0F5A07F0AD2002908DBEF2924
:1039F00006DC89B24FF001024FF00003FFF7B0FF81
:103A000008BD00BFF8B504460D4617461E461A46C7
:103A10004FF00103FFF7A4FF04F1FF30381880B224
:103A2000294632464FF00103FFF79AFF2046294608
:103A30003A464FF00003FFF793FF7519A9B22046ED
:103A40003A464FF00003FFF78BFFF8BD2DE9F04F2A
:103A500085B081468A464FEA4203C3F103030293CD
:103A600090464FF0000547F65874C2F20104AEB21A
:103A700006EB090B1FFA8BFB1FFA88F707EB0A030B
:103A80009BB2019358461946FFF7C0FDFFF7D6FDDC
:103A9000208880B2FFF7D8FDC7EB0A039BB20393DF
:103AA00058461946FFF7B2FDFFF7C8FD208880B2DF
:103AB000FFF7CAFDC6EB090B1FFA8BFB58460199AD
:103AC000FFF7A4FDFFF7BAFD208880B2FFF7BCFD29
:103AD00058460399FFF79AFDFFF7B0FD208880B2A2
:103AE000FFF7B2FD07EB090B1FFA8BFB0AEB06038E
:103AF0009BB2019358461946FFF788FDFFF79EFDDC
:103B0000208880B2FFF7A0FDC6EB0A06B6B2584681
:103B10003146FFF77BFDFFF791FD208880B2FFF76C
:103B200093FDC7EB0907BFB238460199FFF76EFD59
:103B3000FFF784FD208880B2FFF786FD38463146C6
:103B4000FFF764FDFFF77AFD208880B2FFF77CFD68
:103B5000029A002A05DA02EB850303F106030293B9
:103B600009E0029A02F10A03C8EB050203EB8202A4
:103B7000029208F1FF3805F10105A845BFF477AFBF
:103B800005B0BDE8F08F00BF2DE9F04106464FF0CB
:103B9000000040F23F11FFF739FDFFF74FFD4FF0F6
:103BA000000547F65878C2F2010817E007FA04F258
:103BB00073591A4203BF40F24003C2F2000318884F
:103BC000B8F8000080B2FFF73FFD04F10104202C9B
:103BD000ECD105F10405B5F5165F04D04FF00004F3
:103BE0004FF00107E2E7BDE8F08100BF704700BF7A
:103BF0002DE9F84306460C461746984647F6587393
:103C0000C2F20103188880B2FFF77EFD30462146DC
:103C10003A464FF00003FFF7A3FE08EB040189B218
:103C200030463A464FF00003FFF79AFE30462146F1
:103C300042464FF00103FFF793FE06F1FF303818BC
:103C400080B2214642464FF00103FFF789FE40F261
:103C50004003C2F20003188880B2FFF755FDB8F1A7
:103C6000010F19D004F10104A1B2A8F102081FFA52
:103C700088F808F101084FF00004A14600E0294649
:103C800001F10105ADB230463A464B46FFF768FEFA
:103C900004F101044445F2D147F65873C2F201031E
:103CA000188880B2FFF730FDBDE8F8832DE9F04FAA
:103CB00085B08146029103924FEA4206C6F103069F
:103CC000154640F24003C2F20003188880B2FFF7A5
:103CD0001BFD4F464FF00004A046B5B1029A02EB1F
:103CE000050A1FFA8AFA4FEA450B1FFA8BFB384682
:103CF00051465A464346FFF733FE09EB040080B2B3
:103D000051465A464346FFF72BFEDCB11FFA85FAAF
:103D1000A3B2029A03EB020B1FFA8BFB4FEA430399
:103D20009BB20193CAEB090080B259461A4643463A
:103D3000FFF716FECA441FFA8AF05946019A434615
:103D4000FFF70EFE002E04DA06EB840606F10606E7
:103D500006E006F10A06631B06EB830605F1FF3554
:103D600004F1010407F1FF37BFB2A542B5D247F60F
:103D70005873C2F20103188880B2FFF7C5FC4846A9
:103D80000299039AFFF762FE05B0BDE8F08F00BF0D
:103D90002DE9F04F85B0151A002DB8BF6D42ADB2B8
:103DA0005C1A002CB8BF6442A4B24FF6FF76824280
:103DB00028BF012602964FF6FF728B4228BF0122D0
:103DC00003922AB223B29A420CDB02EBD276C6F3FC
:103DD0004F06A1460195DDF808B04FF000020292AF
:103DE00092460CE026B206EBD676C6F34F06A946FD
:103DF0000194DDF80CA04FF0000303939B46019A59
:103E000012F4004F22D185B28CB24FF000070FFAA6
:103E100082F828B221B2FFF7E3FD4E44B3B29EB25E
:103E200032B2904508DC019A9E1AB6B2029BED1898
:103E3000ADB2039AA418A4B25D44ADB25444A4B286
:103E400007F10107BFB23BB29845E2DA05B0BDE821
:103E5000F08F00BF2DE9F04F83B00090019201294F
:103E600036D90788B0F8029028D0824600F10403C2
:103E7000A1F1020B1FFA8BFB03EB8B0B1E460546D1
:103E8000CAEB0504BFB204EB06081FFA89F9A25B6E
:103E9000BA1892B2B8F802304B449BB23846494641
:103EA000FFF776FFA35BFF18BFB2B8F80230994462
:103EB0001FFA89F905F104055D45E1D1019A3AB18E
:103EC000009B18885988BAB21FFA89F3FFF760FF80
:103ED00003B0BDE8F08F00BFF8B5012916D915D0A1
:103EE000064600F10403A1F10207BFB203EB870706
:103EF00004461D46A31B208861885A5B5B195B88BA
:103F0000FFF746FF04F10404BC42F3D1F8BD00BF43
:103F100038B504460D46FFF7DFFF05F1FF3504EB2A
:103F200085032088618834F825205B88FFF730FFFF
:103F300038BD00BF08B54FF00002FFF78BFF08BD8A
:103F400008B54FF00102FFF785FF08BD2DE9F04FDE
:103F5000EFB007460691B0F800B04388012940F25F
:103F600021811FFA8BFB9BB2089302469946CDF83C
:103F700024B04FF0010358464C460D46D18881428B
:103F800038BF0846594528BF8B4632F8041F4945BB
:103F900038BF8946A14228BF0C4603F101039BB2FA
:103FA000AB42EBD10990089440F24003C2F2000307
:103FB000188880B2FFF7A8FB089CA14580F0E78035
:103FC00040F24003C2F200030593069E002E64D027
:103FD00006F1FF35ADB24FF000042646A246CDF8FB
:103FE0001CB0DDF818B001E035461E4637F80480F5
:103FF0000FFA88F000F086FDCDE90201484600F096
:1040000071FDCDE90001DDE90201DDE9002300F0E9
:104010003FFE50B137F9250000F074FD02460B4613
:10402000DDE9000100F03EFE88B937F9250000F017
:1040300069FD02460B46DDE9000100F047FE10B3C2
:10404000DDE90201DDE9002300F036FED8B13B19BD
:104050005B880FFA88F807EB8501C8EB0902B1F914
:10406000020019B2411A01FB02F137F92520C8EB11
:10407000020891FBF8F843440AA820F81A300AF124
:10408000010A1FFA8AFA06F101039BB204F1040443
:104090005B45A9D1DDF81CB001E04FF0000A4FF0FC
:1040A00000030AF1FF3515E00AAA32F8131003F1F4
:1040B00001020AAE36F81200814208D926F814002F
:1040C00026F8121033B103F1FF339BB202E003F183
:1040D00001039BB21C46AB42E6DBBAF1000F4ED0A7
:1040E000BDF828309B454AD94FF000063446DDF82C
:1040F0002480009705E026460AA830F814305B4576
:104100003CD206F101050AA931F8152042452ED905
:10411000434538BF21F816800AAA32F815305B45AE
:1041200088BF22F815B0059B188880B2FFF7ECFA1B
:104130000AA830F8155030F81660AA1B92B248460B
:1041400029464FF00003FFF70BFC47F65873C2F205
:104150000103188880B2FFF7D7FA0FFA89F729B25E
:104160003846FFF73DFC31B23846FFF739FC04F121
:104170000204A4B2A245BED8009F00E0009F09F14E
:1041800001091FFA89F9089E4E453FF61EAF47F612
:104190005873C2F20103188880B2FFF7B5FA6FB006
:1041A000BDE8F08F40F24003C2F20003188880B2ED
:1041B000FFF7AAFAEBE700BF84B001904FF00003CD
:1041C0000393019B42F2107202FB03F30393039BE0
:1041D00033B1039B03F1FF330393039B002BF8D10F
:1041E00004B0704738B5FFF7FBF8FFF7D3F94FF08D
:1041F0000500FFF7E1FF4FF44064C4F202042046DB
:104200004FF00801FDF780F94FF00A00FFF7D4FFE7
:1042100020464FF00801FDF775F94FF010004FF000
:104220000101FFF7E9F94FF01E004FF0B201FFF76F
:10423000E3F94FF028004FF00601FFF7DDF94FF0EA
:1042400000004FF00101FFF7D7F94FF0010043F2F2
:10425000EF01FFF7D1F94FF002004FF4C061FFF713
:10426000CBF94FF010004FF00001FFF7C5F94FF008
:104270000500FFF7A1FF4FF0110046F63001FFF7F0
:10428000BBF94FF0120040F69911FFF7B5F94FF066
:1042900026004FF46051FFF7AFF94FF007004FF0E1
:1042A0003301FFF7A9F94FF00C004FF00501FFF7BC
:1042B000A3F94FF030004FF00001FFF79DF94FF0E8
:1042C000310040F20331FFF797F94FF0320040F22E
:1042D0000741FFF791F94FF0330040F20131FFF74A
:1042E0008BF94FF0340040F20131FFF785F94FF0C0
:1042F000350040F20341FFF77FF94FF0360040F2FE
:104300000771FFF779F94FF037004FF48061FFF73D
:1043100073F94FF03A004FF42061FFF76DF94FF059
:104320003B004FF48051FFF767F94FF00D004FF05D
:104330000A01FFF761F94FF00E004FF43851FFF713
:104340005BF94FF044004FF46F41FFF755F94FF020
:1043500045004FF00001FFF74FF94FF0460040F2E3
:104360003F11FFF749F94FF04E004FF00001FFF702
:1043700043F94FF04F004FF00001FFF73DF94FF0C8
:1043800022004FF00001FFF737F94FF496344FF059
:1043900000052846FFF758F9013CFAD140F25C00CD
:1043A000C2F20000FFF7D0F938BD00BFFEE700BF42
:1043B00070B5064640F26403C2F200034FF4805227
:1043C0001A604FF44055C4F201051C4606E023680C
:1043D00003F1FF3222600BB9FFF7E8FF28464FF0E8
:1043E0000201FDF791FF0028F1D04FF44050C4F2D4
:1043F00001003146FDF744FF40F26403C2F20003BE
:104400004FF480521A604FF44055C4F201051C4627
:1044100006E0236803F1FF3222600BB9FFF7C6FF05
:1044200028464FF00101FDF76FFF0028F1D04FF44F
:104430004050C4F20100FDF71FFFC0B270BD00BFC5
:1044400070B504461646012A8CBF41F0C00541F004
:1044500080054FF48050C4F202004FF00801FDF7D0
:1044600053F82846FFF7A4FF76B104F1010306F1E3
:10447000FF3513FA85F54FF000063046FFF798FF39
:1044800004F8010BAC42F8D14FF48050C4F20200A2
:104490004FF00801FDF736F870BD00BF10B584B0CD
:1044A00004460DF107004FF020014FF00102FFF725
:1044B000C7FF02A84FF029014FF00602FFF7C0FF27
:1044C0009DF8073013F0200301D05BB315E09DF990
:1044D000083003EBC3034FEA430323609DF90A301E
:1044E00003EBC3034FEA430363609DF90C3003EB16
:1044F000C3034FEA4303A36014E09DF9083003EBC4
:10450000C3034FEAC30323609DF90A3003EBC303DF
:104510004FEAC30363609DF90C3003EBC3034FEA1A
:10452000C303A36004B010BD70B504460D46164623
:10453000012A88BF41F040054FF48050C4F20200C8
:104540004FF00801FCF7E0FF2846FFF731FF5EB1AE
:1045500004F1010306F1FF3613FA86F614F8010B95
:10456000FFF726FFB442F9D14FF48050C4F20200A5
:104570004FF00801FCF7C6FF70BD00BF00B583B067
:104580000DF107004FF021014FF00102FFF758FF36
:104590009DF8073043F040038DF807300DF1070018
:1045A0004FF021014FF00102FFF7BEFF03B000BD45
:1045B00010B582B004460DF107004FF020014FF016
:1045C0000102FFF73DFF9DF8073023F020031C4355
:1045D0008DF807400DF107004FF020014FF0010268
:1045E000FFF7A2FF02B010BD10B582B004460DF176
:1045F00007004FF020014FF00102FFF721FF9DF867
:10460000073003F07F031C438DF807400DF10700CE
:104610004FF020014FF00102FFF786FF02B010BDFE
:1046200010B582B004460DF107004FF020014FF0A5
:104630000102FFF705FF9DF8073023F040031C43FC
:104640008DF807400DF107004FF020014FF00102F7
:10465000FFF76AFF02B010BD30B583B0054602AC6B
:104660004FF0000304F8013D20464FF038014FF0B1
:104670000102FFF7E5FE6A782B781343AA7813430B
:104680008DF8073020464FF038014FF00102FFF758
:104690004BFF03B030BD00BF30B583B0054602AC60
:1046A0004FF0000304F8013D20464FF021014FF088
:1046B0000102FFF7C5FE6A782B781343AA781343EB
:1046C0009DF8072022F02F0213438DF80730204673
:1046D0004FF021014FF00102FFF726FF03B030BD7C
:1046E0002DE9F04F89B080464FF000048DF81F404F
:1046F0004FF480504FF00101FCF7A0FC4FF0010097
:104700000146FCF753FC4FF010004FF00101FCF79D
:104710004DFC2546C4F2020528464FF005010A4625
:10472000FCF700FF28464FF006014FF00502FCF7AA
:10473000F9FE28464FF007014FF00502FCF7F2FEA4
:104740004FF002078DF818708DF81A408DF81B7025
:104750008DF819704FF0200B0DEB0B0646F80CBDD1
:1047600028463146FCF740FE4FF08003059328466B
:104770003146FCF739FE4FF0400305932846314699
:10478000FCF732FE4FF44055C4F201052846FDF710
:10479000DBFBA146ADF80040ADF80440ADF80640A3
:1047A000ADF808404FF40073ADF80A304FF028031D
:1047B000ADF80C30ADF80E404FF00703ADF81030F7
:1047C0004FF48273ADF8023028466946FDF7F6FBD8
:1047D00028464FF00101FDF7B1FC4FF0080ACDF873
:1047E00014A04FF001058DF818508DF81A408DF87F
:1047F00019704FF48054C4F2020420463146FCF78D
:10480000F3FD20465146FCF77DFE05958DF8189086
:104810008DF81A908DF819708DF81B90204631464E
:10482000FCF7E2FD059720463146FCF7DDFD98F8E0
:10483000002098F80130134398F80320134398F8A8
:104840000420134398F8022013430DEB0B0000F8EB
:10485000013D59462A46FFF767FE09B0BDE8F08FD3
:1048600081F0004102E000BF83F0004330B54FEA21
:1048700041044FEA430594EA050F08BF90EA020F8E
:104880001FBF54EA000C55EA020C7FEA645C7FEA21
:10489000655C00F0E2804FEA5454D4EB5555B8BF44
:1048A0006D420CDD2C4480EA020281EA030382EAB5
:1048B000000083EA010180EA020281EA0303362D47
:1048C00088BF30BD11F0004F4FEA01314FF4801C1A
:1048D0004CEA113102D0404261EB410113F0004F2C
:1048E0004FEA03334CEA133302D0524263EB4303E3
:1048F00094EA050F00F0A780A4F10104D5F1200E81
:104900000DDB02FA0EFC22FA05F2801841F10001DB
:1049100003FA0EF2801843FA05F359410EE0A5F1AF
:1049200020050EF1200E012A03FA0EFC28BF4CF0E0
:10493000020C43FA05F3C01851EBE37101F0004596
:1049400007D54FF0000EDCF1000C7EEB00006EEBA3
:104950000101B1F5801F1BD3B1F5001F0CD349082D
:104960005FEA30004FEA3C0C04F101044FEA445284
:1049700012F5800F80F09A80BCF1004F08BF5FEA0B
:10498000500C50F1000041EB045141EA050130BDEB
:104990005FEA4C0C404141EB010111F4801FA4F18E
:1049A0000104E9D191F0000F04BF01460020B1FAE3
:1049B00081F308BF2033A3F10B03B3F120020CDA1B
:1049C0000C3208DD02F1140CC2F10C0201FA0CF0F9
:1049D00021FA02F10CE002F11402D8BFC2F1200C5E
:1049E00001FA02F120FA0CFCDCBF41EA0C01904014
:1049F000E41AA2BF01EB0451294330BD6FEA04045D
:104A00001F3C1CDA0C340EDC04F11404C4F1200247
:104A100020FA04F001FA02F340EA030021FA04F359
:104A200045EA030130BDC4F10C04C4F1200220FAB0
:104A300002F001FA04F340EA0300294630BD21FAEE
:104A400004F0294630BD94F0000F83F4801306BFB4
:104A500081F480110134013D4EE77FEA645C18BFA8
:104A60007FEA655C29D094EA050F08BF90EA020F3F
:104A700005D054EA000C04BF1946104630BD91EA37
:104A8000030F1EBF0021002030BD5FEA545C05D13A
:104A90004000494128BF41F0004130BD14F5800479
:104AA0003CBF01F5801130BD01F0004545F0FE41ED
:104AB00041F470014FF0000030BD7FEA645C1ABF22
:104AC000194610467FEA655C1CBF0B46024650EA59
:104AD000013406BF52EA033591EA030F41F4002185
:104AE00030BD00BF90F0000F04BF0021704730B50B
:104AF0004FF4806404F132044FF000054FF00001E0
:104B000050E700BF90F0000F04BF0021704730B5A0
:104B10004FF4806404F1320410F0004548BF404275
:104B20004FF000013EE700BF42004FEAE2014FEACA
:104B300031014FEA02701FBF12F07F4393F07F4FA5
:104B400081F06051704792F0000F14BF93F07F4FD7
:104B5000704730B54FF4607401F0004521F000411A
:104B600020E700BF50EA010208BF704730B54FF0A0
:104B700000050AE050EA010208BF704730B511F0A5
:104B8000004502D5404261EB41014FF4806404F1DD
:104B900032045FEA915C3FF4DCAE4FF003025FEA5F
:104BA000DC0C18BF03325FEADC0C18BF033202EBE7
:104BB000DC02C2F1200300FA03FC20FA02F001FA41
:104BC00003FE40EA0E0021FA02F11444C1E600BFE0
:104BD0004FF0FF3C06E000BF4FF0010C02E000BFC9
:104BE0004FF0010C4DF804CD4FEA410C7FEA6C5CAC
:104BF0004FEA430C18BF7FEA6C5C1BD001B050EA4F
:104C0000410C0CBF52EA430C91EA030F02BF90EA39
:104C1000020F0020704710F1000F91EA030F58BFF8
:104C2000994208BF90422CBFD8176FEAE37040F05A
:104C3000010070474FEA410C7FEA6C5C02D150EAF8
:104C4000013C07D14FEA430C7FEA6C5CD6D152EAB3
:104C5000033CD3D05DF8040B704700BF8446104678
:104C600062468C461946634600E000BF01B5FFF777
:104C7000B7FF002848BF10F1000F01BD4DF808ED47
:104C8000FFF7F4FF0CBF012000205DF808FB00BF18
:104C90004DF808EDFFF7EAFF34BF012000205DF872
:104CA00008FB00BF4DF808EDFFF7E0FF94BF0120BF
:104CB00000205DF808FB00BF4DF808EDFFF7CEFFC0
:104CC00094BF012000205DF808FB00BF4DF808EDFF
:104CD000FFF7C4FF34BF012000205DF808FB00BFD0
:104CE0000F2AF0B43AD941EA00039B0738D10C46A9
:104CF0000346154626681E6066685E60A6689E606C
:104D0000E668103DDE60103410330F2DF2D8A2F1AA
:104D1000100424F00F0402F00F021034032A00EBF9
:104D20000403214411D90E461D46144656F8047B4F
:104D3000043C032C45F8047BF8D8141F24F003042A
:104D4000043402F0030209191B192AB111F8014BAE
:104D5000013A03F8014BF9D1F0BC70470346F4E780
:104D60000346F3E78842F0B412D98D18A8420FD257
:104D700062B15142134682186D185218EC18D118BE
:104D800014F8014C013B01F8014CF7D1F0BC70471D
:104D90000F2A3AD941EA00039B0738D10C46034653
:104DA000154626681E6066685E60A6689E60E668B6
:104DB000103DDE60103410330F2DF2D8A2F1100434
:104DC00024F00F0402F00F021034032A00EB040356
:104DD000214411D90E461D46144656F8047B043C66
:104DE000032C45F8047BF8D8141F24F00304043482
:104DF00002F0030209191B19002AC7D011F8014B50
:104E0000013A03F8014BF9D1C0E70346F4E7034642
:104E1000F4E700BF00104001F000011BD513D513CB
:104E2000D513D513D513D513D513D513D513D51342
:104E3000D513D513D513D513D513D513D513D51332
:104E4000D513D513D513D513D513D513D513D51322
:104E5000D513D513D513D513D513D513D513D51312
:104E6000D513D513D513D513D513D513D513D51302
:104E7000D513D513D513D513D513D513D513D513F2
:104E8000D513DFFFFFFFFFFF7EE7D513D513D51343
:104E9000D513D513D513D513D513D513D513D513D2
:104EA000D513D513D513D513D513D513D513D513C2
:104EB000D513D513D513D513D513D513D513D513B2
:104EC000D513D513D513D513D513D513D513D513A2
:104ED000D513D513D513D513D513D513D513D51392
:104EE000D513D513D513D513D513D513D513D51382
:104EF000D513D513D513D513D513D513D513D51372
:104F0000D513D513D513D513D513D513D513D51361
:104F1000D513D513D513D513D513D513D513D51351
:104F2000D513D513D513D513D513D513D513D51341
:104F3000D513D513D513D513D513D513D513D51331
:104F4000D513D513D513D513D513D513D513D51321
:104F5000D513D513D513D513D513D513D513D51311
:104F6000D513D513D513D513D513D513D513D51301
:104F7000D513D513D513D513D513D513D513D513F1
:104F8000D513D513D513D513D513D513D513D513E1
:104F9000D513D513D513D513D513D513D513D513D1
:104FA000D513D513D513D513D513D513D513D513C1
:104FB000D513D513D513D513D513D513D513D513B1
:104FC000D513D513D513D513D513D513D513D513A1
:104FD000D513D513FFFFFFFFFFFFFFFFFFFFFFFF0D
:104FE000FFFFFFFFFFFFFFFFFFFFFFFFFFFFFFFFD1
:104FF000FFFFFFFFFFFFFFFFFFFFFFFFFFFFFFFFC1
:10500000FFFFFFFFFFFFFFFFFFFFFFFFFFFFFFFFB0
:10501000FFFFFFFFFFFFFFFFFFFFFFFFFFFFFFFFA0
:10502000FFFFFFFFFFFFFFFFFFFFFFFFFFFFFFFF90
:10503000FFFFFFFFFFFFFFFFFFFFFFFFFFFFFFFF80
:105040005EDFD51BD513D513D513BA85FFFFFFFF40
:10505000DDBED513D513F61BFDC6FFFFFFFFFFFF17
:10506000D513D513D5135BA6FFFFFFFFFFFFD513A5
:10507000D513D513FB95FFFFFFFFFFFFFFFFFFFFDA
:10508000FFFFFFFFFFFFFFFFFFFFFFFFFFFFFFFF30
:10509000FFFFFFFFFFFFFFFFFFFFFFFFD513D5134C
:1050A000D513D513D513D513D513D513D513D513C0
:1050B000D513D513D513D513D513D513D513D513B0
:1050C000D513D513D513D513D513D513D513D513A0
:1050D000D513D513D513D513D513D513D513D51390
:1050E000D513D513D513D513D513D513D513D51380
:1050F000D513D513D513D513D513D513D513D51370
:10510000D513DA85FFFFFFFFBA85D513D513D51365
:10511000D513D513D513D513D513D513D513D5134F
:10512000D513D513D513D513D513D513D513D5133F
:10513000D513D513D513D513D513D513D513D5132F
:10514000D513D513D513D513D513D513D513D5131F
:10515000D513D513D513D513D513D513D513D5130F
:10516000D513D513D513D513D513D513D513D513FF
:10517000D513D513D513D513D513D513D513D513EF
:10518000D513D513D513D513D513D513D513D513DF
:10519000D513D513D513D513D513D513D513D513CF
:1051A000D513D513D513D513D513D513D513D513BF
:1051B000D513D513D513D513D513D513D513D513AF
:1051C000D513D513D513D513D513D513D513D5139F
:1051D000D513D513D513D513D513D513D513D5138F
:1051E000D513D513D513D513D513D513D513D5137F
:1051F000D513D513D513D513D513D513D513D5136F
:10520000D513D513D513D513D513D513D513D5135E
:10521000D513D513D513D513D513D513D513D5134E
:10522000D513D513D513D513D513D513D513D5133E
:10523000D513D513D513D513D513D513D513D5132E
:10524000D513D513D513D513D513D513D513D5131E
:10525000D513D513FFFFFFFFFFFFFFFFFFFFFFFF8A
:10526000FFFFFFFFFFFFFFFFFFFFFFFFFFFFFFFF4E
:10527000FFFFFFFFFFFFFFFFFFFFFFFFFFFFFFFF3E
:10528000FFFFFFFFFFFFFFFFFFFFFFFFFFFFFFFF2E
:10529000FFFFFFFFFFFFFFFFFFFFFFFFFFFFFFFF1E
:1052A000FFFFFFFFFFFFFFFFFFFFFFFFFFFFFFFF0E
:1052B000FFFFFFFFFFFFFFFFFFFFFFFFFFFF974421
:1052C000D513D513D513D513D513D513FFFFFFFF72
:1052D0009CB6D513D513D513D513B84CFFFFFFFFDC
:1052E000D513D513D513D5131624FFFFFFFFD51300
:1052F000D513D513D513D513FFFFFFFFFFFFFFFF16
:10530000FFFFFFFFFFFFFFFFFFFFFFFFFFFFFFFFAD
:10531000FFFFFFFFFFFFFFFFFFFFFFFFD513D513C9
:10532000D513D513D513D513D513D513D513D5133D
:10533000D513D513D513D513D513D513D513D5132D
:10534000D513D513D513D513D513D513D513D5131D
:10535000D513D513D513D513D513D513D513D5130D
:10536000D513D513D513D513D513D513D513D513FD
:10537000D513D513D513D513D513D513D513D513ED
:10538000D513BA7DFFFFFFFFBA85D513D513D5130B
:10539000D513D513D513D513D513D513D513D513CD
:1053A000D513D513D513D513D513D513D513D513BD
:1053B000D513D513D513D513D513D513D513D513AD
:1053C000D513D513D513D513D513D513D513D5139D
:1053D000D513D513D513D513D513D513D513D5138D
:1053E000D513D513D513D513D513D513D513D5137D
:1053F000D513D513D513D513D513D513D513D5136D
:10540000D513D513D513D513D513D513D513D5135C
:10541000D513D513D513D513D513D513D513D5134C
:10542000D513D513D513D513D513D513D513D5133C
:10543000D513D513D513D513D513D513D513D5132C
:10544000D513D513D513D513D513D513D513D5131C
:10545000D513D513D513D513D513D513D513D5130C
:10546000D513D513D513D513D513D513D513D513FC
:10547000D513D513D513D513D513D513D513D513EC
:10548000D513D513D513D513D513D513D513D513DC
:10549000D513D513D513D513D513D513D513D513CC
:1054A000D513D513D513D513D513D513D513D513BC
:1054B000D513D513D513D513D513D513D513D513AC
:1054C000D513D513D513D513D513D513D513D5139C
:1054D000D513D513FFFFFFFFFFFFFFFFFFFFFFFF08
:1054E000FFFFFFFFFFFFFFFFFFFFFFFFFFFFFFFFCC
:1054F000FFFFFFFFFFFFFFFFFFFFFFFFFFFFFFFFBC
:10550000FFFFFFFFFFFFFFFFFFFFFFFFFFFFFFFFAB
:10551000FFFFFFFFFFFFFFFFFFFFFFFFFFFFFFFF9B
:10552000FFFFFFFFFFFFFFFFFFFFFFFFFFFFFFFF8B
:10553000FFFFFFFFFFFFFFFFFFFFDFF7D513D513CF
:10554000D513D513D513D513D513D5133B9EFFFF14
:10555000FFFF1B96D513D513D513D513B84CFFFFFA
:10556000BCBED513D513D513D5131624FFFFFDC626
:10557000D61BD513D513D513D513FFFFFFFFFFFFA0
:10558000FFFFFFFFFFFFFFFFFFFFFFFFFFFFFFFF2B
:10559000FFFFFFFFFFFFFFFFFFFFFFFFD513D51347
:1055A000D513D513D513DFF7FFFFFFFFFFFFFFFF75
:1055B000FFFFFFFFFFFFFFFFFFFFFFFFFFFFFFFFFB
:1055C000FFFFFFFFFFFFFFFFFFFF5734D513D5138A
:1055D000D513D513D513D513D513D513D513D5138B
:1055E000D513D513D513D513D513D513D513D5137B
:1055F000D513D513D513D513D513D513D513D5136B
:10560000D513BA7DFFFFFFFFBA85D513D513D51388
:10561000D513D513D513D513D513D513D513D5134A
:10562000D513D513D513D513D513D513D513D5133A
:10563000D513D513D513D513D513D513D513D5132A
:10564000D513D513D513D513D513D513D513D5131A
:10565000D513D513D513D513D513D513D513D5130A
:10566000D513D513D513D513D513D513D513D513FA
:10567000D513D513D513D513D513D513D513D513EA
:10568000D513D513D513D513D513D513D513D513DA
:10569000D513D513D513D513D513D513D513D513CA
:1056A000D513D513D513D513D513D513D513D513BA
:1056B000D513D513D513D513D513D513D513D513AA
:1056C000D513D513D513D513D513D513D513D5139A
:1056D000D513D513D513D513D513D513D513D5138A
:1056E000D513D513D513D513D513D513D513D5137A
:1056F000D513D513D513D513D513D513D513D5136A
:10570000D513D513D513D513D513D513D513D51359
:10571000D513D513D513D513D513D513D513D51349
:10572000D513D513D513D513D513D513D513D51339
:10573000D513D513D513D513D513D513D513D51329
:10574000D513D513D513D513D513D513D513D51319
:10575000D513D513FFFFFFFFFFFFFFFFFFFFFFFF85
:10576000FFFFFFFFFFFFFFFFFFFFFFFFFFFFFFFF49
:10577000FFFFFFFFFFFFFFFFFFFFFFFFFFFFFFFF39
:10578000FFFFFFFFFFFFFFFFFFFFFFFFFFFFFFFF29
:10579000FFFFFFFFFFFFFFFFFFFFFFFFFFFFFFFF19
:1057A000FFFFFFFFFFFFFFFFFFFFFFFFFFFFFFFF09
:1057B000FFFFFFFFFFFFFFFFFDCED513D513D5136E
:1057C000D513D513D513D513D513D513596DFFFFA5
:1057D000FFFFFFFFFFFFF623D513D513D5139FEF70
:1057E000FFFFFFFF9744D513D513D5131B9EFFFF73
:1057F000FFFF973CD513D513D513BA7DFFFFFFFFED
:10580000FFFFFFFFFFFFFFFFFFFFFFFFFFFFFFFFA8
:10581000FFFFFFFFFFFFFFFFFFFFFFFFD513D513C4
:10582000D513D5137CAEFFFFFFFFFFFFFFFFFFFF88
:10583000FFFFFFFFFFFFFFFFFFFFFFFFFFFFFFFF78
:10584000FFFFFFFFFFFFFFFFFFFFFFFFD513D51394
:10585000D513D513D513D513D513D513D513D51308
:10586000D513D513D513D513D513D513D513D513F8
:10587000D513D513D513D513D513D513D513D513E8
:10588000D513BA7DFFFFFFFFBA85D513D513D51306
:10589000D513D513D513D513D513D513D513D513C8
:1058A000D513D513D513D513D513D513D513D513B8
:1058B000D513D513D513D513D513D513D513D513A8
:1058C000D513D513D513D513D513D513D513D51398
:1058D000D513D513D513D513D513D513D513D51388
:1058E000D513D513D513D513D513D513D513D51378
:1058F000D513D513D513D513D513D513D513D51368
:10590000D513D513D513D513D513D513D513D51357
:10591000D513D513D513D513D513D513D513D51347
:10592000D513D513D513D513D513D513D513D51337
:10593000D513D513D513D513D513D513D513D51327
:10594000D513D513D513D513D513D513D513D51317
:10595000D513D513D513D513D513D513D513D51307
:10596000D513D513D513D513D513D513D513D513F7
:10597000D513D513D513D513D513D513D513D513E7
:10598000D513D513D513D513D513D513D513D513D7
:10599000D513D513D513D513D513D513D513D513C7
:1059A000D513D513D513D513D513D513D513D513B7
:1059B000D513D513D513D513D513D513D513D513A7
:1059C000D513D513D513D513D513D513D513D51397
:1059D000D513D513FFFFFFFFFFFFFFFFFFFFFFFF03
:1059E000FFFFFFFFFFFFFFFFFFFFFFFFFFFFFFFFC7
:1059F000FFFFFFFFFFFFFFFFFFFFFFFFFFFFFFFFB7
:105A0000FFFFFFFFFFFFFFFFFFFFFFFFFFFFFFFFA6
:105A1000FFFFFFFFFFFFFFFFFFFFFFFFFFFFFFFF96
:105A2000FFFFFFFFFFFFFFFFFFFFFFFFFFFFFFFF86
:105A3000FFFFFFFFFFFF5BA6D513D513D513D513CB
:105A4000D513D513D513D513D513D513362CFFFF86
:105A5000FFFFFFFFFFFFFFFFD513D513D513F6237D
:105A6000FFFFFFFFFFFFD513D513D513D513FFFF9E
:105A7000FFFFFFFFD513D513D513D513FFFFFFFF8E
:105A8000FFFFFFFFFFFFFFFFFFFFFFFFFFFFFFFF26
:105A9000FFFFFFFFFFFFFFFFFFFFFFFFD513D51342
:105AA000D513D513FFFFFFFFFFFF5B9E5B9E5B9E41
:105AB0005B9E5B9E5B9E5B9E5B9E5B9E5B9E5B9E1E
:105AC0005B9E5B9E5B9E9FEFFFFFFFFFD513D51391
:105AD000D513D513D513D513D513D513D513D51386
