:020000040800F2
:100000009C820120511100081911000851110008AB
:100010001D1100081D1100081D110008000000003E
:100020000000000000000000000000001D1100089A
:100030001D1100081D1100081D11000821110008E4
:100040001D1100081D1100081D1100081D110008D8
:100050001D1100081D1100081D1100081D110008C8
:100060001D1100081D1100081D1100081D110008B8
:100070001D1100081D110008C90400081D11000809
:100080001D1100081D1100081D1100081D11000898
:100090001D1100081D1100081D1100081D11000888
:1000A0001D1100081D1100081D1100081D11000878
:1000B0001D1100081D1100081D1100081D11000868
:1000C0001D1100081D1100081D1100081D11000858
:1000D0001D1100081D1100081D1100081D11000848
:1000E0001D1100081D1100081D1100081D11000838
:1000F0001D1100081D1100081D1100083105000820
:100100001D1100081D1100081D1100081D11000817
:100110001D1100081D1100081D1100081D11000807
:100120001D1100081D1100081D11000835100008E0
:100130001D1100081D1100081D1100081D110008E7
:100140001D1100081D1100081D1100081D110008D7
:100150001D1100081D1100081D1100081D110008C7
:100160001D1100081D1100081D1100081D110008B7
:100170001D1100081D1100081D1100081D110008A7
:100180001D1100081D11000845F6CC63C2F20103E1
:100190001A885B8893420FD045F6CC63C2F2010304
:1001A00003EB42018988018002F1010202F03F0263
:1001B0001A804FF0010070474FF00000704700BFF9
:1001C00030B583B04FF008004FF0010101F01EFB85
:1001D0004FF001028DF804204FF000038DF8063037
:1001E0004FF0400500958DF807208DF805304FF44D
:1001F0004064C4F202042046694601F025FD204611
:10020000294601F0AFFD4FF4805500954FF00203F1
:100210008DF807302046694601F016FD2046294634
:1002200001F0A2FD03B030BD2DE9F84304460F46AE
:10023000904699464FF0010102F05EFB42F21175C3
:100240004FF00106C0F2030601E0013D4AD020460E
:10025000314602F091FC0028F7D0204639464FF095
:10026000000202F069FB42F211754FF08006C0F205
:10027000070601E0013D39D02046314602F07CFC02
:100280000028F7D05FFA88F1204602F0FFFB42F227
:1002900011754FF08406C0F2070601E0013D29D038
:1002A0002046314602F068FC0028F7D02046494637
:1002B00002F0ECFB42F211754FF08406C0F2070623
:1002C00001E0013D1AD02046314602F055FC0028DD
:1002D000F7D020464FF0010102F01EFB4FF0000066
:1002E000BDE8F8834FF0FF00BDE8F8834FF0FF0052
:1002F000BDE8F8834FF0FF00BDE8F8834FF0FF0042
:10030000BDE8F8832DE9F04104460F4690464FF0D2
:10031000010102F0F1FA42F211754FF00106C0F24C
:10032000030601E0013D7FD02046314602F024FC67
:100330000028F7D0204639464FF0000202F0FCFAC0
:1003400042F211754FF08206C0F2070601E0013D4E
:100350006ED02046314602F00FFC0028F7D05FFA3D
:1003600088F1204602F092FB42F211754FF08406AC
:10037000C0F2070601E0013D5ED02046314602F0A2
:10038000FBFB0028F7D0A38A9BB243F48063A382CF
:1003900020464FF0010102F0BFFA20464FF0010164
:1003A00002F0AAFA42F211754FF00106C0F20306FC
:1003B00001E0013D44D02046314602F0DDFB00283B
:1003C000F7D0204639464FF0010202F0B5FA42F26A
:1003D00011754FF00206C0F2030601E0013D33D073
:1003E0002046314602F0C8FB0028F7D020464FF0E7
:1003F000000102F0A9FA42F211754FF04006C0F276
:10040000030601E0013D23D02046314602F0B4FB53
:100410000028F7D020464FF0010102F07DFA204677
:1004200002F036FBBDE8F0814FF0FF00BDE8F0813F
:100430004FF0FF00BDE8F0814FF0FF00BDE8F08114
:100440004FF0FF00BDE8F0814FF0FF00BDE8F08104
:100450004FF0FF00BDE8F08170B5E62819D900F132
:100460001905EDB24FF4A844C4F2000420464FF041
:1004700094014FF020022B46FFF7D6FE0646204699
:100480004FF094014FF021022B46FFF7CDFE80196B
:1004900070BD00F11905EDB24FF4A844C4F2000498
:1004A00020464FF094014FF020022B46FFF7BCFE90
:1004B000064620464FF094014FF021022B46FFF7ED
:1004C000B3FE801970BD00BF10B546F25800C4F2EB
:1004D00002004FF0C05102F085F80028134B03F1E1
:1004E000800408BF1C4646F25800C4F202004FF0D8
:1004F000E05102F099F8234604F180001A884FEA8F
:10050000122141EA022223F8022B8342F6D145F65A
:100510006061C2F2010145F68063C2F20103204628
:100520004FF00A0203F040FF10BD00BF505F0120F2
:1005300010B546F2B800C4F202004FF0205102F0AC
:1005400051F8A0B346F2B804C4F2020420464FF0BA
:10055000000101F0F3FF20464FF0205102F064F853
:10056000134A4FF0000345F66060C2F201004FEA03
:10057000530130F8111022F8021F03F10103DBB21E
:10058000202BF4D145F6CC63C2F201035A8803EB69
:100590004200818002F1010202F03F025A8046F2DD
:1005A000B800C4F202004FF0010101F0C7FF10BD16
:1005B000DA050020F0B583B04FF006004FF00101DE
:1005C00001F024F94FF002068DF804604FF00007A7
:1005D0008DF806704FF4806300934FF001048DF89E
:1005E00007408DF805401D46C4F2020528466946BD
:1005F00001F02AFB28464FF00A014FF0050201F0F6
:10060000C1FB8DF804608DF806704FF0080300936D
:100610008DF807408DF805404FF40064C4F20204E1
:100620002046694601F010FB20464FF003014FF0D1
:10063000050201F0A7FB03B0F0BD00BF10B584B008
:100640004FF480404FF0010101F016F945F6806348
:10065000C2F201031B8802934FF00003ADF80C3087
:10066000ADF80430ADF806304FF44073ADF800300B
:100670004FF02003ADF802304FF46054C4F2000490
:100680002046694602F028FB20464FF0010102F0A7
:10069000D1FB04B010BD00BF10B54FF400104FF0F7
:1006A000010101F0B3F846F25804C4F202042046F6
:1006B00001F00CFE45F6CC61C2F201014FF00003DF
:1006C000C1F8843143F60C02C4F20002C1F888215B
:1006D00001F18402C1F88C21C1F890314FF0800201
:1006E000C1F89421C1F898314FF48063C1F89C316E
:1006F0004FF40063C1F8A0314FF40053C1F8A431A6
:100700004FF48073C1F8A8314FF48033C1F8AC3195
:1007100001F5C271204601F0D3FE20464FF00101E1
:1007200001F00CFF4FF46050C4F200004FF00101E3
:100730000A4602F035FC10BD00B583B046F2580001
:10074000C4F202004FF018014FF0010201F08AFFDD
:100750004FF00E038DF804304FF000038DF8053094
:100760008DF806304FF001038DF8073001A800F036
:100770006BFE03B000BD00BF08B5FFF71BFFFFF71E
:100780005DFFFFF789FFFFF7D7FF08BDF0B583B026
:100790004FF00F004FF0010101F038F84FF0020761
:1007A0008DF804704FF000068DF806604FF040039E
:1007B00000934FF001048DF807408DF805604FF469
:1007C0008065C4F202052846694601F03DFA2846D4
:1007D0004FF006014FF0040201F0D4FA8DF80470D6
:1007E0008DF806404FF4007300938DF807608DF884
:1007F00005602846694601F027FA28464FF00901AE
:100800004FF0040201F0BEFA8DF804708DF8066016
:100810004FF0800300938DF807408DF805404FF4AA
:100820000065C4F202052846694601F00DFA284623
:100830004FF007014FF0060201F0A4FA8DF80470A2
:100840008DF806604FF4806300938DF807408DF8B3
:1008500005402846694601F0F7F928464FF00A019D
:100860004FF0060201F08EFA8DF804708DF80660E4
:100870004FF4805300938DF807408DF805402846CB
:10088000694601F0E1F928464FF00C014FF00602ED
:1008900001F078FA8DF804708DF806604FF01007BB
:1008A00000978DF807408DF805403546C4F20205E3
:1008B0002846694601F0C8F928464FF004014FF078
:1008C000060201F05FFA8DF804408DF8066000978B
:1008D0008DF807408DF805604FF44060C4F20200C7
:1008E000694601F0B1F903B0F0BD00BF30B585B085
:1008F0004FF400104FF0010100F0BEFF4FF4806391
:10090000ADF80A304FF48044ADF80C4047F2305354
:1009100000934BF6FF73ADF806304FF00003ADF8CF
:1009200004304FF00105ADF808504FF4A84064F3CF
:100930001F40694601F040FF4FF4A84064F31F4098
:10094000294601F0C9FF05B030BD00BF10B584B025
:100950004FF400404FF0010100F08EFF45F6806338
:10096000C2F201031B884FEA530302934FF00003C6
:10097000ADF80C30ADF804304FF40072ADF806203D
:10098000ADF80020ADF802304FF47054C4F200040A
:100990002046694602F0A0F920464FF0010102F01E
:1009A00049FA04B010BD00BF10B54FF4A844C4F21A
:1009B000000420464FF094014FF002024FF0010373
:1009C000FFF732FC20464FF094014FF004024FF045
:1009D000AF03FFF729FC20464FF094014FF00502CA
:1009E0004FF08103FFF720FC20464FF094014FF0B9
:1009F00006024FF00403FFF717FC4FF0E500FFF786
:100A00002BFD20464FF094014FF002024FF09E0361
:100A1000FFF70AFC20464FF094014FF00A024FF016
:100A20000003FFF701FC20464FF094014FF00E0247
:100A30004FF00403FFF7F8FB20464FF094014FF00E
:100A400027024FF00003FFF7EFFB20464FF0940121
:100A50004FF01F024FF00F03FFF7E6FB20464FF069
:100A600094014FF01A024FF00A03FFF7DDFB204616
:100A70004FF094014FF01B024FF00A03FFF7D4FB35
:100A800010BD00BF10B590B04FF400104FF0010141
:100A900000F0BCFE46F2B804C4F20204204601F0A5
:100AA00015FC4FF00003019343F60C42C4F2000220
:100AB000029240F2DC52C2F2000203924FF0400276
:100AC00004924FF02002059206934FF48062079241
:100AD0004FF4006208924FF4005209920A930B936C
:100AE0000C930D930E930F93204601A901F0E8FC9F
:100AF00020464FF0010101F021FD4FF47050C4F287
:100B000000004FF002014FF0010202F049FA10B06C
:100B100010BD00BF00B583B046F2B800C4F20200B9
:100B20004FF010014FF0010201F09CFD4FF4E06026
:100B300000F080FC4FF02F038DF804304FF00103DC
:100B40008DF807308DF805304FF000038DF8063032
:100B500001A800F079FC03B000BD00BF10B5FFF79D
:100B600015FE4FF44064C4F2020420464FF0100119
:100B700001F0FAF84FF0640000F020FB20464FF03F
:100B8000100101F0EFF8FFF7E1FEFFF7AFFEFFF70E
:100B90000BFFFFF777FFFFF7BDFF10BD10B545F660
:100BA000CC63C2F201034FF00202C3F8C0214FF040
:100BB0004E004FF0000102F099FC4FF04F004FF053
:100BC000000102F093FC40F20003C2F200031B6834
:100BD00019884FF0220002F089FC46F25844C4F212
:100BE000020420464FF0000101F0A8FC20464FF01F
:100BF000C05101F019FD20464FF0000101F0C2FC88
:100C000020464FF0010101F099FC10BD2DE9F041A3
:100C100082B005460C4617461E460DF1060001A996
:100C200002F0DCFC04EB840405EB841596B14FF074
:100C3000000347F6FF7440F25C68C2F2000840F21D
:100C4000000CC2F2000C48F2B511C1F64E314FF45F
:100C500096302DE04FF0000347F6FF7440F25C68D9
:100C6000C2F2000840F2000CC2F2000C48F2B511CA
:100C7000C1F64E314FF49630A54206D8BDF8066055
:100C8000DCF8002022F8156005E0A5F50042BDF86B
:100C9000066028F8126005F10102A1FB02654FEA27
:100CA000553500FB152503F10103BB42E4D91AE0D9
:100CB000A54206D8BDF80660DCF8002022F81560D1
:100CC00005E0A5F50042BDF8066028F8126005F5BC
:100CD000A072A1FB02654FEA553500FB152503F113
:100CE0000103BB42E4D902B0BDE8F0812DE9F04F29
:100CF00083B0824617464FEA11210191B2F8028073
:100D0000D38803EB08091FFA89F908EB53031FFA8C
:100D100083FBB0F90050ABEB6515ADB230F9113083
:100D2000ABEB63139BB20E464FF0000445452CBF5E
:100D30002A46424692B2434538BF43464A4528BFF9
:100D40004A464B4534BF1D464D463888201880B270
:100D5000954234BF29461146AA1A002AB8BF52420A
:100D600092B24FF00103FFF751FF019AB618B6B2E5
:100D70003AF91630ABEB63139BB204F10104A4B251
:100D8000FF2CD3D103B0BDE8F08F00BF2DE9F00FE9
:100D9000B0F800B0438803EB83080BEB88180BF521
:100DA000A07BC2889B1803EB83030BEB831B47F6E6
:100DB000FF7640F25C6AC2F2000A40F20009C2F219
:100DC000000948F2B515C1F64E35828843464FF406
:100DD0009634B34231F813C099BFD9F8007027F8A0
:100DE00013C0A3F500472AF817C003F10107A5FBBC
:100DF00007C34FEA533304FB137302F1FF3292B27D
:100E0000002AE6D108F5A078D845DED1BDE8F00F7C
:100E1000704700BF30B591B04FF480004FF0010132
:100E200000F0F4FC46F25844C4F20204204601F0FB
:100E30004DFA4FF00003019340F25C32C2F200021F
:100E400002921A46C6F2100203924FF080020492F8
:100E50004FF4A07205924FF40072069207934FF47C
:100E6000006208924FF4005209920A930B934FF0DC
:100E700004020C924FF003020D920E930F93204642
:100E800001A901F01DFB4FF4E06000F0D3FA4FF030
:100E90003B038DF800304FF001058DF802508DF8BE
:100EA0000350684600F0D0FA20464FF010012A4661
:100EB00001F0D8FB11B030BD2DE9F04182B045F60C
:100EC000B864C2F20104204600F004FC626844F6F3
:100ED000D353C1F26203A3FB02134FEA931202F150
:100EE000FF324EF21003CEF200035A604FF46D420F
:100EF000CEF200024FF0F00182F823104FF000050F
:100F00009D604FF007021A6040F20003C2F2000336
:100F100045F62854C0F6000462881A81A2885A81D6
:100F2000FFF74EF903F0D8F84FF61F00294602F0FC
:100F30003DFB2B4647F6FF7240F25C67C2F20007AA
:100F400040F20006C2F20006954203D820893168BB
:100F5000C85204E0D919A1F580312089088005F133
:100F6000010503F1020304F10204B5F5963FEBD14C
:100F7000FFF750FF4FF480504FF0010100F046FCA6
:100F800045F68060C2F201004FF0000343608360C9
:100F90004FF47A5303804FF00103C381838103F040
:100FA0007FF9FFF7E9FBFFF7D9FD00F019F90446D7
:100FB00045F6CC65C2F2010505F5E4781B4F1AE051
:100FC000B5F8C46133B205EB4303BDF80620A3F8BE
:100FD000C82106F101039BB2A5F8C4311BB2B3F5D9
:100FE000807F08DD05F5E57140464FF4007204F09E
:100FF00043FEA5F8C4610DF10600FFF7C5F801280E
:10100000DED000F0EDF8001B3228F4D900F0E8F84B
:10101000044638460649FFF7B9FE40464FF4807152
:101020003A46FFF763FEFFF7B9FDE4E70C00002046
:10103000305D000838B546F25840C4F202004FF067
:10104000C05101F061FB45F6CC63C2F20103D3F855
:10105000C041B4F5163F5DD24FF6FD739C421DD8DA
:10106000C4F57E4505F5FF7540F281239D4294BF8E
:101070006D084FF4A07540F25C30C2F2000040F2FF
:101080000003C2F2000324F0010101F102011B6818
:1010900059184FEA450204F0EFFD1CE04FEA5402F4
:1010A000C2F59632B2F5A07F28BF4FF4A072154664
:1010B00040F25C30C2F200004FEA4202A4F57E41E9
:1010C000A1F5FF7121F0010140F25C63C2F200035F
:1010D000C91804F08FFD45F6CC63C2F2010304EB9E
:1010E0004504C3F8C04146F25844C4F20204204605
:1010F0004FF0000101F022FA20464FF0C05101F0FC
:1011000093FAA9B2204601F03DFA20464FF00101C2
:1011100001F014FA38BD00BFFEE700BFFEE700BFD4
:1011200045F6C863C2F201031B683BB145F6C863CC
:10113000C2F201031A6802F1FF321A6046F29823E4
:10114000C2F201031A6802F101021A60704700BF7F
:1011500008B5164B164A9A4211D24EF67072C0F676
:10116000020240F20003C2F2000340F25C30C2F21D
:10117000000052F8041B43F8041B8342F9D30D4BC3
:101180000D4A9A420DD240F25C33C2F200034FF096
:10119000000148F2A822C2F2010243F8041B934264
:1011A000FBD300F023F8FFF787FE08BD5C030020A7
:1011B00000000020A88201205C03002045F6C863DF
:1011C000C2F2010318601A461368002BFCD1704765
:1011D00046F29823C2F201034FF000021A607047F2
:1011E00046F29823C2F201031868704782B04FF4A8
:1011F0006D43CEF20003D3F8882042F47002C3F8A6
:1012000088204FF46053C4F202031A6842F00102CE
:101210001A604FF000029A60196821F0847121F47D
:101220008031196043F21001C2F20041596019681F
:1012300021F480211960DA60009201921A6842F468
:1012400080321A604FF46052C4F20202136803F451
:1012500000330193009B03F101030093019B1BB931
:10126000009BB3F5A06FF1D14FF46053C4F20203B9
:101270001B6813F4003F14BF012300230193019B5B
:10128000012B46D14FF46053C4F202031A6C42F0B2
:1012900080521A644FF4E042C4F20002116841F433
:1012A000804111609A689A609A6842F400429A609C
:1012B0009A6842F4A0529A6045F20842C0F2407225
:1012C0005A601A6842F080721A604FF46052C4F299
:1012D0000202136813F0007FFBD04FF47053C4F286
:1012E000020340F205621A604FF46053C4F2020335
:1012F0009A6822F003029A609A6842F002029A60A9
:101300004FF46052C4F20202936803F00C03082BFE
:10131000FAD14FF46053C4F202039A6822F4000237
:101320009A604FF44052C5F20002C3F884201A6854
:1013300042F080621A604FF46052C4F202021368F5
:1013400013F0006FFBD04FF46D43CEF200034FF06B
:1013500000629A6002B070474FF46053C4F2020317
:101360009B6803F00C03042B0DD0082B15D0002B29
:1013700044D140F21403C2F200034FF41052C0F201
:10138000F4021A6043E040F21403C2F200034FF487
:101390009052C0F27A021A6039E04FF46053C4F2FE
:1013A000020359685B6803F03F0311F4800F4FF4A8
:1013B0006052C4F202025068C0F3881019BF4FF4A3
:1013C0009051C0F27A014FF41051C0F2F401B1FB18
:1013D000F3F202FB00F24FF46053C4F202035968C7
:1013E00040F21403C2F20003C1F3014101F1010113
:1013F0004FEA4101B2FBF1F21A6008E040F2140337
:10140000C2F200034FF41052C0F2F4021A604FF41B
:101410006053C4F202039A68C2F3031240F2140349
:10142000C2F200039A181279196821FA02F21A60BE
:10143000704700BF40F0BE6040F420204FF46D4381
:10144000CEF20003D860704710B4C3786BB34FF48A
:101450006D43CEF20003DB686FEA0303C3F302239C
:101460004178C3F10402D2B201FA02F2D2B24FF0D3
:101470000F0141FA03F18478214011434FEA011131
:10148000C9B202784FF46143CEF200039A1882F891
:10149000001302784FEA521102F01F024FF00100D0
:1014A00000FA02F243F8212010E003784FEA5312C9
:1014B00003F01F034FF0010101FA03F14FF4614300
:1014C000CEF2000302F1200243F8221010BC704754
:1014D00021F0604121F07F0108434FF46D43CEF2CB
:1014E00000039860704700BF39B14FF46D43CEF2EE
:1014F00000031A691043186170474FF46D43CEF230
:1015000000031A6922EA00001861704704284EF2AD
:101510001003CEF200031A680CBF42F0040222F05E
:1015200004021A60704700BF4FF46053C4F2020314
:101530001A6842F001021A604FF000029A601968BE
:1015400021F0847121F48031196043F21001C2F25C
:1015500000415960196821F480211960DA607047F0
:1015600043F60203C4F202034FF000021A7018702F
:10157000704700BF4FF46053C4F202031A6822F0B0
:10158000F80242EAC0001860704700BF4FF0000345
:10159000C4F247231860704743F67003C4F2020395
:1015A0004FF000021A701A70012802D004280FD1DF
:1015B00007E043F67003C4F202034FF001021A7011
:1015C000704743F67003C4F202034FF005021A702D
:1015D000704700BF4FF46863C4F247231860704738
:1015E000014341EA8212009942EA01614FEA530243
:1015F00002F1FF3241EA02424FF46053C4F20203A7
:101600005A6070474FF06003C4F247231860704778
:101610004FEA801040EA01704FF46053C4F20203B5
:10162000C3F88400704700BF4FF06803C4F247233B
:10163000186070474FF04C03C4F24723186070479E
:101640004FF46053C4F202039A6822F0EC62104334
:1016500008439860704700BF4FF46053C4F2020320
:101660009A6822F07842104308439860704700BFA0
:101670004FF46053C4F202039A6822F0030210434D
:10168000986070474FF46053C4F20203986800F00A
:101690000C0070474FF46053C4F202039A6822F0C2
:1016A000F0021043986070474FF46053C4F2020395
:1016B0009A6822F4E0521043986070474FF46053E8
:1016C000C4F202039A6822F4604242EAC0009860C1
:1016D000704700BF10B44FF46053C4F202039B681C
:1016E00003F00C03042B09D0082B0DD0002B38D1AC
:1016F0004FF41053C0F2F403036037E04FF49053FB
:10170000C0F27A03036031E04FF46053C4F2020385
:101710005C685A6802F03F0214F4800F4FF4605383
:10172000C4F202035B68C3F3881319BF4FF49054EB
:10173000C0F27A044FF41054C0F2F404B4FBF2F196
:1017400001FB03F14FF46053C4F202035A68C2F381
:10175000014202F101024FEA4202B1FBF2F30360DF
:1017600004E04FF41053C0F2F40303604FF46052EE
:10177000C4F202029168C1F3031140F22803C2F2DD
:101780000003595C046824FA01F141609468C4F3D1
:1017900082241C5D21FA04F484609268C2F3423210
:1017A0009B5C21FA03F1C16010BC704700F44073E8
:1017B000B3F5407F0CD14FF46053C4F20203996833
:1017C00021F4F81120F0704222F440720A439A602A
:1017D0004FF46053C4F202031A6F4FEA00504FEA0D
:1017E000105010431867704740F63C63C4F247231B
:1017F000186070474FF46463C4F247231860704761
:101800004FF4AE73C4F247231860704739B14FF4F8
:101810006053C4F202031A6B1043186370474FF40D
:101820006053C4F202031A6B22EA00001863704787
:1018300039B14FF46053C4F202035A6B104358633A
:1018400070474FF46053C4F202035A6B22EA00005F
:101850005863704739B14FF46053C4F202039A6B76
:101860001043986370474FF46053C4F202039A6BBD
:1018700022EA00009863704739B14FF46053C4F214
:1018800002031A6C1043186470474FF46053C4F29B
:1018900002031A6C22EA00001864704739B14FF451
:1018A0006053C4F202035A6C1043586470474FF4FB
:1018B0006053C4F202035A6C22EA00005864704775
:1018C00039B14FF46053C4F202031A69104318612E
:1018D00070474FF46053C4F202031A6922EA000011
:1018E0001861704739B14FF46053C4F202035A696A
:1018F0001043586170474FF46053C4F202035A69B1
:1019000022EA00005861704739B14FF46053C4F2C5
:1019100002039A691043986170474FF46053C4F210
:1019200002039A6922EA00009861704739B14FF4C6
:101930006053C4F202031A6A1043186270474FF4EE
:101940006053C4F202031A6A22EA00001862704768
:1019500039B14FF46053C4F202035A6A104358621B
:1019600070474FF46053C4F202035A6A22EA00003F
:101970005862704739B14FF46053C4F202031A6DD4
:101980001043186570474FF46053C4F202031A6D98
:1019900022EA00001865704739B14FF46053C4F271
:1019A00002035A6D1043586570474FF46053C4F2F8
:1019B00002035A6D22EA00005865704739B14FF4AE
:1019C0006053C4F202039A6D1043986570474FF458
:1019D0006053C4F202039A6D22EA000098657047D2
:1019E00039B14FF46053C4F202031A6E1043186603
:1019F00070474FF46053C4F202031A6E22EA0000EB
:101A00001866704739B14FF46053C4F202035A6E3E
:101A10001043586670474FF46053C4F202035A6E85
:101A200022EA00005866704739B143F60D03C4F24C
:101A300002031A7810431870704743F60D03C4F27E
:101A400002031A7822EA0000187070474FEA501318
:101A5000012B05D14FF46053C4F202031B6807E069
:101A6000022B4FF46053C4F202030CBF1B6F5B6F79
:101A700000F01F0023FA00F000F00100704700BFE3
:101A800010B582B04FF0000301934FF031042046AF
:101A9000FFF7DCFF019B03F101030193019BB3F509
:101AA000A06F01D00028F2D04FF03100FFF7CEFF39
:101AB000003018BF012002B010BD00BF4FF46053CA
:101AC000C4F202035A6F42F080725A67704700BF37
:101AD0004FF46053C4F20203DB6818420CBF0020CD
:101AE0000120704743F60E03C4F2020318707047DA
:101AF00008B54FF00003C4F2020398420BD14FF037
:101B000001000146FFF7DCFE4FF001004FF000013D
:101B1000FFF7D6FE08BD4FF48063C4F2020398427B
:101B20000CD14FF002004FF00101FFF7C9FE4FF05A
:101B300002004FF00001FFF7C3FE08BD4FF4006341
:101B4000C4F2020398420CD14FF004004FF001019F
:101B5000FFF7B6FE4FF004004FF00001FFF7B0FEB4
:101B600008BD4FF44063C4F2020398420CD14FF019
:101B700008004FF00101FFF7A3FE4FF008004FF0FF
:101B80000001FFF79DFE08BD4FF48053C4F202032D
:101B900098420CD14FF010004FF00101FFF790FE7A
:101BA0004FF010004FF00001FFF78AFE08BD4FF420
:101BB000A053C4F2020398420CD14FF020004FF022
:101BC0000101FFF77DFE4FF020004FF00001FFF70D
:101BD00077FE08BD4FF4C053C4F2020398420CD103
:101BE0004FF040004FF00101FFF76AFE4FF0400058
:101BF0004FF00001FFF764FE08BD4FF4E053C4F25C
:101C0000020398420CD14FF080004FF00101FFF722
:101C100057FE4FF080004FF00001FFF751FE08BD66
:101C20004FF40053C4F2020398420BD14FF480707A
:101C30004FF00101FFF744FE4FF480704FF00001B8
:101C4000FFF73EFE08BD00BF2DE9F0074FF0000290
:101C500013464FF001074FF0030C1E4607FA03F43A
:101C60000D682540A54243D1D0F8009090460CFA6B
:101C700002F46FEA040404EA0909C0F80090D0F8FD
:101C800000A091F8049009FA02F949EA0A09C0F89B
:101C9000009091F8049009F1FF395FFA89F9B9F1E0
:101CA000010F1CD8D0F8089004EA0909C0F8089080
:101CB000D0F808A091F8059009FA02F949EA0A0952
:101CC000C0F80890D0F8049029EA050545604568F9
:101CD00091F8069009FA03F6B6B22E434660C5683D
:101CE0002C40C460C568CC7904FA08F42C43C46065
:101CF00003F1010302F10202102BAED1BDE8F0079F
:101D0000704700BF4FF6FF7303604FF0000303718D
:101D100043718371C371704782B04FF48033019374
:101D2000019B0B430193019BC361C161019BC36193
:101D3000C3690193C369019302B0704703691942F3
:101D40000CBF002001207047006980B2704700BFBF
:101D5000436919420CBF002001207047406980B2DE
:101D6000704700BF01837047418370470AB1018308
:101D700070474183704700BF4161704743695940D4
:101D80004161704730B401F007034FEA83034FEA23
:101D9000D10101F1080150F821504FF00F0404FA6D
:101DA00003F425EA040440F8214050F8214002FAE7
:101DB00003F3234340F8213030BC704728B943F285
:101DC000DB024FF020431A6005E043F2D2024FF0ED
:101DD000204343F8202000F101016FF070424FF0E2
:101DE000204343F821204FF48273CAF2000343F8E2
:101DF0002020704710B40268816843681943C368A3
:101E00001943036919434369194383691943C36932
:101E10001943036A1943436A1943836A1943C36A1E
:101E20001943036B19434FF0204343F82210836892
:101E3000082B08D102684FF0204353F8221041F0DC
:101E4000400143F82210026802F10102436B9C69D1
:101E5000196821435C6841EA04119C6841EA042145
:101E6000DC6841EA04411C6941EA04515B6941EACA
:101E700003614FF0204343F82210C36AB3F5804F4B
:101E800017D10268836B986919680143586841EA61
:101E90000011986841EA0021186941EA00515B6924
:101EA00041EA03614FF48273CAF2000343F822103F
:101EB00008E002684FF48273CAF200036FF07041C9
:101EC00043F8221010BC704710B44FF000030360B9
:101ED0004FF0020242608360C3600361436183612B
:101EE000C36103624FF4805242624FF40052826237
:101EF000C3620363416B4FF00F020A60416B4A609B
:101F0000446B4FF0FF01A160446BE260446B2261BF
:101F1000446B6261446BA361846B2260846B62607A
:101F2000846BA160816BCA60816B0A61816B4A61BD
:101F3000826B936110BC704741B14FF0204353F85E
:101F4000202042F0010243F8202070474FF0204249
:101F500052F820104FF6FE73C0F20F030B4042F808
:101F60002030704710280CBF60238023CAF2000382
:101F70004FF018021A604FF040025A604FF0FC32E6
:101F80009A60DA60704700BF30B4446883681C43CD
:101F900044F00804C3681C4303691C43436944EAD2
:101FA0004324836944EA4334C3695A689D684FEA0D
:101FB000054545EA02251A681543DB6845EA0365CD
:101FC000036A59689A684FEA024242EA0122196894
:101FD0000A43DB6842EA03620368102B0CBF6023EC
:101FE0008023CAF200031C609D60DA6030BC704739
:101FF0004FF0100303604FF0000343608360C36041
:10200000036143618361C2694FF0FC031360C269DD
:102010005360C2699360C269D360026A1360026A46
:102020005360026A9360026AD360704751B110280E
:102030000CBF60238023CAF200031A6842F0040236
:102040001A60704710280CBF60228022CAF200027A
:1020500011684FF6FB73C0F20F030B40136070471B
:1020600051B110280CBF60238023CAF200031A6804
:1020700042F040021A60704710280CBF6022802294
:10208000CAF2000211684FF6BF73C0F20F030B4093
:1020900013607047102805D14FF06003CAF20003A7
:1020A000586970474FF08003CAF2000358697047BF
:1020B0004FF0A003CAF200034FF018021A604FF06D
:1020C00000025A604FF0FC329A60DA601A61704781
:1020D00010B4026842F01002436842EA4322836867
:1020E00042EA43324FF0A003CAF200031A60C2680A
:1020F000546891684FEA014141EA04211468214380
:10210000D26841EA02629A600269546891684FEAB3
:10211000014141EA042114682143D26841EA026284
:10212000DA604269506891684FEA014141EA002152
:1021300010680143D26841EA02621A6110BC70471C
:102140004FF00003036043608360C2684FF0FC03FC
:102150001360C2685360C2689360C268D36002694A
:10216000136002695360026993600269D360426937
:10217000136042695360426993604269D36070475B
:1021800040B14FF0A003CAF200031A6842F0040203
:102190001A6070474FF0A002CAF2000211684FF6B1
:1021A000FB73C0F20F030B4013607047A2B11028FD
:1021B00007D14FF06003CAF200035A681143596017
:1021C0007047B0F5807F0CBF8023A023CAF20003C4
:1021D0005A68114359607047102808D14FF06003C6
:1021E000CAF200035A6822EA010159607047B0F54B
:1021F000807F0CBF8023A023CAF200035A6822EA22
:1022000001015960704700BF102805D14FF06003ED
:10221000CAF200035B6807E0B0F5807F0CBF802343
:10222000A023CAF200035B680B420CBF0020012010
:10223000704700BF102808D14FF06003CAF20003B6
:102240005A6822EA010159607047B0F5807F0CBFDF
:102250008023A023CAF200035A6822EA01015960D0
:10226000704700BF102805D14FF06003CAF2000389
:102270005B6807E0B0F5807F0CBF8023A023CAF223
:1022800000035B680B4205D013EAD1010CBF0020AC
:10229000012070474FF00000704700BF102808D1A0
:1022A0004FF06003CAF200035A6822EAD101596074
:1022B0007047B0F5807F0CBF8023A023CAF20003D3
:1022C0005A6822EAD1015960704700BF036823F0C1
:1022D000010303604FF00003036043608360C36049
:1022E00003614FF02103436146F21003C4F202037D
:1022F000984207D14FF4C043C4F202034FF03D02AD
:102300009A60704746F22803C4F20203984207D14C
:102310004FF4C043C4F202034FF474629A607047F2
:1023200046F24003C4F20203984207D14FF4C0437F
:10233000C4F202034FF474129A60704746F25803D5
:10234000C4F20203984207D14FF4C043C4F202031F
:102350004FF074629A60704746F27003C4F2020351
:10236000984209D14FF4C043C4F202034FF03D023A
:10237000C2F20002DA60704746F28803C4F2020338
:10238000984209D14FF4C043C4F202034FF474627F
:10239000C2F20002DA60704746F2A003C4F2020300
:1023A000984209D14FF4C043C4F202034FF0000237
:1023B000C2F23D02DA60704746F2B803C4F202038B
:1023C000984207D14FF4C043C4F202034FF03D528C
:1023D000DA60704746F21043C4F20203984207D114
:1023E0004FF4C843C4F202034FF03D029A607047B5
:1023F00046F22843C4F20203984207D14FF4C8437F
:10240000C4F202034FF474629A60704746F240438C
:10241000C4F20203984207D14FF4C843C4F2020346
:102420004FF474129A60704746F25843C4F20203A4
:10243000984207D14FF4C843C4F202034FF07462CC
:102440009A60704746F27043C4F20203984209D181
:102450004FF4C843C4F202034FF03D02C2F200023F
:10246000DA60704746F28843C4F20203984209D109
:102470004FF4C843C4F202034FF47462C2F2000284
:10248000DA60704746F2A043C4F20203984209D1D1
:102490004FF4C843C4F202034FF00002C2F23D02FF
:1024A000DA60704746F2B843C4F20203984206D19C
:1024B0004FF4C843C4F202034FF03D52DA60704754
:1024C00010B4026848F23F03CFF21C031340CC68FB
:1024D0000A6822434C6922438C692243CC69224317
:1024E0000C6A22434C6A22438C6A22434C6B22437F
:1024F0008C6B224313430360426922F007020C6B8A
:10250000CB6A2343134343610B6943604B68836089
:102510008B68C36010BC70474FF0000303604360DA
:102520008360C360036143618361C361036243628B
:102530008362C362036343638363704721B10368AB
:1025400043F0010303607047036823F00103036055
:10255000704700BF21B1036843F400430360704734
:10256000036823F400430360704700BF21B1036890
:1025700043F0200303607047036823F020030360E7
:10258000704700BF41607047406880B2704700BF2D
:1025900022B1036843F40023036003E0036823F4DB
:1025A000002303600161704721B1036843F4802375
:1025B00003607047036823F480230360704700BF03
:1025C0000AB101617047C160704700BF0068C0F385
:1025D000C0407047006800F001007047406900F09B
:1025E0003800704710B446F20F44C4F202044FF4AE
:1025F000C842C4F202024FF4C043C4F20203A04234
:102600008CBF1046184611F0005F14BF4268026884
:1026100040F67D73C0F67D730B4013420CBF002063
:10262000012010BC704700BF10B446F20F44C4F242
:1026300002044FF4C842C4F202024FF4C043C4F291
:102640000203A0428CBF1046184611F0005F40F60E
:102650007D73C0F67D7301EA030314BFC36083601A
:1026600010BC704711F0800F09D022B1436943F0CC
:102670008003436103E0436923F0800343618029C1
:102680000CD02AB1036801F01E01194301607047A4
:10269000036801F01E0123EA01010160704700BFD9
:1026A00010B446F20F44C4F202044FF4C842C4F21C
:1026B00002024FF4C043C4F20203A04298BF1A467C
:1026C00040F63C73C0F63C730B402BB1006800F041
:1026D0001E0000EAD12002E0406900F0800011F005
:1026E000005F14BF5268126840F67D73C0F67D73B8
:1026F0000B40134203D0003018BF012001E04FF01F
:10270000000010BC704700BF10B446F20F44C4F282
:1027100002044FF4C842C4F202024FF4C043C4F2B0
:102720000203A0428CBF1046184611F0005F40F62D
:102730007D73C0F67D7301EA030314BFC360836039
:1027400010BC704708B54FF4A843C4F20003984288
:102750000CD14FF400104FF00101FFF7E7F84FF4F0
:1027600000104FF00001FFF7E1F808BD4FF4B0434F
:10277000C4F2000398420CD14FF480004FF00101E5
:10278000FFF7D4F84FF480004FF00001FFF7CEF8C8
:1027900008BD4FF4B843C4F2000398420BD14FF484
:1027A00000004FF00101FFF7C1F84FF400004FF0B7
:1027B0000001FFF7BBF808BD70B584B004460D46B4
:1027C000868826F03F064FEA06464FEA16466846D8
:1027D000FEF780FF02994DF68362C4F21B32A2FB22
:1027E00001024FEA92421643A680238823F0010398
:1027F0004FEA03434FEA134323802B6848F2A0605B
:10280000C0F2010083420BD84FEA4303B1FBF3F15E
:1028100089B202F101022284032998BF04212EE02B
:10282000EE884BF6FF70864205D103EB4303B1FB04
:10283000F3F189B208E003EB830303EB8303B1FBFD
:10284000F3F189B241F480414FEA01534FEA135347
:102850000BB941F001016FEA41416FEA514189B280
:102860004FF4967303FB02F244F6D353C1F26203B2
:1028700083FB02034FEAA31303F101032384A18323
:1028800023889BB243F001032380238823F48063D1
:1028900023F00A034FEA03434FEA13436989AA88E6
:1028A0000A4313439BB223802A89AB8913439BB20B
:1028B000238104B070BD00BF41F2883303604FF044
:1028C000000383804BF6FF72C280038143814FF483
:1028D00080438381704700BF29B103889BB243F0D6
:1028E000010303807047038823F001034FEA034389
:1028F0004FEA13430380704729B103889BB243F426
:10290000807303807047038823F480734FEA034386
:102910004FEA13430380704729B103889BB243F405
:10292000007303807047038823F400734FEA034366
:102930004FEA13430380704712B141F0010101E0F7
:1029400001F0FE010182704729B103889BB243F474
:10295000806303807047038823F480634FEA034356
:102960004FEA134303807047838901F0FE0123F08F
:10297000FE034FEA03434FEA13430B43838170473F
:1029800029B183899BB243F0010383817047838916
:1029900023F001034FEA03434FEA13438381704757
:1029A00029B103889BB243F040030380704703883A
:1029B00023F040034FEA03434FEA13430380704779
:1029C00039B103886FEA43436FEA53439BB20380F4
:1029D000704703884FEA43434FEA534303807047ED
:1029E00029B903889BB243F08003038070470388B2
:1029F00023F080034FEA03434FEA134303807047F9
:102A0000B1F5804F08D0838B23F480434FEA034312
:102A10004FEA134383837047838B9BB243F4804315
:102A200083837047B1F5006F05D103889BB243F4EF
:102A3000006303807047038823F400634FEA034375
:102A40004FEA134303807047B1F5005F05D1038857
:102A50009BB243F4005303807047038823F4005370
:102A60004FEA03434FEA13430380704729B10388B9
:102A70009BB243F0100303807047038823F01003D8
:102A80004FEA03434FEA13430380704701827047C4
:102A9000008AC0B2704700BF29B103889BB243F4DB
:102AA000805303807047038823F480534FEA034325
:102AB0004FEA134303807047B1F5006F05D10388D7
:102AC0009BB243F4006303807047038823F40063E0
:102AD0004FEA03434FEA13430380704729B1038849
:102AE0009BB243F0200303807047038823F0200348
:102AF0004FEA03434FEA134303807047008BC0F350
:102B00000720704729B183889BB243F40063838018
:102B10007047838823F400634FEA03434FEA13436B
:102B20008380704729B183889BB243F480538380AC
:102B30007047838823F480534FEA03434FEA1343DB
:102B40008380704782B04FF0000301930190019B96
:102B5000C9180191019B188880B202B0704700BF6C
:102B600022B183889BB219438180704783889BB2CE
:102B700023EA010181807047838A9BB2008B43EA7C
:102B80000040084020F07F40814214BF0020012017
:102B9000704700BF838A9BB2008B43EA004020F05D
:102BA0007F40704782B04FF0000301930093009084
:102BB0004FEA1173019321F07F41019B23B1009BE8
:102BC00003F11403009305E04FEA1141009B03F168
:102BD00018030093009B1B6819420CBF00200120C2
:102BE00002B070476FEA010189B28182704700BF6D
:102BF00083889AB2838A9BB20B4207D001F0E061CE
:102C000012EA11410CBF0020012070474FF0000074
:102C1000704700BF6FEA010189B28182704700BF2F
:102C200008B54FF44053C4F2010398420CD14FF45D
:102C300080504FF00101FEF78BFE4FF480504FF0B3
:102C40000001FEF785FE08BD4FF46053C4F2000397
:102C500098420CD14FF480404FF00101FEF766FE20
:102C60004FF480404FF00001FEF760FE08BD4FF4C6
:102C70007053C4F2000398420BD14FF400404FF060
:102C80000101FEF753FE4FF400404FF00001FEF744
:102C90004DFE08BD10B4028802F441524C880B88E6
:102CA00023438C882343CC8823430C8923434C89BA
:102CB00023438C892343CC89234313439BB2038052
:102CC000838B23F400634FEA03434FEA1343838368
:102CD0000B8A038210BC7047F0B4838B23F47A63B1
:102CE00023F01F034FEA03434FEA134383834FF05C
:102CF00002030384848BA4B28B68022B54D08E8889
:102D0000002E14BF022601264FF46053C4F20203C2
:102D10009B6813F4000F07D04FF46053C4F2020312
:102D20009A6822F400029A604FF46053C4F20203DE
:102D3000D3F88450D3F884205F68C5F3881507F072
:102D40003F074FF49053C0F27A03B3FBF7F303FB52
:102D500005F3C2F30272B3FBF2F3CA88B2F5007F47
:102D60000EBF1B0A7601B3FBF6F303EB83034FEAB6
:102D700043038A68B3FBF2F303F105039BB24CF6FD
:102D8000CD42CCF6CC42A2FB03534FEAD30303F06F
:102D900001024FEA5303A3F10205ADB2FD2D08D89D
:102DA0004FEA022292B208E04FF000024FF0020315
:102DB00003E04FF000024FF002031343CA881343AD
:102DC00003840A8844EA020343F400634A881343F5
:102DD0008A8813438A8913439BB28383F0BC70476C
:102DE0004FF00003038043808380C38003814381CD
:102DF0008381C3814FF00703038270474FF00003C4
:102E0000038043808380C3804FF00202826083810D
:102E1000704700BF29B103889BB243F04003038091
:102E20007047038823F040034FEA03434FEA1343FC
:102E30000380704729B1838B9BB243F48063838303
:102E40007047838B23F480634FEA03434FEA1343B5
:102E500083837047038823F400634FEA03434FEAF8
:102E60001343038003889BB219430180704700BF5E
:102E7000B1F5804F05D103889BB243F480430380B2
:102E80007047038823F480434FEA03434FEA134318
:102E9000038070474FF6FF63994205D003889BB2C9
:102EA00043F4807303807047038823F480734FEAF0
:102EB00003434FEA13430380704700BF29B183885F
:102EC0009BB243F0040383807047838823F004039C
:102ED0004FEA03434FEA13438380704729B1838845
:102EE0009BB243F0100383807047838823F0100364
:102EF0004FEA03434FEA13438380704710B4838B38
:102F000023F47A6323F01F034FEA03434FEA13438A
:102F100083834FF002030384828B92B20B88B3F554
:102F2000007F05D0002B0CBF4FF48073002301E01D
:102F30004FF480734C88224342F400628C88224311
:102F400089890A4392B21343838310BC704700BF40
:102F5000808980B2704700BF8181704729B10388A2
:102F60009BB243F4005303807047038823F400535B
:102F70004FEA03434FEA13430380704703889BB231
:102F800043F4805303807047012902D0008B80B244
:102F90007047808A80B27047008A80B2704700BF55
:102FA00022B183889BB219438180704783889BB28A
:102FB00023EA0101818070474FEA11114FF00103AC
:102FC00003FA01F189B222B183889BB2194381804F
:102FD000704783889BB223EA01018180704700BF5C
:102FE000038919420CBF0020012070476FEA0101DC
:102FF00089B20181704700BF10B483889CB20289F6
:1030000092B201F00F034FF0010000FA03F31A42ED
:1030100008D04FEA111100FA01F10C420CBF002058
:10302000012001E04FF0000010BC704701F00F01DB
:103030004FF0010303FA01F36FEA03039BB203812C
:10304000704700BFF0B583B04FF004004FF00101AE
:10305000FEF772FF4FF00400FEF7B0FE4CF2037370
:1030600000934FF000048DF804408DF807404FF4B2
:103070004066C4F2020630466946FEF7E5FD30467A
:1030800021462246FEF77EFE30464FF001012246E1
:10309000FEF778FE30464FF008012246FEF772FE3A
:1030A00030464FF009012246FEF76CFE30464FF0E5
:1030B0000A012246FEF766FE30464FF00E01224618
:1030C000FEF760FE30464FF00F012246FEF75AFE33
:1030D0004FF6807300934FF48057C4F202073846CE
:1030E0006946FEF7B1FD38464FF007012246FEF76C
:1030F00049FE38464FF008012246FEF743FE3846A7
:103100004FF009012246FEF73DFE38464FF00A0116
:103110002246FEF737FE38464FF00B012246FEF7F7
:1031200031FE38464FF00C012246FEF72BFE3846A2
:103130004FF00D012246FEF725FE38464FF00E01F6
:103140002246FEF71FFE38464FF00F012246FEF7DB
:1031500019FE4FF23F0300934FF4A055C4F202054D
:1031600028466946FEF770FD284621462246FEF7AE
:1031700009FE28464FF001012246FEF703FE2846CD
:103180004FF002012246FEF7FDFD28464FF00301F5
:103190002246FEF7F7FD28464FF004012246FEF7CF
:1031A000F1FD28464FF005012246FEF7EBFD2846CB
:1031B0004FF00C012246FEF7E5FD28464FF00D01C9
:1031C0002246FEF7DFFD28464FF00E012246FEF7AD
:1031D000D9FD28464FF00F012246FEF7D3FD4FF0F0
:1031E0003F0300934FF4C055C4F2020528466946D8
:1031F000FEF72AFD284621462246FEF7C3FD284653
:103200004FF001012246FEF7BDFD28464FF00201B6
:103210002246FEF7B7FD28464FF003012246FEF78F
:10322000B1FD28464FF004012246FEF7ABFD2846CB
:103230004FF005012246FEF7A5FD4FF460530093C1
:1032400030466946FEF700FD30464FF00B0122463E
:10325000FEF798FD30464FF00C012246FEF792FD36
:1032600030464FF00D012246FEF78CFD4FF0300343
:10327000009330466946FEF7E7FC30464FF0040104
:103280002246FEF77FFD30464FF005012246FEF74D
:1032900079FD4FF48063009328466946FEF7D4FC1D
:1032A00028464FF00C012246FEF76CFD4FF0030359
:1032B000009338466946FEF7C7FC38462146224649
:1032C000FEF760FD38464FF001012246FEF75AFD39
:1032D00003B0F0BDF0B583B04FF01A004FF001011C
:1032E000FEF794FA4CF2B37300934FF002038DF89B
:1032F00004308DF805304FF000068DF806604FF071
:1033000001078DF807704FF44064C4F202042046B0
:103310006946FEF799FC204631464FF00C02FEF755
:1033200031FD204639464FF00C02FEF72BFD2046BA
:103330004FF004014FF00C02FEF724FD20464FF041
:1033400005014FF00C02FEF71DFD20464FF007016E
:103350004FF00C02FEF716FD20464FF008014FF02B
:103360000C02FEF70FFD20464FF009014FF00C0252
:10337000FEF708FD20464FF00A014FF00C02FEF761
:1033800001FD20464FF00E014FF00C02FEF7FAFC53
:1033900020464FF00F014FF00C02FEF7F3FC4FF602
:1033A000887300934FF48055C4F20205284669469D
:1033B000FEF74AFC28464FF003014FF00C02FEF7DF
:1033C000E1FC28464FF007014FF00C02FEF7DAFC53
:1033D00028464FF008014FF00C02FEF7D3FC2846B8
:1033E0004FF009014FF00C02FEF7CCFC28464FF0DD
:1033F0000A014FF00C02FEF7C5FC28464FF00B0106
:103400004FF00C02FEF7BEFC28464FF00C010A46B6
:10341000FEF7B8FC28464FF00D014FF00C02FEF706
:10342000B1FC28464FF00E014FF00C02FEF7AAFC4B
:1034300028464FF00F014FF00C02FEF7A3FC4FF0AF
:10344000080300938DF804708DF805608DF8066010
:103450008DF8076020466946FEF7F6FB4FF40055ED
:1034600000958DF804708DF805708DF806608DF864
:10347000076020466946FEF7E7FB20462946FEF72F
:1034800071FC03B0F0BD00BF10B596B04FF0010065
:103490000146FEF7DFF94FF0050300934FF00004FB
:1034A0000194029303940494059406940794089459
:1034B00009944FF010030A930B940C940D940E94FE
:1034C0000F944FF4805310931194129413940DEBB6
:1034D00004031493159307A8FEF78CFC20464FF0C5
:1034E0000101FEF729FD16B010BD00BF4FF0C0432B
:1034F00018804FF00003C6F210031980704700BF18
:1035000010B503460C464FF04E001946FFF7EEFF8C
:103510004FF04F002146FFF7E9FF10BD4FF0C043C9
:1035200018804FF00003C6F21003188880B270476D
:103530004FF022024FF0C0431A8070474FF0000353
:10354000C6F21003188070474FF00003C6F2100354
:10355000188880B2704700BF08B54FF000000146E0
:10356000FFF7CEFFFFF7E4FF4FF4C8434FF0000230
:10357000C6F210024FF600011180013BFCD14FF45E
:10358000C8434FF00002C6F210024FF4FC611180F4
:10359000013BFCD14FF4C8434FF00002C6F21002C9
:1035A0004FF01F011180013BFCD108BD82B0ADF886
:1035B0000600ADF80410BDF8062092B248F29C2334
:1035C000C2F201031A80BDF8042092B240F238031F
:1035D000C2F200031A8002B0704700BF48F29C2379
:1035E000C2F201031B889BB2038040F23803C2F28F
:1035F00000031B889BB20B80704700BF82B0ADF800
:103600000600BDF8062092B248F29C23C2F20103E4
:103610001A8002B0704700BF82B0ADF80600BDF856
:10362000062092B240F23803C2F200031A8002B0C0
:10363000704700BF704700BF704700BF48F29C232F
:10364000C2F201035860704748F29C23C2F20103A2
:103650005868704710B504464FF000000146FFF768
:103660004FFFFFF765FF4FF496334FF00002C6F2AD
:1036700010021480013BFCD110BD00BF2DE9F84FB2
:103680008B46904648F29C23C2F201035D68EB88AA
:10369000002B53D082464FF000064AF6AB27CAF6FD
:1036A000AA2740F23809C2F2000958465146FFF7EE
:1036B00027FFFFF73DFFAB8873B34FF0000438F8E6
:1036C00016102046A7FB032E4FF6F8720EEA0202F0
:1036D0004FF0800E0EFA02F242FA04F20A4201D1D1
:1036E0000C2B06D941FA00F111F0010F07D10C2B78
:1036F00005D9B9F8000080B2FFF720FF07E048F2D3
:103700009C23C2F20103188880B2FFF717FF04F16F
:103710000104AB88A342D2D80AF1010A1FFA8AFA3F
:1037200058465146FFF7ECFE06F1010648F29C238D
:10373000C2F201035D68EB88B342B6D8BDE8F88FEA
:1037400010B5A2F12004E4B25A2C0ED9BF2A03D935
:10375000A2F16102D4B208E0A82A04D0B82A14BFAA
:103760001446A02401E04FF09F0448F29C23C2F2CB
:1037700001035B68DA8802FB04F21B6803EB420278
:10378000FFF77CFF10BD00BF2DE9F04106464FF06A
:1037900000044FF0200748F29C25C2F2010540F2D8
:1037A0003F18304621463A46FFF7CAFF6B689B88B0
:1037B000E418A4B24445F4D9BDE8F0812DE9F04104
:1037C00007460A78B2B10E464FF0000448F29C2535
:1037D000C2F2010540F23F1838462146FFF7B0FF1C
:1037E0006B689B88E418A4B2444503D816F8012FEF
:1037F000002AF1D1BDE8F081F8B504460E46154621
:103800001F464FF045002146FFF770FE6319B3F5E0
:10381000A07F06DB4FF0460040F23F11FFF766FE47
:1038200005E02D19A9B24FF04600FFF75FFEF7192A
:10383000EF2FD4BF39024FF46F41214389B24FF0CB
:103840004400FFF753FE20463146FFF759FEF8BD0E
:10385000704700BF2DE9F04106460C4690461D46D4
:10386000FFF74EFE2DB14746B8F1000F17D1BDE866
:10387000F081FFF75DFE4546B8F1000F27D04FF00D
:10388000000448F29C26C2F20106308880B2FFF79D
:1038900055FE04F10104AC42F7D3BDE8F0814FF0CE
:1038A000000548F29C28C2F20108FFF741FEB8F873
:1038B000000080B2FFF742FE04F10104A4B23046DA
:1038C0002146FFF71DFE05F10105BD42EDD3BDE820
:1038D000F08100BF08B580B2B0F5A07F0AD2002900
:1038E00008DBEF2906DC89B24FF001024FF000033C
:1038F000FFF7B0FF08BD00BFF8B504460D461746F8
:103900001E461A464FF00103FFF7A4FF04F1FF30F3
:10391000381880B2294632464FF00103FFF79AFF6C
:10392000204629463A464FF00003FFF793FF7519EA
:10393000A9B220463A464FF00003FFF78BFFF8BDCF
:103940002DE9F04F85B081468A464FEA4203C3F124
:103950000303029390464FF0000548F29C24C2F204
:103960000104AEB206EB090B1FFA8BFB1FFA88F7B6
:1039700007EB0A039BB2019358461946FFF7C0FDB7
:10398000FFF7D6FD208880B2FFF7D8FDC7EB0A030A
:103990009BB2039358461946FFF7B2FDFFF7C8FDE7
:1039A000208880B2FFF7CAFDC6EB090B1FFA8BFB1C
:1039B00058460199FFF7A4FDFFF7BAFD208880B2B1
:1039C000FFF7BCFD58460399FFF79AFDFFF7B0FDDE
:1039D000208880B2FFF7B2FD07EB090B1FFA8BFBC3
:1039E0000AEB06039BB2019358461946FFF788FD80
:1039F000FFF79EFD208880B2FFF7A0FDC6EB0A0608
:103A0000B6B258463146FFF77BFDFFF791FD20889F
:103A100080B2FFF793FDC7EB0907BFB238460199A3
:103A2000FFF76EFDFFF784FD208880B2FFF786FD6B
:103A300038463146FFF764FDFFF77AFD208880B2F3
:103A4000FFF77CFD029A002A05DA02EB850303F1F9
:103A50000603029309E0029A02F10A03C8EB050289
:103A600003EB8202029208F1FF3805F10105A84537
:103A7000BFF477AF05B0BDE8F08F00BF2DE9F0418E
:103A800006464FF0000040F23F11FFF739FDFFF707
:103A90004FFD4FF0000548F29C28C2F2010817E0E4
:103AA00007FA04F273591A4203BF40F23803C2F214
:103AB00000031888B8F8000080B2FFF73FFD04F15A
:103AC0000104202CECD105F10405B5F5165F04D0F6
:103AD0004FF000044FF00107E2E7BDE8F08100BFBE
:103AE000704700BF2DE9F84306460C461746984636
:103AF00048F29C23C2F20103188880B2FFF77EFDD2
:103B0000304621463A464FF00003FFF7A3FE08EB8C
:103B1000040189B230463A464FF00003FFF79AFE9F
:103B20003046214642464FF00103FFF793FE06F16F
:103B3000FF30381880B2214642464FF00103FFF7AC
:103B400089FE40F23803C2F20003188880B2FFF702
:103B500055FDB8F1010F19D004F10104A1B2A8F18B
:103B600002081FFA88F808F101084FF00004A14686
:103B700000E0294601F10105ADB230463A464B4618
:103B8000FFF768FE04F101044445F2D148F29C239A
:103B9000C2F20103188880B2FFF730FDBDE8F88358
:103BA0002DE9F04F85B08146029103924FEA42061B
:103BB000C6F10306154640F23803C2F20003188826
:103BC00080B2FFF71BFD4F464FF00004A046B5B191
:103BD000029A02EB050A1FFA8AFA4FEA450B1FFA0E
:103BE0008BFB384651465A464346FFF733FE09EBF6
:103BF000040080B251465A464346FFF72BFEDCB123
:103C00001FFA85FAA3B2029A03EB020B1FFA8BFB91
:103C10004FEA43039BB20193CAEB090080B25946B5
:103C20001A464346FFF716FECA441FFA8AF0594661
:103C3000019A4346FFF70EFE002E04DA06EB8406D7
:103C400006F1060606E006F10A06631B06EB83068C
:103C500005F1FF3504F1010407F1FF37BFB2A542BA
:103C6000B5D248F29C23C2F20103188880B2FFF754
:103C7000C5FC48460299039AFFF762FE05B0BDE80D
:103C8000F08F00BF2DE9F04F85B0151A002DB8BF99
:103C90006D42ADB25C1A002CB8BF6442A4B24FF6BC
:103CA000FF76824228BF012602964FF6FF728B42B2
:103CB00028BF012203922AB223B29A420CDB02EB04
:103CC000D276C6F34F06A1460195DDF808B04FF055
:103CD0000002029292460CE026B206EBD676C6F3BC
:103CE0004F06A9460194DDF80CA04FF000030393A2
:103CF0009B46019A12F4004F22D185B28CB24FF04C
:103D000000070FFA82F828B221B2FFF7E3FD4E4414
:103D1000B3B29EB232B2904508DC019A9E1AB6B296
:103D2000029BED18ADB2039AA418A4B25D44ADB2E3
:103D30005444A4B207F10107BFB23BB29845E2DA9E
:103D400005B0BDE8F08F00BF2DE9F04F83B00090C3
:103D50000192012936D90788B0F8029028D082460E
:103D600000F10403A1F1020B1FFA8BFB03EB8B0B99
:103D70001E460546CAEB0504BFB204EB06081FFA4F
:103D800089F9A25BBA1892B2B8F802304B449BB2E0
:103D900038464946FFF776FFA35BFF18BFB2B8F875
:103DA000023099441FFA89F905F104055D45E1D116
:103DB000019A3AB1009B18885988BAB21FFA89F360
:103DC000FFF760FF03B0BDE8F08F00BFF8B5012931
:103DD00016D915D0064600F10403A1F10207BFB2BF
:103DE00003EB870704461D46A31B208861885A5BA6
:103DF0005B195B88FFF746FF04F10404BC42F3D172
:103E0000F8BD00BF38B504460D46FFF7DFFF05F1EA
:103E1000FF3504EB85032088618834F825205B8812
:103E2000FFF730FF38BD00BF08B54FF00002FFF7C5
:103E30008BFF08BD08B54FF00102FFF785FF08BDF5
:103E40002DE9F04FEFB007460691B0F800B0438877
:103E5000012940F221811FFA8BFB9BB20893024695
:103E60009946CDF824B04FF0010358464C460D4614
:103E7000D188814238BF0846594528BF8B4632F861
:103E8000041F494538BF8946A14228BF0C4603F1AB
:103E900001039BB2AB42EBD10990089440F2380386
:103EA000C2F20003188880B2FFF7A8FB089CA14566
:103EB00080F0E78040F23803C2F200030593069ECB
:103EC000002E64D006F1FF35ADB24FF00004264657
:103ED000A246CDF81CB0DDF818B001E035461E460C
:103EE00037F804800FFA88F001F09EF9CDE902015D
:103EF000484601F089F9CDE90001DDE90201DDE97B
:103F0000002301F069FC50B137F9250001F08CF96C
:103F100002460B46DDE9000101F068FC88B937F97B
:103F2000250001F081F902460B46DDE9000101F0B0
:103F300071FC10B3DDE90201DDE9002301F060FC52
:103F4000D8B13B195B880FFA88F807EB8501C8EBFD
:103F50000902B1F9020019B2411A01FB02F137F965
:103F60002520C8EB020891FBF8F843440AA820F882
:103F70001A300AF1010A1FFA8AFA06F101039BB20C
:103F800004F104045B45A9D1DDF81CB001E04FF059
:103F9000000A4FF000030AF1FF3515E00AAA32F8D3
:103FA000131003F101020AAE36F81200814208D95B
:103FB00026F8140026F8121033B103F1FF339BB238
:103FC00002E003F101039BB21C46AB42E6DBBAF10F
:103FD000000F4ED0BDF828309B454AD94FF000065F
:103FE0003446DDF82480009705E026460AA830F81C
:103FF00014305B453CD206F101050AA931F81520C1
:1040000042452ED9434538BF21F816800AAA32F816
:1040100015305B4588BF22F815B0059B188880B223
:10402000FFF7ECFA0AA830F8155030F81660AA1B12
:1040300092B2484629464FF00003FFF70BFC48F2C6
:104040009C23C2F20103188880B2FFF7D7FA0FFA57
:1040500089F729B23846FFF73DFC31B23846FFF701
:1040600039FC04F10204A4B2A245BED8009F00E0CE
:10407000009F09F101091FFA89F9089E4E453FF694
:104080001EAF48F29C23C2F20103188880B2FFF7EA
:10409000B5FA6FB0BDE8F08F40F23803C2F200030A
:1040A000188880B2FFF7AAFAEBE700BF84B001904E
:1040B0004FF000030393019B42F2107202FB03F3E3
:1040C0000393039B33B1039B03F1FF330393039BE0
:1040D000002BF8D104B0704738B5FFF7FBF8FFF7B5
:1040E000D3F94FF00500FFF7E1FF4FF44064C4F24D
:1040F000020420464FF00801FDF736FE4FF00A009B
:10410000FFF7D4FF20464FF00801FDF72BFE4FF0DC
:1041100010004FF00101FFF7E9F94FF01E004FF0DA
:10412000B201FFF7E3F94FF028004FF00601FFF767
:10413000DDF94FF000004FF00101FFF7D7F94FF024
:10414000010043F2EF01FFF7D1F94FF002004FF405
:10415000C061FFF7CBF94FF010004FF00001FFF7FF
:10416000C5F94FF00500FFF7A1FF4FF0110046F62B
:104170003001FFF7BBF94FF0120040F69911FFF73D
:10418000B5F94FF026004FF46051FFF7AFF94FF04B
:1041900007004FF03301FFF7A9F94FF00C004FF083
:1041A0000501FFF7A3F94FF030004FF00001FFF7D2
:1041B0009DF94FF0310040F20331FFF797F94FF0CE
:1041C000320040F20741FFF791F94FF0330040F21F
:1041D0000131FFF78BF94FF0340040F20131FFF766
:1041E00085F94FF0350040F20341FFF77FF94FF0BA
:1041F000360040F20771FFF779F94FF037004FF4BE
:104200008061FFF773F94FF03A004FF42061FFF738
:104210006DF94FF03B004FF48051FFF767F94FF015
:104220000D004FF00A01FFF761F94FF00E004FF457
:104230003851FFF75BF94FF044004FF46F41FFF73F
:1042400055F94FF045004FF00001FFF74FF94FF0DF
:10425000460040F23F11FFF749F94FF04E004FF092
:104260000001FFF743F94FF04F004FF00001FFF757
:104270003DF94FF022004FF00001FFF737F94FF4FE
:1042800096344FF000052846FFF758F9013CFAD163
:1042900040F25400C2F20000FFF7D0F938BD00BF71
:1042A0002DE9F84F3C4A3D4B05461A601B683C4AD5
:1042B0000026934211D13B4A476800F11004136075
:1042C000E6600661A6606660A661666126613846A2
:1042D000002101F05DFC08B126E0FEE738464FF012
:1042E000874101F0C1FA00F0B1FF804638468946A7
:1042F00000F0ACFF064628880F4600F095FF24A387
:10430000D3E9002301F020F902460B463046394636
:1043100000F03EFE02460B464046494601F014F9C5
:1043200001F082FAA08300E0A683AF68002138463E
:1043300001F02EFC10BB2E88300200F075FF824683
:1043400038468B4600F082FF11A3D3E9002300F02A
:10435000D1FF80463046894600F066FF02460B4694
:104360004046494600F014FE02460B465046594668
:1043700001F0EAF801F058FAE08301E00023E3835A
:104380002A884FF47A73B2FBF3F32384BDE8F88FE5
:104390001F85EB51B81E1940C2A507F4003002403A
:1043A000CDB5E8B5A48201202DE9F04FA1B01F9250
:1043B000B04A1E911168B04A914200D0FEE703F165
:1043C0001002546911690B94D4680891916806949D
:1043D000D48B0591998995690D9406244C430995D0
:1043E000958B4FEA81094FEAC10B0C954D0005EB07
:1043F000010809EB010A1894C1EB0B0C00241F699A
:1044000056681295CDF85880CDF84C90CDF85CA048
:10441000CDF854B0CDF864C007940391019313E133
:1044200090F80080DFF860A2039D1AF80840DDF8DC
:10443000489036190A9610F805C0904E1AF80C40AC
:1044400016F80850169904EB4504E7190E9710F872
:1044500009408B4F1AF8045017F8088010F801B083
:10446000454416F80C8017F80C9005EB48051AF82F
:104470000B8016F804C0C14409EB4C0C139BCDF81B
:104480003CC010F803903C5D1AF809C016F80B8088
:10449000644404EB48080F9CCDF840804444DDF8A8
:1044A0005C801C9410F808C017F80B801AF80C40B8
:1044B0001899444416F8098017F8099004EB480449
:1044C00004EB050BCDF874B010F801801AF808B0B1
:1044D000D94416F80CB009EB4B0BCDF844B00E9B49
:1044E00017F80CC05B44DDF864B01B9310F80B9018
:1044F00016F808B01AF809A00F99D4440CEB4B0B2E
:10450000DDF828C04FEA051ADC44CDF868C0C5EBD9
:104510000A0A17F808C04FF00A0808FB01AA16F8A3
:104520000960119BCDF850B09A44DDF840B00CEB17
:10453000460604EB440CE24417F809704FF00609F4
:1045400009FB0BAA06990A9B8A444FF01C0C0CFB32
:1045500003AA0E994FF0150B0BFB01AA1D9BCDF87A
:1045600028A04FF02E0A0AFB03FA1C99302303FB04
:1045700001AA05991A9B51444FF0240A0AFB031320
:104580001B99CA440AFB013106910F9905EB4505B9
:1045900009FB015925012C1B109BA14408FB039921
:1045A000149C119D0CFB04990BFB05990E990A9B19
:1045B0000D9C49440591A3F5003A64B1089D0B99FF
:1045C0000D9B6C1A54445C4348BFFF342412CDF851
:1045D0002CA00894A2460C9C64B1099DC4F580747B
:1045E0006C430C9901FB0A44002CB8BFFF34241221
:1045F0000994A2461F9B03FB0AFABAF1000F04DDDF
:104600000AF1080A4FEA2A1A06E0BAF1080C48BF74
:104610000AF1070C4FEA2C1A019DDDF81C80EC8989
:1046200047F6BC7C04FB08F4164DE245B8BFD446FF
:104630001E99159BAC45A8BF654608F1010821F8F5
:104640001450C018CDF81C80148C079DA542FFF6AD
:10465000E7AE019B05991F61069B9160D360089DA1
:104660000B99099B5660156151619361204621B0F9
:10467000BDE8F08FA4820120CDB5E8B55C01002033
:104680005C0000204480FFFF5C0200202DE9F04F19
:10469000A1B01F92B04A1E911168B04A914200D059
:1046A000FEE703F11002546911690B94D468089174
:1046B00091680694D48B0591998995690D94062487
:1046C0004C430995958B4FEA81094FEAC10B0C9534
:1046D0004D0005EB010809EB010A1894C1EB0B0C26
:1046E00000241F6956681295CDF85880CDF84C907B
:1046F000CDF85CA0CDF854B0CDF864C00794039118
:10470000019313E190F80080DFF860A2039D1AF88E
:104710000840DDF8489036190A9610F805C0904E0A
:104720001AF80C4016F80850169904EB4504E719DE
:104730000E9710F809408B4F1AF8045017F80880AC
:1047400010F801B0454416F80C8017F80C9005EBF2
:1047500048051AF80B8016F804C0C14409EB4C0C4C
:10476000139BCDF83CC010F803903C5D1AF809C0CB
:1047700016F80B80644404EB48080F9CCDF8408089
:104780004444DDF85C801C9410F808C017F80B80D6
:104790001AF80C401899444416F8098017F8099043
:1047A00004EB480404EB050BCDF874B010F801805D
:1047B0001AF808B0D94416F80CB009EB4B0BCDF839
:1047C00044B00E9B17F80CC05B44DDF864B01B933B
:1047D00010F80B9016F808B01AF809A00F99D444F5
:1047E0000CEB4B0BDDF828C04FEA051ADC44CDF882
:1047F00068C0C5EB0A0A17F808C04FF00A0808FBA2
:1048000001AA16F80960119BCDF850B09A44DDF862
:1048100040B00CEB460604EB440CE24417F8097078
:104820004FF0060909FB0BAA06990A9B8A444FF030
:104830001C0C0CFB03AA0E994FF0150B0BFB01AAE5
:104840001D9BCDF828A04FF02E0A0AFB03FA1C99F5
:10485000302303FB01AA05991A9B51444FF0240A07
:104860000AFB03131B99CA440AFB013106910F99F5
:1048700005EB450509FB015925012C1B109BA144A3
:1048800008FB0399149C119D0CFB04990BFB0599E3
:104890000E990A9B0D9C49440591A3F5003A64B119
:1048A000089D0B990D9B6C1A54445C4348BFFF3420
:1048B0002412CDF82CA00894A2460C9C64B1099D4A
:1048C000C4F580746C430C9901FB0A44002CB8BFFA
:1048D000FF3424120994A2461F9B03FB0AFABAF183
:1048E000000F04DD0AF1080A4FEA2A1A06E0BAF1BD
:1048F000080C48BF0AF1070C4FEA2C1A019DDDF89D
:104900001C80EC8947F6BC7C04FB08F4164DE2459C
:10491000B8BFD4461E99159BAC45A8BF654608F1A3
:10492000010821F81450C018CDF81C80148C079D84
:10493000A542FFF6E7AE019B05991F61069B9160BA
:10494000D360089D0B99099B566015615161936175
:10495000204621B0BDE8F08FA4820120CDB5E8B596
:104960005C0100205C0000204480FFFF5C0200200E
:104970002DE9F04FA1B01F92B04A1E911168B04AC4
:10498000914200D0FEE703F11002546911690B94C3
:10499000D468089191680694D48B0591998995699A
:1049A0000D9406244C430995958B4FEA81094FEAF3
:1049B000C10B0C954D0005EB010809EB010A189499
:1049C000C1EB0B0C00241F6956681295CDF8588076
:1049D000CDF84C90CDF85CA0CDF854B0CDF864C0C3
:1049E00007940391019313E190F80080DFF860A22F
:1049F000039D1AF80840DDF8489036190A9610F819
:104A000005C0904E1AF80C4016F80850169904EBA1
:104A10004504E7190E9710F809408B4F1AF8045017
:104A200017F8088010F801B0454416F80C8017F804
:104A30000C9005EB48051AF80B8016F804C0C14429
:104A400009EB4C0C139BCDF83CC010F803903C5D77
:104A50001AF809C016F80B80644404EB48080F9C50
:104A6000CDF840804444DDF85C801C9410F808C008
:104A700017F80B801AF80C401899444416F809806E
:104A800017F8099004EB480404EB050BCDF874B05B
:104A900010F801801AF808B0D94416F80CB009EBE8
:104AA0004B0BCDF844B00E9B17F80CC05B44DDF8FF
:104AB00064B01B9310F80B9016F808B01AF809A010
:104AC0000F99D4440CEB4B0BDDF828C04FEA051AC4
:104AD000DC44CDF868C0C5EB0A0A17F808C04FF0EF
:104AE0000A0808FB01AA16F80960119BCDF850B01E
:104AF0009A44DDF840B00CEB460604EB440CE2446B
:104B000017F809704FF0060909FB0BAA06990A9BD2
:104B10008A444FF01C0C0CFB03AA0E994FF0150BA6
:104B20000BFB01AA1D9BCDF828A04FF02E0A0AFB13
:104B300003FA1C99302303FB01AA05991A9B5144DF
:104B40004FF0240A0AFB03131B99CA440AFB0131E4
:104B500006910F9905EB450509FB015925012C1B11
:104B6000109BA14408FB0399149C119D0CFB049914
:104B70000BFB05990E990A9B0D9C49440591A3F5E1
:104B8000003A64B1089D0B990D9B6C1A54445C4328
:104B900048BFFF342412CDF82CA00894A2460C9CE8
:104BA00064B1099DC4F580746C430C9901FB0A44FF
:104BB000002CB8BFFF3424120994A2461F9B03FBAC
:104BC0000AFABAF1000F04DD0AF1080A4FEA2A1ABC
:104BD00006E0BAF1080C48BF0AF1070C4FEA2C1A9C
:104BE000019DDDF81C80EC8947F6BC7C04FB08F4D1
:104BF000164DE245B8BFD4461E99159BAC45A8BFDB
:104C0000654608F1010821F81450C018CDF81C8041
:104C1000148C079DA542FFF6E7AE019B05991F6125
:104C2000069B9160D360089D0B99099B56601561A6
:104C300051619361204621B0BDE8F08FA48201202C
:104C4000CDB5E8B55C0100205C0200204480FFFF88
:104C50005C0000202DE9F04FA3B02092A94A1F91DB
:104C60001168A94A914200D0FEE7196A9E69DF697E
:104C700006910A9699899E8D0397DF8D0B968E007B
:104C80000C971296771806264E434FEA410A0AEB14
:104C9000010BCDF844A04FEAC10A18960AEB0106B1
:104CA0001A960A264E435C6A9D6A03F11002CDF8FB
:104CB00058B01797C1EB0A0B0027099407951C6998
:104CC0005D69CDF840A0CDF864B01E9605971592A9
:104CD000219101933BE18D4E07788D4916F807A08D
:104CE00011F807C05544DDF884A0089510F80A5063
:104CF000DDF844B0725D169B02EB4C0214190D9462
:104D0000844A10F80B4012F8079016F804C010F807
:104D100003A04F5DE14409EB4709555D16F80A70A1
:104D200012F804C07D190F5DDDF85CB005EB470794
:104D30000E97129F10F80B40C55D12F80A80775D40
:104D4000189BBC4411F80A7010F803A00CEB470C38
:104D5000375DB8444F5D555D08EB470816F80A709B
:104D60007D190F5D05EB47070F970E9D145D7D19AB
:104D7000199F1C95C55D109B775D3F1911F80A407E
:104D800007EB440707EB090BCDF874B0C45C12F8CD
:104D90000AB0335D11F805A09B440BEB4A0ADDF81D
:104DA00034B0CDF810A01A9BDA44CDF850A010F81A
:104DB00003A0555D16F80A60DDF838B075190E5D70
:104DC00011F80A1005EB4606089D1396AD191C262E
:104DD0001B95155D12F80A4006FB09FA05EB410523
:104DE000152101FB0BAA049A0A23924403FB08AA8B
:104DF0004FEA0C12CCEB0202DDF83CB0924407EB18
:104E00004702163E924406FB0BAA0399089A8A446D
:104E10002D2101FB02AA0D9B242202FB03AACDF83F
:104E200020A008EB0C0ACDF80CA0DDF870A04FF024
:104E3000490B0BFB0AF3DDF80CB04FF04B0A0AFBF1
:104E40000B33DDF874A04FF0450B0BFB0A3B0A9BBC
:104E50004FF0370A9B441B9B09EB49090AFB03BB34
:104E6000149B03FA06FAC3EB0A0A0BEB0A03DDF8FC
:104E700038A04FF00A0B06FB0A964FEA0819C8EB58
:104E8000090846440BFB0C6603931C2303FB0766CF
:104E90000F9F4FF0150A0AFB0766DDF84CB0089B20
:104EA00001FB0B660499A3F57A3A02FB01660D9AA1
:104EB000B6180A960C9E5EB1069F0999CDF824A0FB
:104EC0007A1A5244724348BFFF3212120692924637
:104ED0000B9A62B1079BC2F580725A430B9E06FB88
:104EE0000A22002AB8BFFF32121207929246209F70
:104EF00007FB0AFABAF1000F0EDD0AF1100A4FEAB9
:104F00006A1A10E0A4820120CDB5E8B55C0000204B
:104F10005C0100205C020020BAF1100648BF0AF1D3
:104F20000F064FEA661A0199059BCA8947F6BC76B7
:104F30005A431349B245B8BF56468E42A8BF3146C0
:104F40001E9F1F9E013326F81210C0190593159954
:104F5000059A0E8CB242FFF6BEAE019B4D601C61FD
:104F6000069D0A9B039C099F0A468B60CC600D61DD
:104F70004F6107993046916123B0BDE8F08F00BFC3
:104F80004480FFFF81F0004102E000BF83F0004356
:104F900030B54FEA41044FEA430594EA050F08BFD4
:104FA00090EA020F1FBF54EA000C55EA020C7FEA98
:104FB000645C7FEA655C00F0E2804FEA5454D4EB15
:104FC0005555B8BF6D420CDD2C4480EA020281EADF
:104FD000030382EA000083EA010180EA020281EA17
:104FE0000303362D88BF30BD11F0004F4FEA013169
:104FF0004FF4801C4CEA113102D0404261EB410178
:1050000013F0004F4FEA03334CEA133302D05242FD
:1050100063EB430394EA050F00F0A780A4F10104B9
:10502000D5F1200E0DDB02FA0EFC22FA05F28018F3
:1050300041F1000103FA0EF2801843FA05F35941D9
:105040000EE0A5F120050EF1200E012A03FA0EFC58
:1050500028BF4CF0020C43FA05F3C01851EBE37182
:1050600001F0004507D54FF0000EDCF1000C7EEB9F
:1050700000006EEB0101B1F5801F1BD3B1F5001FDD
:105080000CD349085FEA30004FEA3C0C04F10104FC
:105090004FEA445212F5800F80F09A80BCF1004F25
:1050A00008BF5FEA500C50F1000041EB045141EAA7
:1050B000050130BD5FEA4C0C404141EB010111F4A8
:1050C000801FA4F10104E9D191F0000F04BF014653
:1050D0000020B1FA81F308BF2033A3F10B03B3F131
:1050E00020020CDA0C3208DD02F1140CC2F10C02C1
:1050F00001FA0CF021FA02F10CE002F11402D8BF1F
:10510000C2F1200C01FA02F120FA0CFCDCBF41EAEA
:105110000C019040E41AA2BF01EB0451294330BDB9
:105120006FEA04041F3C1CDA0C340EDC04F1140496
:10513000C4F1200220FA04F001FA02F340EA03006D
:1051400021FA04F345EA030130BDC4F10C04C4F1B3
:10515000200220FA02F001FA04F340EA0300294693
:1051600030BD21FA04F0294630BD94F0000F83F4DD
:10517000801306BF81F480110134013D4EE77FEAC0
:10518000645C18BF7FEA655C29D094EA050F08BF0C
:1051900090EA020F05D054EA000C04BF19461046ED
:1051A00030BD91EA030F1EBF0021002030BD5FEA31
:1051B000545C05D14000494128BF41F0004130BD59
:1051C00014F580043CBF01F5801130BD01F00045AD
:1051D00045F0FE4141F470014FF0000030BD7FEA20
:1051E000645C1ABF194610467FEA655C1CBF0B461B
:1051F000024650EA013406BF52EA033591EA030F32
:1052000041F4002130BD00BF90F0000F04BF002129
:10521000704730B54FF4806404F132044FF000055C
:105220004FF0000150E700BF90F0000F04BF0021D5
:10523000704730B54FF4806404F1320410F000453B
:1052400048BF40424FF000013EE700BF42004FEA36
:10525000E2014FEA31014FEA02701FBF12F07F43B3
:1052600093F07F4F81F06051704792F0000F14BFB0
:1052700093F07F4F704730B54FF4607401F00045F4
:1052800021F0004120E700BF50EA010208BF70474B
:1052900030B54FF000050AE050EA010208BF704740
:1052A00030B511F0004502D5404261EB41014FF4A9
:1052B000806404F132045FEA915C3FF4DCAE4FF0AD
:1052C00003025FEADC0C18BF03325FEADC0C18BF94
:1052D000033202EBDC02C2F1200300FA03FC20FAE5
:1052E00002F001FA03FE40EA0E0021FA02F1144432
:1052F000C1E600BF70B54FF0FF0C4CF4E06C1CEA47
:1053000011541DBF1CEA135594EA0C0F95EA0C0FBB
:1053100000F0DEF82C4481EA030621EA4C5123EA2E
:105320004C5350EA013518BF52EA033541F480115D
:1053300043F4801338D0A0FB02CE4FF00005E1FB10
:1053400002E506F00042E0FB03E54FF00006E1FB5A
:1053500003569CF0000F18BF4EF0010EA4F1FF049D
:10536000B6F5007F64F5407404D25FEA4E0E6D41DD
:1053700046EB060642EAC62141EA55514FEAC520EE
:1053800040EA5E504FEACE2EB4F1FD0C88BFBCF56A
:10539000E06F1ED8BEF1004F08BF5FEA500E50F11B
:1053A000000041EB045170BD06F0004646EA0101E1
:1053B00040EA020081EA0301B4EB5C04C2BFD4EB13
:1053C0000C0541EA045170BD41F480114FF0000E0C
:1053D000013C00F3AB8014F1360FDEBF002001F07A
:1053E000004170BDC4F10004203C35DA0C341BDCF4
:1053F00004F11404C4F1200500FA05F320FA04F0C6
:1054000001FA05F240EA020001F0004221F00041F9
:1054100010EBD37021FA04F642EB06015EEA430E6C
:1054200008BF20EAD37070BDC4F10C04C4F120059C
:1054300000FA04F320FA05F001FA04F240EA02004F
:1054400001F0004110EBD37041F100015EEA430E20
:1054500008BF20EAD37070BDC4F1200500FA05F240
:105460004EEA020E20FA04F301FA05F243EA0203BF
:1054700021FA04F001F0004121FA04F220EA0200CE
:1054800000EBD3705EEA430E08BF20EAD37070BD14
:1054900094F0000F0FD101F00046400041EB0101F4
:1054A00011F4801F08BF013CF7D041EA060195F0D6
:1054B000000F18BF704703F00046520043EB030390
:1054C00013F4801F08BF013DF7D043EA060370477D
:1054D00094EA0C0F0CEA135518BF95EA0C0F0CD088
:1054E00050EA410618BF52EA4306D1D181EA0301CE
:1054F00001F000414FF0000070BD50EA410606BFC8
:105500001046194652EA430619D094EA0C0F02D10C
:1055100050EA013613D195EA0C0F05D152EA033651
:105520001CBF104619460AD181EA030101F000416F
:1055300041F0FE4141F470014FF0000070BD41F0B8
:10554000FE4141F4780170BD70B54FF0FF0C4CF492
:10555000E06C1CEA11541DBF1CEA135594EA0C0FB1
:1055600095EA0C0F00F0A7F8A4EB050481EA030EFE
:1055700052EA03354FEA013100F088804FEA0333E5
:105580004FF0805545EA131343EA12634FEA0222B3
:1055900045EA111545EA10654FEA00260EF0004174
:1055A0009D4208BF964244F1FD0404F5407402D2C6
:1055B0005B084FEA3202B61A65EB03055B084FEA57
:1055C00032024FF480104FF4002CB6EB020E75EB54
:1055D000030E22BFB61A754640EA0C005B084FEA7C
:1055E0003202B6EB020E75EB030E22BFB61A7546F9
:1055F00040EA5C005B084FEA3202B6EB020E75EB44
:10560000030E22BFB61A754640EA9C005B084FEABB
:105610003202B6EB020E75EB030E22BFB61A7546C8
:1056200040EADC0055EA060E18D04FEA051545EAB7
:1056300016754FEA06164FEAC30343EA52734FEA60
:10564000C2025FEA1C1CC0D111F4801F0BD141EAD9
:1056500000014FF000004FF0004CB6E711F4801F3E
:1056600004BF01430020B4F1FD0C88BFBCF5E06F1E
:105670003FF6AFAEB5EB030C04BFB6EB020C5FEA2E
:10568000500C50F1000041EB045170BD0EF0004E83
:105690004EEA113114EB5C04C2BFD4EB0C0541EAB5
:1056A000045170BD41F480114FF0000E013C90E6B2
:1056B00045EA060E8DE60CEA135594EA0C0F08BF76
:1056C00095EA0C0F3FF43BAF94EA0C0F0AD150EA75
:1056D00001347FF434AF95EA0C0F7FF425AF104608
:1056E00019462CE795EA0C0F06D152EA03353FF430
:1056F000FDAE1046194622E750EA410618BF52EAAD
:1057000043067FF4C5AE50EA41047FF40DAF52EA80
:1057100043057FF4EBAE12E74FF0FF3C06E000BF1D
:105720004FF0010C02E000BF4FF0010C4DF804CD2A
:105730004FEA410C7FEA6C5C4FEA430C18BF7FEAEA
:105740006C5C1BD001B050EA410C0CBF52EA430C18
:1057500091EA030F02BF90EA020F0020704710F198
:10576000000F91EA030F58BF994208BF90422CBF27
:10577000D8176FEAE37040F0010070474FEA410C20
:105780007FEA6C5C02D150EA013C07D14FEA430C3E
:105790007FEA6C5CD6D152EA033CD3D05DF8040BAF
:1057A000704700BF8446104662468C4619466346E1
:1057B00000E000BF01B5FFF7B7FF002848BF10F1B8
:1057C000000F01BD4DF808EDFFF7F4FF0CBF0120FD
:1057D00000205DF808FB00BF4DF808EDFFF7EAFF79
:1057E00034BF012000205DF808FB00BF4DF808ED34
:1057F000FFF7E0FF94BF012000205DF808FB00BF29
:105800004DF808EDFFF7CEFF94BF012000205DF8B2
:1058100008FB00BF4DF808EDFFF7C4FF34BF0120BF
:1058200000205DF808FB00BF4A0011D212F50012FB
:1058300011D20DD56FF47873B3EB62520ED44FEAE8
:10584000C12343F0004343EA505323FA02F0704768
:105850004FF00000704750EA013002D14FF0FF30A6
:1058600070474FF0000070474FF0FF0C1CEAD05219
:105870001EBF1CEAD15392EA0C0F93EA0C0F6FD0B3
:105880001A4480EA010C400218BF5FEA41211ED091
:105890004FF0006343EA501043EA5111A0FB01317D
:1058A0000CF00040B1F5000F3EBF490041EAD37152
:1058B0005B0040EA010062F17F02FD2A1DD8B3F1CE
:1058C000004F40EBC25008BF20F00100704790F03D
:1058D000000F0CF0004C08BF49024CEA502040EA8F
:1058E00051207F3AC2BFD2F1FF0340EAC250704755
:1058F00040F400004FF00003013A5DDC12F1190F93
:10590000DCBF00F000407047C2F10002410021FA04
:1059100002F1C2F1200200FA02FC5FEA310040F11C
:10592000000053EA4C0308BF20EADC70704792F095
:10593000000F00F0004C02BF400010F4000F013ACD
:10594000F9D040EA0C0093F0000F01F0004C02BFC8
:10595000490011F4000F013BF9D041EA0C018FE737
:105960000CEAD15392EA0C0F18BF93EA0C0F0AD03D
:1059700030F0004C18BF31F0004CD8D180EA010063
:1059800000F00040704790F0000F17BF90F0004FFC
:10599000084691F0000F91F0004F14D092EA0C0FDE
:1059A00001D142020FD193EA0C0F03D14B0218BF71
:1059B000084608D180EA010000F0004040F0FE40B7
:1059C00040F40000704740F0FE4040F44000704753
:1059D0004FF0FF0C1CEAD0521EBF1CEAD15392EAD2
:1059E0000C0F93EA0C0F69D0A2EB030280EA010CC2
:1059F00049024FEA402037D04FF0805343EA11115B
:105A000043EA10130CF000408B4238BF5B0042F1B8
:105A10007D024FF4000C8B4224BF5B1A40EA0C005D
:105A2000B3EB510F24BFA3EB510340EA5C00B3EB8F
:105A3000910F24BFA3EB910340EA9C00B3EBD10F7D
:105A400024BFA3EBD10340EADC001B0118BF5FEACF
:105A50001C1CE0D1FD2A3FF650AF8B4240EBC250F8
:105A600008BF20F0010070470CF0004C4CEA5020B9
:105A70007F32C2BFD2F1FF0340EAC250704740F408
:105A800000004FF00003013A37E792F0000F00F0FA
:105A9000004C02BF400010F4000F013AF9D040EA78
:105AA0000C0093F0000F01F0004C02BF490011F40C
:105AB000000F013BF9D041EA0C0195E70CEAD15304
:105AC00092EA0C0F08D142027FF47DAF93EA0C0FEB
:105AD0007FF470AF084676E793EA0C0F04D14B02CF
