:020000040800F2
:1000000020FF0120B112000879120008B112000887
:100010007D1200087D1200087D120008000000001B
:100020000000000000000000000000007D12000839
:100030007D1200087D1200087D1200088112000860
:100040007D1200087D1200087D1200087D12000854
:100050007D1200087D1200087D1200087D12000844
:100060007D1200087D1200087D1200087D12000834
:100070007D1200087D1200087D1200087D12000824
:100080007D1200087D1200087D1200087D12000814
:100090007D1200087D1200087D1200087D12000804
:1000A0007D1200087D1200087D1200087D120008F4
:1000B0007D1200087D1200087D1200087D120008E4
:1000C0007D1200087D1200087D1200087D120008D4
:1000D0007D1200087D1200087D1200087D120008C4
:1000E0007D1200087D1200087D1200087D120008B4
:1000F0007D1200087D1200087D1200087D120008A4
:100100007D1200087D1200087D1200087D12000893
:100110007D1200087D1200087D1200087D12000883
:100120007D120008E90300087D120008710800082C
:100130007D1200087D1200087D1200087D12000863
:100140007D1200087D1200087D1200087D12000853
:100150007D1200087D1200087D1200087D12000843
:100160007D1200087D1200087D1200087D12000833
:100170007D1200087D1200087D1200087D12000823
:100180007D1200087D1200084FF62C73C2F20103A5
:100190001A885B8893420ED04FF62C73C2F201038B
:1001A00099180979017002F1010202F01F021A8008
:1001B0004FF0010070474FF0000070472DE9F04FFD
:1001C00097B04FF017004FF0010101F0CFFB4FF057
:1001D0000100014601F0DCFB4FF00008C4F2020808
:1001E00040464FF006014FF00D0201F07BFE4FF448
:1001F0000065C4F2020528464FF006014FF00D02DB
:1002000001F070FE28464FF007014FF00D0201F09B
:1002100069FE4FF48056C4F2020630464FF00001EA
:100220004FF00D0201F05EFE30464FF001014FF03D
:100230000D0201F057FE30464FF004014FF00D0261
:1002400001F050FE4FF48067C4F2020738464FF0C9
:1002500006014FF00D0201F045FE30464FF005015A
:100260004FF00D0201F03EFE30464FF006014FF018
:100270000D0201F037FE38464FF007014FF00D0236
:1002800001F030FE40464FF004014FF00D0201F046
:1002900029FE4FF0C009CDF840904FF0020A8DF8CA
:1002A00044A04FF003038DF845304FF000048DF863
:1002B00046404FF0010B8DF847B0284610A901F0D9
:1002C00073FD4FF073031093304610A901F06CFDDD
:1002D000CDF84090384610A901F066FD4FF050036C
:1002E00010938DF844A08DF84640404610A901F0C7
:1002F0005BFDADF84840ADF84A40ADF84C404FF0DA
:100300008003ADF84E304FF04003ADF85030ADF8FB
:100310005240ADF8544012A802F098F84FF4800013
:10032000594601F023FB46F22845C4F2020528464F
:1003300002F0E0FB4FF0007301934FF02803C5F289
:10034000050302934FF20C13C2F2010303930494CA
:100350004FF42073059306944FF4806307934FF492
:10036000805308934FF4804309934FF480730A93AA
:100370004FF400330B930C944FF003030D930E9442
:100380000F94284601A902F0AFFC17B0BDE8F08F2A
:1003900008B54FF060004FF012014FF0800204F0FA
:1003A00091F9F0B905F04CF94FF060004FF01201EF
:1003B0004FF0630204F086F94FF060004FF0400107
:1003C0004FF0100204F07EF94FF060004FF015017D
:1003D0004FF0080204F076F9FFF7F0FE4FF000004E
:1003E00008BD4FF0FF0008BD2DE9F04F85B046F283
:1003F0002840C4F202004FF44061C1F2000102F053
:1004000027FD4FF62C73C2F201035B8801934FF472
:10041000A0724FF62C73C2F201034FF20C1AC2F213
:10042000010A40F20004C2F200044FF2021BC2F2C1
:10043000010B4FF60C31C2F2010100919D8C05F1C8
:10044000010080B24CF6CD41CCF6CC41A1FB007648
:100450004FEA562606EB8606A0EBC6109884986AEB
:10046000A1FB00614FEA112101EB8101A0EB811199
:1004700089B211F0010F51D14CF6CD46CCF6CC46E5
:10048000A6FB0070C0F30F2010F0010F46D13AF820
:1004900025504FEAD5275FFA87F8C5F3841605F093
:1004A0001F05C5EBC50C4FF04D0909FB08F808EB1B
:1004B0008C0C4FF0970808FB06CC4FEA1C2C8DF8EB
:1004C0000CC08DF80D708DF80E608DF80F5093F8FC
:1004D0002C5004AE751915F8045C4FEA851646EAEF
:1004E000C5262E43256825F8026B2560BBF9005010
:1004F000A94213D1009FB7F9001088420ED101988C
:10050000191893F82C0004AD281810F8040C087181
:10051000019E06F1010101F01F010191986A00F1AD
:1005200002019962B1F5963F0AD34DF20241CFF62E
:10053000FE714118996240F20031C2F2000121605F
:10054000013A7FF47BAF4FF62C73C2F20103019F97
:100550005F8005B0BDE8F08F38B54FF62C73C2F25E
:1005600001034FF000051D634FF04E00294603F0D4
:100570008FF94FF04F00294603F08AF940F200034B
:10058000C2F200035B6819884FF0220003F080F983
:1005900046F25844C4F202042046294602F0E2FB27
:1005A00020464FF0C05102F053FC2046294602F08D
:1005B000FDFB20464FF0010102F0D4FB38BD00BF27
:1005C0002DE9F04182B005460C4617461E460DF156
:1005D000060001A903F0D4F904EB840405EB8415AB
:1005E00096B14FF0000347F6FF7449F60018C2F2C7
:1005F000000840F2000CC2F2000C48F2B511C1F63E
:100600004E314FF496302DE04FF0000347F6FF7463
:1006100049F60018C2F2000840F2000CC2F2000CC9
:1006200048F2B511C1F64E314FF49630A54206D8C6
:10063000BDF80660DCF8042022F8156005E0A5F599
:100640000042BDF8066028F8126005F10102A1FB26
:1006500002654FEA553500FB152503F10103BB4246
:10066000E4D91AE0A54206D8BDF80660DCF80420FB
:1006700022F8156005E0A5F50042BDF8066028F8EF
:10068000126005F5A072A1FB02654FEA553500FB2B
:10069000152503F10103BB42E4D902B0BDE8F081A6
:1006A0002DE9F04F83B0814617464FEAD11AB2F8D0
:1006B00002B0B2F80680D8441FFA88F80178A8EB97
:1006C000410110F80A30A8EB43039BB209B20FFABC
:1006D0008BF29142B8BF114689B255464FF00004E3
:1006E00093460FFA88F2019200E031461EB25E4551
:1006F000B8BF5E46019B9E42A8BF1E46B6B2388870
:10070000201880B232B20BB29A42B4BF11461946D9
:1007100089B2D21A002AB8BF524292B24FF00103F6
:10072000FFF74EFF5544ADB219F80530A8EB43036F
:100730009BB204F10104A4B27F2CD6D103B0BDE872
:10074000F08F00BF2DE9F00FB0F800B0438803EB45
:1007500083080BEB88180BF5A07BC2889B1803EB72
:1007600083030BEB831B47F6FF7649F6001AC2F2B0
:10077000000A40F20009C2F2000948F2B515C1F6BC
:100780004E35828843464FF49634B34231F813C055
:1007900099BFD9F8047027F813C0A3F500472AF8C9
:1007A00017C003F10107A5FB07C34FEA533304FB4E
:1007B000137302F1FF3292B2002AE6D108F5A07855
:1007C000D845DED1BDE8F00F704700BF30B591B01D
:1007D0004FF480004FF0010101F0C8F846F2584490
:1007E000C4F20204204602F085F94FF000030193A1
:1007F00040F28002C2F2000202921A46C6F21002D1
:1008000003924FF0800204924FF4A07205924FF4CD
:100810000072069207934FF4006208924FF4005260
:1008200009920A930B934FF004020C924FF00302CB
:100830000D920E930F93204601A902F055FA4FF442
:10084000E06000F0A7FE4FF03B038DF800304FF062
:1008500001058DF802508DF80350684600F0A4FEA3
:1008600020464FF010012A4602F010FB11B030BDB7
:1008700038B546F25840C4F202004FF0C05102F0C1
:1008800057FB4FF62C73C2F201031C6BB4F5163FF5
:100890005CD24FF6FD739C421DD8C4F57E4505F52C
:1008A000FF7540F281239D4294BF6D084FF4A075FF
:1008B00040F28000C2F2000040F20003C2F20003E6
:1008C00024F0010101F102015B6859184FEA450269
:1008D00007F03AFA1CE04FEA5402C2F59632B2F53C
:1008E000A07F28BF4FF4A072154640F28000C2F2EC
:1008F00000004FEA4202A4F57E41A1F5FF7121F00C
:10090000010149F60013C2F20003C91807F0DAF931
:100910004FF62C73C2F2010304EB45041C6346F24C
:100920005844C4F2020420464FF0000102F01AFAC3
:1009300020464FF0C05102F08BFAA9B2204602F0D7
:1009400035FA20464FF0010102F00CFA38BD00BF25
:100950002DE9F00F88B0059109880691059B5B8809
:100960000193DDF814C0BCF8063001995B1A9BB204
:1009700002930390069B1BB2079349F60018C2F23C
:10098000000840F2000BC2F2000B48F2B517C1F6A6
:100990004E37DDF804C00FFA8CF303EB830307989E
:1009A00000EB83130CF1010189B20191DDF814C051
:1009B000BCF804100698091A89B20491039901F150
:1009C0000200049947F6FF764FF49635B34210D8EB
:1009D0004FEA430ADBF8044032B130F802CC34F875
:1009E000139009EA0C0C01E030F802CC24F80AC09C
:1009F0000DE0A3F5004432B138F814C030F8029C81
:100A000009EA0C0C01E030F802CC28F814C003F11C
:100A10000104A7FB04C34FEA533305FB134301F161
:100A2000FF3189B200F102000029CFD1049800F112
:100A3000FF339BB203F10103039901EB43010391DF
:100A4000DDF808C00CF1FF339BB20293002BA0D15C
:100A500008B0BDE8F00F704710B584B04FF0000348
:100A60008DF80F304FF040048DF808408DF80930B4
:100A70004FF007028DF80A208DF80B308DF80C30FE
:100A800002A806F01FFE8DF804404FF010038DF809
:100A900005304FF020038DF8063001A806F0CEFD9A
:100AA0004FF01E0000F03AFC04A84FF0C00300F81D
:100AB000013D4FF022014FF0010206F027FD04B086
:100AC00010BD00BF2DE9F04FA7B04FF61034C2F2B1
:100AD0000104204600F0AEFE626844F6D353C1F232
:100AE0006203A3FB02034FEA931202F1FF324EF2BC
:100AF0001003CEF200035A604FF46D42CEF20002B2
:100B00004FF0F00182F823104FF000059D604FF088
:100B100007021A60FFF7A0FF03F0B0FC284602F0BE
:100B20006BFF284602F04AFF4FF61F0002F038FF25
:100B300006F096F903F086FD02F058FF47F63C6494
:100B4000C0F600042846214603F00AF802F04EFFE2
:100B5000C088214603F004F802F048FFC0884FEA3D
:100B6000400080B247F65461C0F6000102F0F8FF81
:100B700002F03CFFC38803EB430398B247F67C6165
:100B8000C0F6000102F0ECFF02F030FFC0884FEA2F
:100B9000800080B2214602F0E3FF02F027FFC38805
:100BA00003EB830398B2214602F0DAFF02F01EFF46
:100BB000C38803EB43034FEA430398B2214602F094
:100BC000CFFF02F013FFC388C3EBC30398B22146E3
:100BD00002F0C6FF02F00AFFC0884FEAC00080B2F0
:100BE000214602F0BDFF02F001FFC38803EBC303FF
:100BF00098B2214602F0B4FF40F6FF7002F0C2F94D
:100C000002F0C6F902F0CCF9FFF7C2FB002840F071
:100C1000898002F0EBFEC0884FEA400080B2214696
:100C200002F09EFF02F0E2FEC3884FF0030000FBDB
:100C300003F080B2214602F093FF284629464FF484
:100C4000A0724FF0F00302F0A9FF02F043FE46F25B
:100C50002844C4F2020420464FF0010102F082F859
:100C600020464FF018014FF0010202F00FF94FF447
:100C7000E06000F08FFC4FF039038DF894302C4683
:100C80008DF895508DF896504FF001058DF89750DE
:100C900025A800F089FC284601F04EFC284601F00A
:100CA0005FFCA24BA24A508819894118998191880A
:100CB0005A898A18DA819F4A5088198A411899827C
:100CC00091885A8A8A18DA829B4A5088198B41186F
:100CD000998391885A8B8A18DA83984A5088198C9C
:100CE0004118998491885A8C8A18DA84944B19ADEA
:100CF0000FCB85E80F0023AB159321AB16931FABE9
:100D000017931DAB18934FF0040540F6327E46F260
:100D10006760C6F2666040F6746748F68901C8F6F7
:100D200088012EE04FF4784002F03AFE02F05EFEB9
:100D3000C0884FEA400080B2824902F011FF02F001
:100D400055FEC3884FF0030000FB03F080B27E49DC
:100D500002F006FF02F04AFEC3884FF0050000FBD8
:100D600003F080B2794902F0FBFE02F03FFEC38837
:100D70004FF0060000FB03F080B2754902F0F0FE70
:100D8000FEE726AB03EB840252F8443C52F8342CC5
:100D9000B2F904600EFB06F680FB068C4FEAE6769D
:100DA000C6EBEC16C6F57A661E80B2F9026007FB48
:100DB00006F681FB068CB4444FEAE676C6EBEC16E9
:100DC00006F196065E80B2F900600EFB06F680FB27
:100DD000068C4FEAE676C6EBEC16C6F57A669E8080
:100DE000B2F9062007FB02F281FB02C6B6184FEAF1
:100DF000E272C2EBE61202F19602DA8004F101041B
:100E0000E4B2013DBDD14E4D11AC05F110030FCB45
:100E100084E80F000DAC05F120030FCB84E80F0030
:100E200005F130010BA84FF0080206F04BFFBDF9A9
:100E3000300040F6327606FB00F34FF4A07293FBCD
:100E4000F2F3C3F57A639BB20293BDF92E1040F61C
:100E5000746505FB01F34FF0F00493FBF4F303F129
:100E600096039BB20493BDF92C3006FB03F696FB68
:100E7000F2F2C2F57A6292B20392BDF9322005FB1A
:100E800002F595FBF4F404F19604A4B20594C0189D
:100E90004FF0020390FBF3F7BFB28A1892FBF3F313
:100EA0001FFA83F8FFF792FC204C04F1280129482F
:100EB0004FF00002FFF74CFD04F1080126484FF007
:100EC0000002FFF745FD04F1100124484FF0000235
:100ED000FFF73EFD04F1180121484FF00002FFF733
:100EE00037FD04F120011F484FF00002FFF730FDED
:100EF0001D4B93F82C3026A800EB830353F8640CA9
:100F000000F1080053F8341C4FF00002FFF720FDF9
:100F100000F016FA8146144D05F138010091DFF812
:100F20004CB00BF10802019238E000BF0000002035
:100F300008040408482B040888520408C8790408E7
:100F4000F87D0008987E0008C07E0008E07E00085A
:100F5000087F0008387F0008B0170408F03E040836
:100F600030660408708D04082CFF01203803040843
:100F7000AC8E05FA84F39DF8232083F8382004F121
:100F800001039BB2AB861BB2802B07DD05F1390153
:100F900000984FF0800206F0D7FEAC860DF12300DA
:100FA000FFF7F2F80128E3D04FF20213C2F2010377
:100FB00039B2BDF92C208A1A4FEA420222EAE272C3
:100FC0001A804FF60C33C2F201030FFA88F1BDF913
:100FD0002E208A1A4FEA420222EAE2721A8000F0B8
:100FE000AFF9C9EB00003228D8D900F0A9F9814641
:100FF00001F0CEFF06F070F906464388002B00F0A2
:10100000B8804FF00004A5F8BA40828895F82CE02B
:101010000DF1980C0CEB840353F8443CB3F9001029
:101020008A422ADDB3F904108A4226DAF188B3F93C
:101030000200814221DDB3F9063099421DDAA6454E
:101040001BD00CEB8E0E5EF8540C00F108005EF81D
:10105000341C4FF00002FFF77BFC85F82C4026A8DB
:1010600000EB840A5AF8640C00F108005AF8341CAA
:101070004FF00002FFF76CFC04E004F10104E4B25D
:10108000032CC5D9B28802990BB29A4240F3BB80B7
:10109000DDF80CC00FFA8CF39A4280F2B480F3882A
:1010A000049801B28B4240F3AE80DDF814C00FFA11
:1010B0008CF18B4280F2A780C2EB0261C2EB81020D
:1010C0004FEA821202F59C1202F5006244F2A1512D
:1010D000C8F2C76181FB02018F184FEAE272C2EBCE
:1010E000E727BFB239B2BDF82C00BBF802204FEAA7
:1010F000520202FA80F4A14202DA121897B208E012
:10110000BDF8300004B2A41AA142C4BFC2EB000271
:1011100097B2C3EB03134FEA0313A3F50C43A3F1F8
:10112000A00340F6C772C8F6B35282FB031202EB6B
:1011300003084FEAE373C3EBE8281FFA88F80FFAB5
:1011400088F2BDF82E10BBF804304FEA530303FABF
:1011500081F0824203DA5B181FFA83F853E0BDF88E
:10116000321008B2C01A82424DDDCB1A1FFA83F842
:1011700049E0038813F0010F45D1B5F8BA3003F107
:1011800001039BB2A5F8BA30642B3CD94FF0010A99
:101190008DF81CA04FF000028DF81E208DF81FA0C6
:1011A00026AE4FF4807346F8803D4FF48064C4F25D
:1011B00002042046314600F0F7FD4FF000038DF8A1
:1011C0001C308DF81EA08DF81F304FF4007306936D
:1011D0002046314600F0E8FD4FF48064C4F202047A
:1011E0004FF4007607E0504600F098F820464FF4A0
:1011F000807100F073FE2046314600F04FFE00285B
:10120000F1D005F02DFE40F20030C2F200000BA933
:101210004FF00002FFF79CFBB8B2BBF802104FEA98
:101220005101431AADF824301FFA88F2BBF804309C
:101230004FEA5303D41AADF826404118ADF82810F0
:10124000D318ADF82A30019809A94FF00102FFF731
:101250007FFB074C20460749FFF774FA00984FF0D0
:1012600080012246FFF71CFAFFF776F996E600BFE9
:10127000307E0008387F0008FEE700BFFEE700BFB1
:101280004FF20413C2F201031B683BB14FF2041387
:10129000C2F201031A6802F1FF321A604FF6E873D6
:1012A000C2F201031A6802F101021A60704700BF1E
:1012B00008B5164B164A9A4211D24DF64832C0F67E
:1012C000040240F20003C2F2000340F28000C2F2C6
:1012D000000052F8041B43F8041B8342F9D30D4B62
:1012E0000D4A9A420DD240F28003C2F200034FF041
:1012F00000014FF6F872C2F2010243F8041B934258
:10130000FBD300F023F8FFF7DDFB08BD80000020D1
:1013100000000020F8FF0120800000204FF204139D
:10132000C2F2010318601A461368002BFCD1704703
:101330004FF6E873C2F201034FF000021A607047E3
:101340004FF6E873C2F201031868704782B04FF499
:101350006D43CEF20003D3F8882042F47002C3F844
:1013600088204FF46053C4F202031A6842F001026D
:101370001A604FF000029A60196821F0847121F41C
:101380008031196043F21001C2F2004159601968BE
:1013900021F480211960DA60009201921A6842F407
:1013A00080321A604FF46052C4F20202136803F4F0
:1013B00000330193009B03F101030093019B1BB9D0
:1013C000009BB3F5A06FF1D14FF46053C4F2020358
:1013D0001B6813F4003F14BF012300230193019BFA
:1013E000012B46D14FF46053C4F202031A6C42F051
:1013F00080521A644FF4E042C4F20002116841F4D2
:10140000804111609A689A609A6842F400429A603A
:101410009A6842F4A0529A6045F20842C0F24072C3
:101420005A601A6842F080721A604FF46052C4F237
:101430000202136813F0007FFBD04FF47053C4F224
:10144000020340F205621A604FF46053C4F20203D3
:101450009A6822F003029A609A6842F002029A6047
:101460004FF46052C4F20202936803F00C03082B9D
:10147000FAD14FF46053C4F202039A6822F40002D6
:101480009A604FF44052C5F20002C3F884201A68F3
:1014900042F080621A604FF46052C4F20202136894
:1014A00013F0006FFBD04FF46D43CEF200034FF00A
:1014B00000629A6002B070474FF46053C4F20203B6
:1014C0009B6803F00C03042B0DD0082B15D0002BC8
:1014D00044D140F23003C2F200034FF41052C0F284
:1014E000F4021A6043E040F23003C2F200034FF40A
:1014F0009052C0F27A021A6039E04FF46053C4F29D
:10150000020359685B6803F03F0311F4800F4FF446
:101510006052C4F202025068C0F3881019BF4FF441
:101520009051C0F27A014FF41051C0F2F401B1FBB6
:10153000F3F202FB00F24FF46053C4F20203596865
:1015400040F23003C2F20003C1F3014101F1010195
:101550004FEA4101B2FBF1F21A6008E040F23003B9
:10156000C2F200034FF41052C0F2F4021A604FF4BA
:101570006053C4F202039A68C2F3031240F23003CC
:10158000C2F200039A181279196821FA02F21A605D
:10159000704700BF40F0BE6040F420204FF46D4320
:1015A000CEF20003D860704710B4C3786BB34FF429
:1015B0006D43CEF20003DB686FEA0303C3F302233B
:1015C0004178C3F10402D2B201FA02F2D2B24FF072
:1015D0000F0141FA03F18478214011434FEA0111D0
:1015E000C9B202784FF46143CEF200039A1882F830
:1015F000001302784FEA521102F01F024FF001006F
:1016000000FA02F243F8212010E003784FEA531267
:1016100003F01F034FF0010101FA03F14FF461439E
:10162000CEF2000302F1200243F8221010BC7047F2
:1016300021F0604121F07F0108434FF46D43CEF269
:1016400000039860704700BF39B14FF46D43CEF28C
:1016500000031A691043186170474FF46D43CEF2CE
:1016600000031A6922EA00001861704704284EF24C
:101670001003CEF200031A680CBF42F0040222F0FD
:1016800004021A60704700BF4FF46053C4F20203B3
:101690001A6842F001021A604FF000029A6019685D
:1016A00021F0847121F48031196043F21001C2F2FB
:1016B00000415960196821F480211960DA6070478F
:1016C00043F60203C4F202034FF000021A701870CE
:1016D000704700BF4FF46053C4F202031A6822F04F
:1016E000F80242EAC0001860704700BF4FF00003E4
:1016F000C4F247231860704743F67003C4F2020334
:101700004FF000021A701A70012802D004280FD17D
:1017100007E043F67003C4F202034FF001021A70AF
:10172000704743F67003C4F202034FF005021A70CB
:10173000704700BF4FF46863C4F2472318607047D6
:10174000014341EA8212009942EA01614FEA5302E1
:1017500002F1FF3241EA02424FF46053C4F2020345
:101760005A6070474FF06003C4F247231860704717
:101770004FEA801040EA01704FF46053C4F2020354
:10178000C3F88400704700BF4FF06803C4F24723DA
:10179000186070474FF04C03C4F24723186070473D
:1017A0004FF46053C4F202039A6822F0EC621043D3
:1017B00008439860704700BF4FF46053C4F20203BF
:1017C0009A6822F07842104308439860704700BF3F
:1017D0004FF46053C4F202039A6822F003021043EC
:1017E000986070474FF46053C4F20203986800F0A9
:1017F0000C0070474FF46053C4F202039A6822F061
:10180000F0021043986070474FF46053C4F2020333
:101810009A6822F4E0521043986070474FF4605386
:10182000C4F202039A6822F4604242EAC00098605F
:10183000704700BF10B44FF46053C4F202039B68BA
:1018400003F00C03042B09D0082B0DD0002B38D14A
:101850004FF41053C0F2F403036037E04FF4905399
:10186000C0F27A03036031E04FF46053C4F2020324
:101870005C685A6802F03F0214F4800F4FF4605322
:10188000C4F202035B68C3F3881319BF4FF490548A
:10189000C0F27A044FF41054C0F2F404B4FBF2F135
:1018A00001FB03F14FF46053C4F202035A68C2F320
:1018B000014202F101024FEA4202B1FBF2F303607E
:1018C00004E04FF41053C0F2F40303604FF460528D
:1018D000C4F202029168C1F3031140F24403C2F260
:1018E0000003595C046824FA01F141609468C4F370
:1018F00082241C5D21FA04F484609268C2F34232AF
:101900009B5C21FA03F1C16010BC704700F4407386
:10191000B3F5407F0CD14FF46053C4F202039968D1
:1019200021F4F81120F0704222F440720A439A60C8
:101930004FF46053C4F202031A6F4FEA00504FEAAB
:10194000105010431867704740F63C63C4F24723B9
:10195000186070474FF46463C4F2472318607047FF
:101960004FF4AE73C4F247231860704739B14FF497
:101970006053C4F202031A6B1043186370474FF4AC
:101980006053C4F202031A6B22EA00001863704726
:1019900039B14FF46053C4F202035A6B10435863D9
:1019A00070474FF46053C4F202035A6B22EA0000FE
:1019B0005863704739B14FF46053C4F202039A6B15
:1019C0001043986370474FF46053C4F202039A6B5C
:1019D00022EA00009863704739B14FF46053C4F2B3
:1019E00002031A6C1043186470474FF46053C4F23A
:1019F00002031A6C22EA00001864704739B14FF4F0
:101A00006053C4F202035A6C1043586470474FF499
:101A10006053C4F202035A6C22EA00005864704713
:101A200039B14FF46053C4F202031A6910431861CC
:101A300070474FF46053C4F202031A6922EA0000AF
:101A40001861704739B14FF46053C4F202035A6908
:101A50001043586170474FF46053C4F202035A694F
:101A600022EA00005861704739B14FF46053C4F264
:101A700002039A691043986170474FF46053C4F2AF
:101A800002039A6922EA00009861704739B14FF465
:101A90006053C4F202031A6A1043186270474FF48D
:101AA0006053C4F202031A6A22EA00001862704707
:101AB00039B14FF46053C4F202035A6A10435862BA
:101AC00070474FF46053C4F202035A6A22EA0000DE
:101AD0005862704739B14FF46053C4F202031A6D73
:101AE0001043186570474FF46053C4F202031A6D37
:101AF00022EA00001865704739B14FF46053C4F210
:101B000002035A6D1043586570474FF46053C4F296
:101B100002035A6D22EA00005865704739B14FF44C
:101B20006053C4F202039A6D1043986570474FF4F6
:101B30006053C4F202039A6D22EA00009865704770
:101B400039B14FF46053C4F202031A6E10431866A1
:101B500070474FF46053C4F202031A6E22EA000089
:101B60001866704739B14FF46053C4F202035A6EDD
:101B70001043586670474FF46053C4F202035A6E24
:101B800022EA00005866704739B143F60D03C4F2EB
:101B900002031A7810431870704743F60D03C4F21D
:101BA00002031A7822EA0000187070474FEA5013B7
:101BB000012B05D14FF46053C4F202031B6807E008
:101BC000022B4FF46053C4F202030CBF1B6F5B6F18
:101BD00000F01F0023FA00F000F00100704700BF82
:101BE00010B582B04FF0000301934FF0310420464E
:101BF000FFF7DCFF019B03F101030193019BB3F5A8
:101C0000A06F01D00028F2D04FF03100FFF7CEFFD7
:101C1000003018BF012002B010BD00BF4FF4605368
:101C2000C4F202035A6F42F080725A67704700BFD5
:101C30004FF46053C4F20203DB6818420CBF00206B
:101C40000120704743F60E03C4F202031870704778
:101C500008B54FF00003C4F2020398420BD14FF0D5
:101C600001000146FFF7DCFE4FF001004FF00001DC
:101C7000FFF7D6FE08BD4FF48063C4F2020398421A
:101C80000CD14FF002004FF00101FFF7C9FE4FF0F9
:101C900002004FF00001FFF7C3FE08BD4FF40063E0
:101CA000C4F2020398420CD14FF004004FF001013E
:101CB000FFF7B6FE4FF004004FF00001FFF7B0FE53
:101CC00008BD4FF44063C4F2020398420CD14FF0B8
:101CD00008004FF00101FFF7A3FE4FF008004FF09E
:101CE0000001FFF79DFE08BD4FF48053C4F20203CC
:101CF00098420CD14FF010004FF00101FFF790FE19
:101D00004FF010004FF00001FFF78AFE08BD4FF4BE
:101D1000A053C4F2020398420CD14FF020004FF0C0
:101D20000101FFF77DFE4FF020004FF00001FFF7AB
:101D300077FE08BD4FF4C053C4F2020398420CD1A1
:101D40004FF040004FF00101FFF76AFE4FF04000F6
:101D50004FF00001FFF764FE08BD4FF4E053C4F2FA
:101D6000020398420CD14FF080004FF00101FFF7C1
:101D700057FE4FF080004FF00001FFF751FE08BD05
:101D80004FF40053C4F2020398420BD14FF4807019
:101D90004FF00101FFF744FE4FF480704FF0000157
:101DA000FFF73EFE08BD00BF2DE9F0074FF000022F
:101DB00013464FF001074FF0030C1E4607FA03F4D9
:101DC0000D682540A54243D1D0F8009090460CFA0A
:101DD00002F46FEA040404EA0909C0F80090D0F89C
:101DE00000A091F8049009FA02F949EA0A09C0F83A
:101DF000009091F8049009F1FF395FFA89F9B9F17F
:101E0000010F1CD8D0F8089004EA0909C0F808901E
:101E1000D0F808A091F8059009FA02F949EA0A09F0
:101E2000C0F80890D0F8049029EA05054560456897
:101E300091F8069009FA03F6B6B22E434660C568DB
:101E40002C40C460C568CC7904FA08F42C43C46003
:101E500003F1010302F10202102BAED1BDE8F0073D
:101E6000704700BF4FF6FF7303604FF0000303712C
:101E700043718371C371704782B04FF48033019313
:101E8000019B0B430193019BC361C161019BC36132
:101E9000C3690193C369019302B070470369194292
:101EA0000CBF002001207047006980B2704700BF5E
:101EB000436919420CBF002001207047406980B27D
:101EC000704700BF01837047418370470AB10183A7
:101ED00070474183704700BF416170474369594073
:101EE0004161704730B401F007034FEA83034FEAC2
:101EF000D10101F1080150F821504FF00F0404FA0C
:101F000003F425EA040440F8214050F8214002FA85
:101F100003F3234340F8213030BC704728B943F223
:101F2000DB024FF020431A6005E043F2D2024FF08B
:101F3000204343F8202000F101016FF070424FF080
:101F4000204343F821204FF48273CAF2000343F880
:101F50002020704710B40268816843681943C36841
:101F60001943036919434369194383691943C369D1
:101F70001943036A1943436A1943836A1943C36ABD
:101F80001943036B19434FF0204343F82210836831
:101F9000082B08D102684FF0204353F8221041F07B
:101FA000400143F82210026802F10102436B9C6970
:101FB000196821435C6841EA04119C6841EA0421E4
:101FC000DC6841EA04411C6941EA04515B6941EA69
:101FD00003614FF0204343F82210C36AB3F5804FEA
:101FE00017D10268836B986919680143586841EA00
:101FF0000011986841EA0021186941EA00515B69C3
:1020000041EA03614FF48273CAF2000343F82210DD
:1020100008E002684FF48273CAF200036FF0704167
:1020200043F8221010BC704710B44FF00003036057
:102030004FF0020242608360C360036143618361C9
:10204000C36103624FF4805242624FF400528262D5
:10205000C3620363416B4FF00F020A60416B4A6039
:10206000446B4FF0FF01A160446BE260446B22615E
:10207000446B6261446BA361846B2260846B626019
:10208000846BA160816BCA60816B0A61816B4A615C
:10209000826B936110BC704741B14FF0204353F8FD
:1020A000202042F0010243F8202070474FF02042E8
:1020B00052F820104FF6FE73C0F20F030B4042F8A7
:1020C0002030704710280CBF60238023CAF2000321
:1020D0004FF018021A604FF040025A604FF0FC3285
:1020E0009A60DA60704700BF30B4446883681C436C
:1020F00044F00804C3681C4303691C43436944EA71
:102100004324836944EA4334C3695A689D684FEAAB
:10211000054545EA02251A681543DB6845EA03656B
:10212000036A59689A684FEA024242EA0122196832
:102130000A43DB6842EA03620368102B0CBF60238A
:102140008023CAF200031C609D60DA6030BC7047D7
:102150004FF0100303604FF0000343608360C360DF
:10216000036143618361C2694FF0FC031360C2697C
:102170005360C2699360C269D360026A1360026AE5
:102180005360026A9360026AD360704751B11028AD
:102190000CBF60238023CAF200031A6842F00402D5
:1021A0001A60704710280CBF60228022CAF2000219
:1021B00011684FF6FB73C0F20F030B4013607047BA
:1021C00051B110280CBF60238023CAF200031A68A3
:1021D00042F040021A60704710280CBF6022802233
:1021E000CAF2000211684FF6BF73C0F20F030B4032
:1021F00013607047102805D14FF06003CAF2000346
:10220000586970474FF08003CAF20003586970475D
:102210004FF0A003CAF200034FF018021A604FF00B
:1022200000025A604FF0FC329A60DA601A6170471F
:1022300010B4026842F01002436842EA4322836805
:1022400042EA43324FF0A003CAF200031A60C268A8
:10225000546891684FEA014141EA0421146821431E
:10226000D26841EA02629A600269546891684FEA52
:10227000014141EA042114682143D26841EA026223
:10228000DA604269506891684FEA014141EA0021F1
:1022900010680143D26841EA02621A6110BC7047BB
:1022A0004FF00003036043608360C2684FF0FC039B
:1022B0001360C2685360C2689360C268D3600269E9
:1022C000136002695360026993600269D3604269D6
:1022D000136042695360426993604269D3607047FA
:1022E00040B14FF0A003CAF200031A6842F00402A2
:1022F0001A6070474FF0A002CAF2000211684FF650
:10230000FB73C0F20F030B4013607047A2B110289B
:1023100007D14FF06003CAF200035A6811435960B5
:102320007047B0F5807F0CBF8023A023CAF2000362
:102330005A68114359607047102808D14FF0600364
:10234000CAF200035A6822EA010159607047B0F5E9
:10235000807F0CBF8023A023CAF200035A6822EAC0
:1023600001015960704700BF102805D14FF060038C
:10237000CAF200035B6807E0B0F5807F0CBF8023E2
:10238000A023CAF200035B680B420CBF00200120AF
:10239000704700BF102808D14FF06003CAF2000355
:1023A0005A6822EA010159607047B0F5807F0CBF7E
:1023B0008023A023CAF200035A6822EA010159606F
:1023C000704700BF102805D14FF06003CAF2000328
:1023D0005B6807E0B0F5807F0CBF8023A023CAF2C2
:1023E00000035B680B4205D013EAD1010CBF00204B
:1023F000012070474FF00000704700BF102808D13F
:102400004FF06003CAF200035A6822EAD101596012
:102410007047B0F5807F0CBF8023A023CAF2000371
:102420005A6822EAD1015960704700BF4FF000039B
:10243000C5F205034FF000021A60DA604FF01F0189
:1024400059619A61DA611A625A62704710B44FF0AA
:102450000003C5F205031A6822F4804222F001024B
:102460001A60196821F47E6121F012014488028803
:10247000224384882243C488224304892243448916
:1024800022438089024392B20A431A6010BC70470B
:102490004FF00003038043808380C3800381438126
:1024A000838170470288438843EA02424FF0000369
:1024B000C5F205031A628188C28842EA01425A6263
:1024C000704700BF40B14FF00003C5F205031A6822
:1024D00042F004021A6070474FF00003C5F2050392
:1024E0001A6822F004021A60704700BF43788278AD
:1024F0004FEA024242EA032203781A43C37842EACF
:1025000003624FF00003C5F205039A61704700BFF4
:1025100040B14FF00003C5F205031A6842F008020B
:102520001A6070474FF00003C5F205031A6822F0E5
:1025300008021A60704700BF40B14FF00003C5F2B7
:1025400005031A6842F480421A6070474FF0000396
:10255000C5F205031A6822F480421A60704700BF72
:1025600040B14FF00003C5F205031A6842F00102C2
:102570001A6070474FF00003C5F205031A6822F095
:1025800001021A60704700BF4FF00003C5F2050357
:10259000986A704739B14FF00003C5F20503DA6855
:1025A0001043D86070474FF00003C5F20503DA68A6
:1025B0006FEA000080B21040D86070474FEA1033D5
:1025C000012B05D14FF00003C5F205039B6807E01E
:1025D000022B4FF00003C5F205030CBF5B681B69BB
:1025E00003420CBF00200120704700BF4FF00003E2
:1025F000C5F20503586170474FF00003C5F20503AB
:102600001B6918420CBF0020012070474FF00003E7
:10261000C5F205035861704708B54FF4A843C4F2EA
:10262000000398420CD14FF400104FF00101FFF766
:102630002DFA4FF400104FF00001FFF727FA08BD04
:102640004FF4B043C4F2000398420CD14FF4800021
:102650004FF00101FFF71AFA4FF480004FF000012C
:10266000FFF714FA08BD4FF4B843C4F200039842D0
:102670000BD14FF400004FF00101FFF707FA4FF4C0
:1026800000004FF00001FFF701FA08BD70B584B0FB
:1026900004460D46868826F03F064FEA06464FEA76
:1026A00016466846FFF7C6F802994DF68362C4F2F3
:1026B0001B32A2FB01024FEA92421643A6802388F6
:1026C00023F001034FEA03434FEA134323802B68AF
:1026D00048F2A060C0F2010083420BD84FEA4303E6
:1026E000B1FBF3F189B202F101022284032998BF00
:1026F00004212EE0EE884BF6FF70864205D103EBF5
:102700004303B1FBF3F189B208E003EB830303EB6E
:102710008303B1FBF3F189B241F480414FEA0153E5
:102720004FEA13530BB941F001016FEA41416FEADF
:10273000514189B24FF4967303FB02F244F6D3532E
:10274000C1F2620383FB02034FEAA31303F1010307
:102750002384A18323889BB243F001032380238831
:1027600023F4806323F00A034FEA03434FEA134341
:102770006989AA880A4313439BB223802A89AB89BB
:1027800013439BB2238104B070BD00BF41F2883374
:1027900003604FF0000383804BF6FF72C280038119
:1027A00043814FF480438381704700BF29B1038880
:1027B0009BB243F0010303807047038823F00103B9
:1027C0004FEA03434FEA13430380704729B103885C
:1027D0009BB243F4807303807047038823F48073B3
:1027E0004FEA03434FEA13430380704729B103883C
:1027F0009BB243F4007303807047038823F4007393
:102800004FEA03434FEA13430380704712B141F08C
:10281000010101E001F0FE010182704729B1038846
:102820009BB243F4806303807047038823F4806382
:102830004FEA03434FEA134303807047838901F053
:10284000FE0123F0FE034FEA03434FEA13430B4319
:102850008381704729B183899BB243F0010383814F
:102860007047838923F001034FEA03434FEA134380
:102870008381704729B103889BB243F040030380F2
:102880007047038823F040034FEA03434FEA1343A2
:102890000380704739B103886FEA43436FEA5343BB
:1028A0009BB20380704703884FEA43434FEA534388
:1028B0000380704729B903889BB243F080030380EB
:1028C0007047038823F080034FEA03434FEA134322
:1028D00003807047B1F5804F08D0838B23F4804389
:1028E0004FEA03434FEA134383837047838B9BB2C2
:1028F00043F4804383837047B1F5006F05D10388AB
:102900009BB243F4006303807047038823F40063A1
:102910004FEA03434FEA134303807047B1F5005F6A
:1029200005D103889BB243F40053038070470388AA
:1029300023F400534FEA03434FEA134303807047E5
:1029400029B103889BB243F01003038070470388CA
:1029500023F010034FEA03434FEA13430380704709
:1029600001827047008AC0B2704700BF29B1038856
:102970009BB243F4805303807047038823F4805351
:102980004FEA03434FEA134303807047B1F5006FEA
:1029900005D103889BB243F400630380704703882A
:1029A00023F400634FEA03434FEA13430380704765
:1029B00029B103889BB243F020030380704703884A
:1029C00023F020034FEA03434FEA13430380704789
:1029D000008BC0F30720704729B183889BB243F472
:1029E000006383807047838823F400634FEA0343C6
:1029F0004FEA13438380704729B183889BB243F425
:102A0000805383807047838823F480534FEA0343C5
:102A10004FEA13438380704782B04FF00003019365
:102A20000190019BC9180191019B188880B202B0E6
:102A3000704700BF22B183889BB2194381807047E1
:102A400083889BB223EA010181807047838A9BB20D
:102A5000008B43EA0040084020F07F40814214BFD1
:102A600000200120704700BF838A9BB2008B43EA9D
:102A7000004020F07F40704782B04FF00003019388
:102A8000009300904FEA1173019321F07F41019B65
:102A900023B1009B03F11403009305E04FEA1141B9
:102AA000009B03F118030093009B1B6819420CBFA5
:102AB0000020012002B070476FEA010189B28182D3
:102AC000704700BF83889AB2838A9BB20B4207D0BB
:102AD00001F0E06112EA11410CBF002001207047B3
:102AE0004FF00000704700BF6FEA010189B2818298
:102AF000704700BF036823F0010303604FF0000339
:102B0000036043608360C36003614FF0210343614E
:102B100046F21003C4F20203984207D14FF4C043B7
:102B2000C4F202034FF03D029A60704746F2280358
:102B3000C4F20203984207D14FF4C043C4F2020327
:102B40004FF474629A60704746F24003C4F2020385
:102B5000984207D14FF4C043C4F202034FF47412F9
:102B60009A60704746F25803C4F20203984207D1B4
:102B70004FF4C043C4F202034FF074629A6070478E
:102B800046F27003C4F20203984209D14FF4C043E5
:102B9000C4F202034FF03D02C2F20002DA60704755
:102BA00046F28803C4F20203984209D14FF4C043AD
:102BB000C4F202034FF47462C2F20002DA6070479A
:102BC00046F2A003C4F20203984209D14FF4C04375
:102BD000C4F202034FF00002C2F23D02DA60704715
:102BE00046F2B803C4F20203984207D14FF4C0433F
:102BF000C4F202034FF03D52DA60704746F21043D0
:102C0000C4F20203984207D14FF4C843C4F202034E
:102C10004FF03D029A60704746F22843C4F2020327
:102C2000984207D14FF4C843C4F202034FF47462D0
:102C30009A60704746F24043C4F20203984207D1BB
:102C40004FF4C843C4F202034FF474129A60704701
:102C500046F25843C4F20203984207D14FF4C843E6
:102C6000C4F202034FF074629A60704746F27043F8
:102C7000C4F20203984209D14FF4C843C4F20203DC
:102C80004FF03D02C2F20002DA60704746F288431C
:102C9000C4F20203984209D14FF4C843C4F20203BC
:102CA0004FF47462C2F20002DA60704746F2A04349
:102CB000C4F20203984209D14FF4C843C4F202039C
:102CC0004FF00002C2F23D02DA60704746F2B843AC
:102CD000C4F20203984206D14FF4C843C4F202037F
:102CE0004FF03D52DA60704710B4026848F23F037B
:102CF000CFF21C031340CC680A6822434C6922437C
:102D00008C692243CC6922430C6A22434C6A2243D9
:102D10008C6A22434C6B22438C6B22431343036027
:102D2000426922F007020C6BCB6A234313434361D1
:102D30000B6943604B6883608B68C36010BC70474D
:102D40004FF00003036043608360C360036143612D
:102D50008361C361036243628362C362036343634B
:102D60008363704721B1036843F001030360704738
:102D7000036823F001030360704700BF21B10368BB
:102D800043F4004303607047036823F40043036087
:102D9000704700BF21B1036843F020030360704710
:102DA000036823F020030360704700BF4160704751
:102DB000406880B2704700BF22B1036843F400232B
:102DC000036003E0036823F400230360016170479C
:102DD00021B1036843F4802303607047036823F440
:102DE00080230360704700BF0AB101617047C16072
:102DF000704700BF0068C0F3C0407047006800F033
:102E000001007047406900F03800704710B446F286
:102E10000F44C4F202044FF4C842C4F202024FF459
:102E2000C043C4F20203A0428CBF1046184611F002
:102E3000005F14BF4268026840F67D73C0F67D7380
:102E40000B4013420CBF0020012010BC704700BF94
:102E500010B446F20F44C4F202044FF4C842C4F264
:102E600002024FF4C043C4F20203A0428CBF1046DA
:102E7000184611F0005F40F67D73C0F67D7301EADD
:102E8000030314BFC360836010BC704711F0800F50
:102E900009D022B1436943F08003436103E04369F1
:102EA00023F08003436180290CD02AB1036801F02C
:102EB0001E01194301607047036801F01E0123EAF7
:102EC00001010160704700BF10B446F20F44C4F224
:102ED00002044FF4C842C4F202024FF4C043C4F2E9
:102EE0000203A04298BF1A4640F63C73C0F63C73FA
:102EF0000B402BB1006800F01E0000EAD12002E078
:102F0000406900F0800011F0005F14BF5268126841
:102F100040F67D73C0F67D730B40134203D0003042
:102F200018BF012001E04FF0000010BC704700BF47
:102F300010B446F20F44C4F202044FF4C842C4F283
:102F400002024FF4C043C4F20203A0428CBF1046F9
:102F5000184611F0005F40F67D73C0F67D7301EAFC
:102F6000030314BFC360836010BC70474FF4405329
:102F7000C4F20003186070474FF44053C4F20003DA
:102F8000586070474FF44053C4F200039860704794
:102F90004FF44053C4F200034AF6AA221A60704765
:102FA0004FF44053C4F200034CF6CC421A60704711
:102FB0004FF44053C4F20003DB6818420CBF0020FA
:102FC0000120704708B54FF44053C4F20103984202
:102FD0000CD14FF480504FF00101FEF769FD4FF422
:102FE00080504FF00001FEF763FD08BD4FF46053C1
:102FF000C4F2000398420CD14FF480404FF001011D
:10300000FEF744FD4FF480404FF00001FEF73EFD17
:1030100008BD4FF47053C4F2000398420BD14FF433
:1030200000404FF00101FEF731FD4FF400404FF03A
:103030000001FEF72BFD08BD10B4028802F44152D6
:103040004C880B8823438C882343CC8823430C89EA
:1030500023434C8923438C892343CC892343134343
:103060009BB20380838B23F400634FEA03434FEA50
:10307000134383830B8A038210BC7047F0B4838BA5
:1030800023F47A6323F01F034FEA03434FEA134309
:1030900083834FF002030384848BA4B28B68022BDA
:1030A00054D08E88002E14BF022601264FF46053A0
:1030B000C4F202039B6813F4000F07D04FF460536F
:1030C000C4F202039A6822F400029A604FF460533B
:1030D000C4F20203D3F88450D3F884205F68C5F3A8
:1030E000881507F03F074FF49053C0F27A03B3FB03
:1030F000F7F303FB05F3C2F30272B3FBF2F3CA88E2
:10310000B2F5007F0EBF1B0A7601B3FBF6F303EBAB
:1031100083034FEA43038A68B3FBF2F303F1050329
:103120009BB24CF6CD42CCF6CC42A2FB03534FEA05
:10313000D30303F001024FEA5303A3F10205ADB23A
:10314000FD2D08D84FEA022292B208E04FF00002AB
:103150004FF0020303E04FF000024FF0020313436D
:10316000CA88134303840A8844EA020343F40063D1
:103170004A8813438A8813438A8913439BB2838303
:10318000F0BC70474FF00003038043808380C3800E
:10319000038143818381C3814FF00703038270471A
:1031A0004FF00003038043808380C3804FF002020E
:1031B00082608381704700BF29B103889BB243F0CE
:1031C000400303807047038823F040034FEA034322
:1031D0004FEA13430380704729B1838B9BB243F4BA
:1031E000806383837047838B23F480634FEA0343B8
:1031F0004FEA134383837047038823F400634FEA45
:1032000003434FEA1343038003889BB219430180B1
:10321000704700BFB1F5804F05D103889BB243F4DE
:10322000804303807047038823F480434FEA0343BD
:103230004FEA1343038070474FF6FF63994205D06E
:1032400003889BB243F4807303807047038823F4A0
:1032500080734FEA03434FEA13430380704700BF74
:1032600029B183889BB243F004038380704783882D
:1032700023F004034FEA03434FEA1343838070476C
:1032800029B183889BB243F0100383807047838801
:1032900023F010034FEA03434FEA13438380704740
:1032A00010B4838B23F47A6323F01F034FEA0343A4
:1032B0004FEA134383834FF002030384828B92B25D
:1032C0000B88B3F5007F05D0002B0CBF4FF4807343
:1032D000002301E04FF480734C88224342F40062E3
:1032E0008C88224389890A4392B21343838310BC9A
:1032F000704700BF808980B2704700BF81817047EE
:1033000029B103889BB243F40053038070470388BC
:1033100023F400534FEA03434FEA134303807047FB
:1033200003889BB243F4805303807047012902D085
:10333000008B80B27047808A80B27047008A80B26A
:10334000704700BF22B183889BB2194381807047C8
:1033500083889BB223EA0101818070474FEA1111F3
:103360004FF0010303FA01F189B222B183889BB2C5
:1033700019438180704783889BB223EA01018180D1
:10338000704700BF038919420CBF0020012070471D
:103390006FEA010189B20181704700BF10B48388D0
:1033A0009CB2028992B201F00F034FF0010000FAC3
:1033B00003F31A4208D04FEA111100FA01F10C424E
:1033C0000CBF0020012001E04FF0000010BC70474E
:1033D00001F00F014FF0010303FA01F36FEA030359
:1033E0009BB20381704700BFF0B583B04FF004007B
:1033F0004FF00101FEF750FE4FF00400FEF78EFD86
:103400004CF2037300934FF000048DF804408DF8E4
:1034100007404FF44066C4F2020630466946FEF7A4
:10342000C3FC304621462246FEF75CFD30464FF095
:1034300001012246FEF756FD30464FF008012246B4
:10344000FEF750FD30464FF009012246FEF74AFDD7
:1034500030464FF00A012246FEF744FD30464FF059
:103460000E012246FEF73EFD30464FF00F01224688
:10347000FEF738FD4FF6807300934FF48057C4F287
:10348000020738466946FEF78FFC38464FF00701C1
:103490002246FEF727FD38464FF008012246FEF788
:1034A00021FD38464FF009012246FEF71BFD384644
:1034B0004FF00A012246FEF715FD38464FF00B018A
:1034C0002246FEF70FFD38464FF00C012246FEF76C
:1034D00009FD38464FF00D012246FEF703FD384640
:1034E0004FF00E012246FEF7FDFC38464FF00F016B
:1034F0002246FEF7F7FC4FF23F0300934FF4A0552E
:10350000C4F2020528466946FEF74EFC28462146CD
:103510002246FEF7E7FC28464FF001012246FEF75F
:10352000E1FC28464FF002012246FEF7DBFC28466C
:103530004FF003012246FEF7D5FC28464FF0040168
:103540002246FEF7CFFC28464FF005012246FEF743
:10355000C9FC28464FF00C012246FEF7C3FC284662
:103560004FF00D012246FEF7BDFC28464FF00E013C
:103570002246FEF7B7FC28464FF00F012246FEF721
:10358000B1FC4FF03F0300934FF4C055C4F2020565
:1035900028466946FEF708FC284621462246FEF7E3
:1035A000A1FC28464FF001012246FEF79BFC28466D
:1035B0004FF002012246FEF795FC28464FF003012A
:1035C0002246FEF78FFC28464FF004012246FEF704
:1035D00089FC28464FF005012246FEF783FC4FF494
:1035E0006053009330466946FEF7DEFB30464FF0ED
:1035F0000B012246FEF776FC30464FF00C012246C6
:10360000FEF770FC30464FF00D012246FEF76AFCD3
:103610004FF03003009330466946FEF7C5FB304655
:103620004FF004012246FEF75DFC30464FF00501E5
:103630002246FEF757FC4FF4806300932846694604
:10364000FEF7B2FB28464FF00C012246FEF74AFC7B
:103650004FF00303009338466946FEF7A5FB384652
:1036600021462246FEF73EFC38464FF00101224635
:10367000FEF738FC03B0F0BDF0B583B04FF01A0090
:103680004FF00101FEF772F94CF2B37300934FF063
:1036900002038DF804308DF805304FF000068DF8E8
:1036A00006604FF001078DF807704FF44064C4F2D4
:1036B000020420466946FEF777FB204631464FF06C
:1036C0000C02FEF70FFC204639464FF00C02FEF7C5
:1036D00009FC20464FF004014FF00C02FEF702FCFB
:1036E00020464FF005014FF00C02FEF7FBFB204691
:1036F0004FF007014FF00C02FEF7F4FB20464FF0AD
:1037000008014FF00C02FEF7EDFB20464FF00901D7
:103710004FF00C02FEF7E6FB20464FF00A014FF097
:103720000C02FEF7DFFB20464FF00E014FF00C02BB
:10373000FEF7D8FB20464FF00F014FF00C02FEF7CA
:10374000D1FB4FF6887300934FF48055C4F2020505
:1037500028466946FEF728FB28464FF003014FF044
:103760000C02FEF7BFFB28464FF007014FF00C029A
:10377000FEF7B8FB28464FF008014FF00C02FEF7A9
:10378000B1FB28464FF009014FF00C02FEF7AAFBEF
:1037900028464FF00A014FF00C02FEF7A3FB284623
:1037A0004FF00B014FF00C02FEF79CFB28464FF048
:1037B0000C010A46FEF796FB28464FF00D014FF02C
:1037C0000C02FEF78FFB28464FF00E014FF00C0263
:1037D000FEF788FB28464FF00F014FF00C02FEF772
:1037E00081FB4FF0080300938DF804708DF805609D
:1037F0008DF806608DF8076020466946FEF7D4FA1A
:103800004FF4005500958DF804708DF805708DF813
:1038100006608DF8076020466946FEF7C5FA204627
:103820002946FEF74FFB03B0F0BD00BF10B596B0C0
:103830004FF001000146FEF7BDF84FF0050300937D
:103840004FF00004019402930394049405940694A9
:103850000794089409944FF010030A930B940C9466
:103860000D940E940F944FF480531093119412946E
:1038700013940DEB04031493159307A8FEF76AFB4A
:1038800020464FF00101FEF707FC16B010BD00BF47
:103890004FF0C04318804FF00003C6F210031980A8
:1038A000704700BF10B503460C464FF04E00194656
:1038B000FFF7EEFF4FF04F002146FFF7E9FF10BD85
:1038C0004FF0C04318804FF00003C6F21003188871
:1038D00080B270474FF022024FF0C0431A80704709
:1038E0004FF00003C6F21003188070474FF000033A
:1038F000C6F21003188880B2704700BF08B54FF0B9
:1039000000000146FFF7CEFFFFF7E4FF4FF4C84386
:103910004FF00002C6F210024FF600011180013B89
:10392000FCD14FF4C8434FF00002C6F210024FF42E
:10393000FC611180013BFCD14FF4C8434FF0000201
:10394000C6F210024FF01F011180013BFCD108BDEF
:1039500082B0ADF80600ADF80410BDF8062092B2B2
:103960004FF6EC73C2F201031A80BDF8042092B244
:1039700040F25403C2F200031A8002B0704700BF45
:103980004FF6EC73C2F201031B889BB2038040F236
:103990005403C2F200031B889BB20B80704700BF28
:1039A00082B0ADF80600BDF8062092B24FF6EC7377
:1039B000C2F201031A8002B0704700BF82B0ADF8B6
:1039C0000600BDF8062092B240F25403C2F2000392
:1039D0001A8002B0704700BF704700BF704700BF39
:1039E0004FF6EC73C2F20103586070474FF6EC7368
:1039F000C2F201035868704710B504464FF000004A
:103A00000146FFF74FFFFFF765FF4FF496334FF086
:103A10000002C6F210021480013BFCD110BD00BFB1
:103A20002DE9F84F8B4690464FF6EC73C2F2010336
:103A30005D68EB88002B53D082464FF000064AF6B3
:103A4000AB27CAF6AA2740F25409C2F20009584629
:103A50005146FFF727FFFFF73DFFAB8873B34FF0E9
:103A6000000438F816102046A7FB032E4FF6F87214
:103A70000EEA02024FF0800E0EFA02F242FA04F24F
:103A80000A4201D10C2B06D941FA00F111F0010FC5
:103A900007D10C2B05D9B9F8000080B2FFF720FF41
:103AA00007E04FF6EC73C2F20103188880B2FFF70B
:103AB00017FF04F10104AB88A342D2D80AF1010A2E
:103AC0001FFA8AFA58465146FFF7ECFE06F1010646
:103AD0004FF6EC73C2F201035D68EB88B342B6D8CF
:103AE000BDE8F88F10B5A2F12004E4B25A2C0ED92B
:103AF000BF2A03D9A2F16102D4B208E0A82A04D0F7
:103B0000B82A14BF1446A02401E04FF09F044FF6DA
:103B1000EC73C2F201035B68DA8802FB04F21B68F3
:103B200003EB4202FFF77CFF10BD00BF2DE9F0411F
:103B300006464FF000044FF020074FF6EC75C2F236
:103B4000010540F23F18304621463A46FFF7CAFFCA
:103B50006B689B88E418A4B24445F4D9BDE8F081B1
:103B60002DE9F04107460A78B2B10E464FF0000445
:103B70004FF6EC75C2F2010540F23F183846214677
:103B8000FFF7B0FF6B689B88E418A4B2444503D8E4
:103B900016F8012F002AF1D1BDE8F081F8B50446EE
:103BA0000E4615461F464FF045002146FFF770FEB2
:103BB0006319B3F5A07F06DB4FF0460040F23F11DA
:103BC000FFF766FE05E02D19A9B24FF04600FFF79A
:103BD0005FFEF719EF2FD4BF39024FF46F41214335
:103BE00089B24FF04400FFF753FE20463146FFF7FD
:103BF00059FEF8BD704700BF2DE9F04106460C465E
:103C000090461D46FFF74EFE2DB14746B8F1000F16
:103C100017D1BDE8F081FFF75DFE4546B8F1000F12
:103C200027D04FF000044FF6EC76C2F20106308840
:103C300080B2FFF755FE04F10104AC42F7D3BDE8B2
:103C4000F0814FF000054FF6EC78C2F20108FFF763
:103C500041FEB8F8000080B2FFF742FE04F1010413
:103C6000A4B230462146FFF71DFE05F10105BD4215
:103C7000EDD3BDE8F08100BF08B580B2B0F5A07FFC
:103C80000AD2002908DBEF2906DC89B24FF00102D5
:103C90004FF00003FFF7B0FF08BD00BFF8B50446C2
:103CA0000D4617461E461A464FF00103FFF7A4FFC4
:103CB00004F1FF30381880B2294632464FF0010334
:103CC000FFF79AFF204629463A464FF00003FFF7D8
:103CD00093FF7519A9B220463A464FF00003FFF74B
:103CE0008BFFF8BD2DE9F04F85B081468A464FEA3B
:103CF0004203C3F10303029390464FF000054FF6D1
:103D0000EC74C2F20104AEB206EB090B1FFA8BFB96
:103D10001FFA88F707EB0A039BB20193584619462E
:103D2000FFF7C0FDFFF7D6FD208880B2FFF7D8FD72
:103D3000C7EB0A039BB2039358461946FFF7B2FD3F
:103D4000FFF7C8FD208880B2FFF7CAFDC6EB090B5C
:103D50001FFA8BFB58460199FFF7A4FDFFF7BAFD48
:103D6000208880B2FFF7BCFD58460399FFF79AFD03
:103D7000FFF7B0FD208880B2FFF7B2FD07EB090B1B
:103D80001FFA8BFB0AEB06039BB2019358461946B8
:103D9000FFF788FDFFF79EFD208880B2FFF7A0FDAA
:103DA000C6EB0A06B6B258463146FFF77BFDFFF771
:103DB00091FD208880B2FFF793FDC7EB0907BFB2E2
:103DC00038460199FFF76EFDFFF784FD208880B229
:103DD000FFF786FD38463146FFF764FDFFF77AFDB1
:103DE000208880B2FFF77CFD029A002A05DA02EBF8
:103DF000850303F10603029309E0029A02F10A0324
:103E0000C8EB050203EB8202029208F1FF3805F1CC
:103E10000105A845BFF477AF05B0BDE8F08F00BF3E
:103E20002DE9F04106464FF0000040F23F11FFF748
:103E300039FDFFF74FFD4FF000054FF6EC78C2F269
:103E4000010817E007FA04F273591A4203BF40F25F
:103E50005403C2F200031888B8F8000080B2FFF7DC
:103E60003FFD04F10104202CECD105F10405B5F56A
:103E7000165F04D04FF000044FF00107E2E7BDE801
:103E8000F08100BF704700BF2DE9F84306460C469D
:103E9000174698464FF6EC73C2F20103188880B2B9
:103EA000FFF77EFD304621463A464FF00003FFF70C
:103EB000A3FE08EB040189B230463A464FF00003F6
:103EC000FFF79AFE3046214642464FF00103FFF7C6
:103ED00093FE06F1FF30381880B2214642464FF07B
:103EE0000103FFF789FE40F25403C2F20003188871
:103EF00080B2FFF755FDB8F1010F19D004F10104AC
:103F0000A1B2A8F102081FFA88F808F101084FF0E1
:103F10000004A14600E0294601F10105ADB230469A
:103F20003A464B46FFF768FE04F101044445F2D1DE
:103F30004FF6EC73C2F20103188880B2FFF730FD30
:103F4000BDE8F8832DE9F04F85B0814602910392D8
:103F50004FEA4206C6F10306154640F25403C2F288
:103F60000003188880B2FFF71BFD4F464FF0000496
:103F7000A046B5B1029A02EB050A1FFA8AFA4FEA87
:103F8000450B1FFA8BFB384651465A464346FFF70E
:103F900033FE09EB040080B251465A464346FFF710
:103FA0002BFEDCB11FFA85FAA3B2029A03EB020BD7
:103FB0001FFA8BFB4FEA43039BB20193CAEB090044
:103FC00080B259461A464346FFF716FECA441FFA06
:103FD0008AF05946019A4346FFF70EFE002E04DA96
:103FE00006EB840606F1060606E006F10A06631BE8
:103FF00006EB830605F1FF3504F1010407F1FF37F5
:10400000BFB2A542B5D24FF6EC73C2F201031888D5
:1040100080B2FFF7C5FC48460299039AFFF762FE9B
:1040200005B0BDE8F08F00BF2DE9F04F85B0151A3F
:10403000002DB8BF6D42ADB25C1A002CB8BF64420F
:10404000A4B24FF6FF76824228BF012602964FF6B1
:10405000FF728B4228BF012203922AB223B29A42F6
:104060000CDB02EBD276C6F34F06A1460195DDF8D4
:1040700008B04FF00002029292460CE026B206EB26
:10408000D676C6F34F06A9460194DDF80CA04FF092
:10409000000303939B46019A12F4004F22D185B28C
:1040A0008CB24FF000070FFA82F828B221B2FFF766
:1040B000E3FD4E44B3B29EB232B2904508DC019AA1
:1040C0009E1AB6B2029BED18ADB2039AA418A4B220
:1040D0005D44ADB25444A4B207F10107BFB23BB294
:1040E0009845E2DA05B0BDE8F08F00BF2DE9F04F4A
:1040F00083B000900192012936D90788B0F8029068
:1041000028D0824600F10403A1F1020B1FFA8BFBB9
:1041100003EB8B0B1E460546CAEB0504BFB204EB4E
:1041200006081FFA89F9A25BBA1892B2B8F80230F1
:104130004B449BB238464946FFF776FFA35BFF1816
:10414000BFB2B8F8023099441FFA89F905F10405A5
:104150005D45E1D1019A3AB1009B18885988BAB2FD
:104160001FFA89F3FFF760FF03B0BDE8F08F00BFCF
:10417000F8B5012916D915D0064600F10403A1F1BE
:104180000207BFB203EB870704461D46A31B208826
:1041900061885A5B5B195B88FFF746FF04F10404F2
:1041A000BC42F3D1F8BD00BF38B504460D46FFF759
:1041B000DFFF05F1FF3504EB85032088618834F8C3
:1041C00025205B88FFF730FF38BD00BF08B54FF0F2
:1041D0000002FFF78BFF08BD08B54FF00102FFF7A3
:1041E00085FF08BD2DE9F04FEFB007460691B0F806
:1041F00000B04388012940F221811FFA8BFB9BB25A
:10420000089302469946CDF824B04FF00103584672
:104210004C460D46D188814238BF0846594528BFD3
:104220008B4632F8041F494538BF8946A14228BF52
:104230000C4603F101039BB2AB42EBD10990089409
:1042400040F25403C2F20003188880B2FFF7A8FBC3
:10425000089CA14580F0E78040F25403C2F20003BD
:104260000593069E002E64D006F1FF35ADB24FF0E7
:1042700000042646A246CDF81CB0DDF818B001E0D7
:1042800035461E4637F804800FFA88F003F02CFC00
:10429000CDE90201484603F017FCCDE90001DDE954
:1042A0000201DDE9002303F0E5FC50B137F92500F8
:1042B00003F01AFC02460B46DDE9000103F0E4FCC2
:1042C00088B937F9250003F00FFC02460B46DDE9FB
:1042D000000103F0EDFC10B3DDE90201DDE900238C
:1042E00003F0DCFCD8B13B195B880FFA88F807EBC8
:1042F0008501C8EB0902B1F9020019B2411A01FBAC
:1043000002F137F92520C8EB020891FBF8F8434485
:104310000AA820F81A300AF1010A1FFA8AFA06F1EF
:1043200001039BB204F104045B45A9D1DDF81CB084
:1043300001E04FF0000A4FF000030AF1FF3515E0ED
:104340000AAA32F8131003F101020AAE36F812007D
:10435000814208D926F8140026F8121033B103F16F
:10436000FF339BB202E003F101039BB21C46AB4258
:10437000E6DBBAF1000F4ED0BDF828309B454AD994
:104380004FF000063446DDF82480009705E026460D
:104390000AA830F814305B453CD206F101050AA9A1
:1043A00031F8152042452ED9434538BF21F81680F3
:1043B0000AAA32F815305B4588BF22F815B0059B74
:1043C000188880B2FFF7ECFA0AA830F8155030F8D8
:1043D0001660AA1B92B2484629464FF00003FFF729
:1043E0000BFC4FF6EC73C2F20103188880B2FFF7A2
:1043F000D7FA0FFA89F729B23846FFF73DFC31B2F8
:104400003846FFF739FC04F10204A4B2A245BED835
:10441000009F00E0009F09F101091FFA89F9089E39
:104420004E453FF61EAF4FF6EC73C2F201031888FB
:1044300080B2FFF7B5FA6FB0BDE8F08F40F25403D9
:10444000C2F20003188880B2FFF7AAFAEBE700BFB8
:1044500084B001904FF000030393019B42F210726D
:1044600002FB03F30393039B33B1039B03F1FF337D
:104470000393039B002BF8D104B0704738B5FFF7C6
:10448000FBF8FFF7D3F94FF00500FFF7E1FF4FF41A
:104490004064C4F2020420464FF00801FDF714FD09
:1044A0004FF00A00FFF7D4FF20464FF00801FDF758
:1044B00009FD4FF010004FF00101FFF7E9F94FF04F
:1044C0001E004FF0B201FFF7E3F94FF028004FF064
:1044D0000601FFF7DDF94FF000004FF00101FFF793
:1044E000D7F94FF0010043F2EF01FFF7D1F94FF098
:1044F00002004FF4C061FFF7CBF94FF010004FF00E
:104500000001FFF7C5F94FF00500FFF7A1FF4FF0DD
:10451000110046F63001FFF7BBF94FF0120040F6EC
:104520009911FFF7B5F94FF026004FF46051FFF7EE
:10453000AFF94FF007004FF03301FFF7A9F94FF043
:104540000C004FF00501FFF7A3F94FF030004FF0DA
:104550000001FFF79DF94FF0310040F20331FFF702
:1045600097F94FF0320040F20741FFF791F94FF011
:10457000330040F20131FFF78BF94FF0340040F285
:104580000131FFF785F94FF0350040F20341FFF7A5
:104590007FF94FF0360040F20771FFF779F94FF0DD
:1045A00037004FF48061FFF773F94FF03A004FF492
:1045B0002061FFF76DF94FF03B004FF48051FFF79A
:1045C00067F94FF00D004FF00A01FFF761F94FF066
:1045D0000E004FF43851FFF75BF94FF044004FF4F1
:1045E0006F41FFF755F94FF045004FF00001FFF71D
:1045F0004FF94FF0460040F23F11FFF749F94FF0F5
:104600004E004FF00001FFF743F94FF04F004FF01D
:104610000001FFF73DF94FF022004FF00001FFF7D6
:1046200037F94FF496344FF000052846FFF758F954
:10463000013CFAD140F27000C2F20000FFF7D0F95D
:1046400038BD00BFF0B583B04FF008004FF0010156
:10465000FDF78CF94FF4805600964FF001078DF866
:1046600004704FF000058DF805508DF806508DF858
:1046700007504FF44064C4F2020420466946FDF737
:1046800093FB20463146FDF71FFC4FF00A00FCF774
:1046900045FE20463146FDF715FC4FF040060096DA
:1046A0008DF804708DF805508DF806508DF8075080
:1046B00020466946FDF778FB20463146FDF704FCAD
:1046C00003B0F0BD2DE9F8430746884691464FF404
:1046D000A840C4F200004FF00101FEF777F842F263
:1046E00011744FF4A845C4F200054FF00106C0F262
:1046F000030601E0013C62D028463146FEF7A6F9E8
:104700000028F7D04FF4A840C4F2000039464FF01B
:104710000002FEF77BF842F211744FF4A845C4F290
:1047200000054FF08206C0F2070601E0013C4AD0C6
:1047300028463146FEF78AF90028F7D04FF4A84002
:10474000C4F200005FFA88F1FEF70AF942F2117430
:104750004FF4A845C4F200054FF08406C0F20706E6
:1047600001E0013C33D028463146FEF76FF90028BE
:10477000F7D04FF4A840C4F200004946FEF7F0F825
:1047800042F211744FF4A845C4F200054FF08406BC
:10479000C0F2070601E0013C1DD028463146FEF775
:1047A00055F90028F7D04FF4A840C4F200004FF0AC
:1047B0000101FEF71BF84FF00000BDE8F8834FF051
:1047C000FF00BDE8F8834FF0FF00BDE8F8834FF02D
:1047D000FF00BDE8F8834FF0FF00BDE8F88300BF9D
:1047E00008B502464FF060004FF04001FFF76AFF46
:1047F00008BD00BF08B502464FF060004FF032011F
:10480000FFF760FF08BD00BF08B503460A464FF03A
:1048100060001946FFF756FF08BD00BF08B5024605
:104820004FF060004FF01201FFF74CFF08BD00BFD2
:1048300008B502464FF060004FF01201FFF742FF4B
:1048400008BD00BF08B502464FF060004FF01101EF
:10485000FFF738FF08BD00BF08B54FF00100FCF7B7
:104860005DFD4FF060004FF000010A46FFF72AFFA0
:104870004FF00100FCF752FD4FF060004FF00101D6
:104880004FF08002FFF71EFF4FF00100FCF746FDDE
:104890004FF060004FF002014FF08002FFF712FF6F
:1048A0004FF00100FCF73AFD4FF060004FF00301BC
:1048B0004FF00202FFF706FF4FF00100FCF72EFD5C
:1048C0004FF060004FF004014FF00302FFF7FAFED3
:1048D0004FF00100FCF722FD4FF060004FF009019E
:1048E0004FF00102FFF7EEFE4FF00100FCF716FD5E
:1048F0004FF060004FF00B014FF05702FFF7E2FE60
:104900004FF00100FCF70AFD4FF060004FF00E0180
:104910004FF06102FFF7D6FE4FF00100FCF7FEFCFE
:104920004FF060004FF00F014FF04002FFF7CAFE5A
:104930004FF00100FCF7F2FC4FF060004FF0110166
:104940004FF00102FFF7BEFE4FF00100FCF7E6FC5E
:104950004FF060004FF012014FF06202FFF7B2FE1D
:104960004FF00100FCF7DAFC4FF060004FF013014C
:104970004FF0C702FFF7A6FE4FF00100FCF7CEFC98
:104980004FF060004FF014014FF03A02FFF79AFE2B
:104990004FF00100FCF7C2FC4FF060004FF0160131
:1049A0004FF02402FFF78EFE4FF00100FCF7B6FC3B
:1049B0004FF060004FF017014FF01802FFF782FE32
:1049C0004FF00100FCF7AAFC4FF060004FF0180117
:1049D0004FF00402FFF776FE4FF00100FCF79EFC5B
:1049E0004FF060004FF019014FF00102FFF76AFE2F
:1049F0004FF00100FCF792FC4FF060004FF01A01FD
:104A00004FF08102FFF75EFE4FF00100FCF786FCDD
:104A10004FF060004FF01E014FF02002FFF752FEF2
:104A20004FF00100FCF77AFC4FF060004FF02401DA
:104A30004FF03C02FFF746FE4FF00100FCF76EFC22
:104A40004FF060004FF025014FF03602FFF73AFEBD
:104A50004FF00100FCF762FC4FF060004FF02601C0
:104A60004FF07202FFF72EFE4FF00100FCF756FCEC
:104A70004FF060004FF027014FF00802FFF722FED1
:104A80004FF00100FCF74AFC4FF060004FF02801A6
:104A90004FF00802FFF716FE4FF00100FCF73EFC56
:104AA0004FF060004FF029014FF01502FFF70AFEAA
:104AB0004FF00100FCF732FC4FF060004FF02A018C
:104AC0004FF00002FFF7FEFD4FF00100FCF726FC5F
:104AD0004FF060004FF02B014FF00002FFF7F2FDA6
:104AE0004FF00100FCF71AFC4FF060004FF02C0172
:104AF0004FF00802FFF7E6FD4FF00100FCF70EFC57
:104B00004FF060004FF032014FF0A402FFF7DAFDE2
:104B10004FF00100FCF702FC4FF060004FF0330152
:104B20004FF00002FFF7CEFD4FF00100FCF7F6FB5F
:104B30004FF060004FF034014FF03F02FFF7C2FD2D
:104B40004FF00100FCF7EAFB4FF060004FF0350139
:104B50004FF00002FFF7B6FD4FF00100FCF7DEFB5F
:104B60004FF060004FF036014FF03A02FFF7AAFD18
:104B70004FF00100FCF7D2FB4FF060004FF038011E
:104B80004FF07202FFF79EFD4FF00100FCF7C6FBED
:104B90004FF060004FF039014FF05702FFF792FDE0
:104BA0004FF00100FCF7BAFB4FF060004FF03A0104
:104BB0004FF0CC02FFF786FD4FF00100FCF7AEFB93
:104BC0004FF060004FF03B014FF00402FFF77AFD19
:104BD0004FF00100FCF7A2FB4FF060004FF03D01E9
:104BE0004FF09902FFF76EFD4FF00100FCF796FBC6
:104BF0004FF060004FF03E014FF00E02FFF762FDF4
:104C00004FF00100FCF78AFB4FF060004FF03F01CE
:104C10004FF0C102FFF756FD4FF00100FCF77EFB9D
:104C20004FF060004FF040014FF0C002FFF74AFD27
:104C30004FF00100FCF772FB4FF060004FF04101B4
:104C40000A46FFF73FFD4FF00100FCF767FB4FF00E
:104C500060004FF042014FF0C002FFF733FD4FF00C
:104C60000100FCF75BFB4FF060004FF043014FF099
:104C70000A02FFF727FD4FF00100FCF74FFB4FF052
:104C800060004FF044014FF0F002FFF71BFD4FF0C2
:104C90000100FCF743FB4FF060004FF045014FF07F
:104CA0004602FFF70FFD4FF00100FCF737FB4FF016
:104CB00060004FF046014FF06202FFF703FD4FF036
:104CC0000100FCF72BFB4FF060004FF047014FF065
:104CD0002A02FFF7F7FC4FF00100FCF71FFB4FF033
:104CE00060004FF048014FF03C02FFF7EBFC4FF043
:104CF0000100FCF713FB4FF060004FF04A014FF04A
:104D0000FC02FFF7DFFC4FF00100FCF707FB4FF060
:104D100060004FF04B014FF0FC02FFF7D3FC4FF067
:104D20000100FCF7FBFA4FF060004FF04C014FF030
:104D30007F02FFF7C7FC4FF00100FCF7EFFA4FF0DE
:104D400060004FF04D014FF07F02FFF7BBFC4FF0CA
:104D50000100FCF7E3FA4FF060004FF04E014FF016
:104D60007F02FFF7AFFC4FF00100FCF7D7FA4FF0DE
:104D700060004FF04F014FF09802FFF7A3FC4FF097
:104D80000100FCF7CBFA4FF060004FF050014FF0FC
:104D90009802FFF797FC4FF00100FCF7BFFA4FF0C5
:104DA00060004FF051014FF00002FFF78BFC4FF015
:104DB0000100FCF7B3FA4FF060004FF052014FF0E2
:104DC0002802FFF77FFC4FF00100FCF7A7FA4FF035
:104DD00060004FF053014FF07002FFF773FC4FF08B
:104DE0000100FCF79BFA4FF060004FF054014FF0C8
:104DF0009802FFF767FC4FF00100FCF78FFA4FF0C5
:104E000060004FF058014FF01A02FFF75BFC4FF0C3
:104E10000100FCF783FA4FF060004FF059014FF0AA
:104E20008502FFF74FFC4FF00100FCF777FA4FF0D7
:104E300060004FF05A014FF0A902FFF743FC4FF01A
:104E40000100FCF76BFA4FF060004FF05B014FF090
:104E50006402FFF737FC4FF00100FCF75FFA4FF0F8
:104E600060004FF05C014FF08402FFF72BFC4FF025
:104E70000100FCF753FA4FF060004FF05D014FF076
:104E80005302FFF71FFC4FF00100FCF747FA4FF009
:104E900060004FF05E014FF00E02FFF713FC4FF081
:104EA0000100FCF73BFA4FF060004FF05F014FF05C
:104EB000F002FFF707FC4FF00100FCF72FFA4FF06C
:104EC000600001464FF0F002FFF7FCFB4FF00100DD
:104ED000FCF724FA4FF060004FF061014FF0F00250
:104EE000FFF7F0FB4FF00100FCF718FA4FF06000FD
:104EF0004FF062014FF00002FFF7E4FB4FF00100BA
:104F0000FCF70CFA4FF060004FF063014FF0000225
:104F1000FFF7D8FB4FF00100FCF700FA4FF06000FC
:104F20004FF064014FF00202FFF7CCFB4FF001009D
:104F3000FCF7F4F94FF060004FF065014FF02002EC
:104F4000FFF7C0FB4FF00100FCF7E8F94FF06000FD
:104F50004FF066014FF00002FFF7B4FB4FF0010085
:104F6000FCF7DCF94FF060004FF069014FF00A02E6
:104F7000FFF7A8FB4FF00100FCF7D0F94FF06000FD
:104F80004FF06B014FF05A02FFF79CFB4FF001000E
:104F9000FCF7C4F94FF060004FF06C014FF00402D1
:104FA000FFF790FB4FF00100FCF7B8F94FF06000FD
:104FB0004FF06D014FF05502FFF784FB4FF00100F9
:104FC000FCF7ACF94FF060004FF06E014FF00002BB
:104FD000FFF778FB4FF00100FCF7A0F94FF06000FD
:104FE0004FF06F014FF09D02FFF76CFB4FF0010097
:104FF000FCF794F94FF060004FF070014FF0210280
:10500000FFF760FB4FF00100FCF788F94FF06000FC
:105010004FF071014FF07802FFF754FB4FF00100A1
:10502000FCF77CF94FF060004FF072014FF0220264
:10503000FFF748FB4FF00100FCF770F94FF06000FC
:105040004FF073014FF00202FFF73CFB4FF00100FD
:10505000FCF764F94FF060004FF074014FF010025C
:10506000FFF730FB4FF00100FCF758F94FF06000FC
:105070004FF075014FF01002FFF724FB4FF00100D5
:10508000FCF74CF94FF060004FF076014FF0010251
:10509000FFF718FB4FF00100FCF740F94FF06000FC
:1050A0004FF077014FF00202FFF70CFB4FF00100C9
:1050B000FCF734F94FF060004FF07A014FF0120224
:1050C000FFF700FB4FF00100FCF728F94FF06000FC
:1050D0004FF07B014FF00802FFF7F4FA4FF00100A8
:1050E000FCF71CF94FF060004FF07C014FF0160206
:1050F000FFF7E8FA4FF00100FCF710F94FF06000FD
:105100004FF07D014FF03002FFF7DCFA4FF0010065
:10511000FCF704F94FF060004FF07E014FF05E02A3
:10512000FFF7D0FA4FF00100FCF7F8F84FF06000FD
:105130004FF07F014FF07202FFF7C4FA4FF0010009
:10514000FCF7ECF84FF060004FF080014FF0820266
:10515000FFF7B8FA4FF00100FCF7E0F84FF06000FD
:105160004FF081014FF08E02FFF7ACFA4FF00100D3
:10517000FCF7D4F84FF060004FF082014FF09A0234
:10518000FFF7A0FA4FF00100FCF7C8F84FF06000FD
:105190004FF083014FF0A402FFF794FA4FF00100A3
:1051A000FCF7BCF84FF060004FF084014FF0AC0208
:1051B000FFF788FA4FF00100FCF7B0F84FF06000FD
:1051C0004FF085014FF0B802FFF77CFA4FF0010075
:1051D000FCF7A4F84FF060004FF086014FF0C302D7
:1051E000FFF770FA4FF00100FCF798F84FF06000FD
:1051F0004FF087014FF0D602FFF764FA4FF001003D
:10520000FCF78CF84FF060004FF088014FF0E60299
:10521000FFF758FA4FF00100FCF780F84FF06000FC
:105220004FF089014FF0F202FFF74CFA4FF0010006
:10523000FCF774F84FF060004FF08A014FF0240241
:10524000FFF740FA4FF00100FCF768F84FF06000FC
:105250004FF08C014FF08002FFF734FA4FF001005D
:10526000FCF75CF84FF060004FF090014FF07D02CA
:10527000FFF728FA4FF00100FCF750F84FF06000FC
:105280004FF091014FF07B02FFF71CFA4FF0010045
:10529000FCF744F84FF060004FF09D014FF0020220
:1052A000FFF710FA4FF00100FCF738F84FF06000FC
:1052B0004FF09E014FF00202FFF704FA4FF0010099
:1052C000FCF72CF84FF060004FF09F014FF07A028E
:1052D000FFF7F8F94FF00100FCF720F84FF06000FD
:1052E0004FF0A0014FF07902FFF7ECF94FF0010009
:1052F000FCF714F84FF060004FF0A1014FF04002AE
:10530000FFF7E0F94FF00100FCF708F84FF06000FC
:105310004FF0A4014FF05002FFF7D4F94FF0010015
:10532000FBF7FCFF4FF060004FF0A5014FF0680263
:10533000FFF7C8F94FF00100FBF7F0FF4FF06000F6
:105340004FF0A6014FF04A02FFF7BCF94FF0010001
:10535000FBF7E4FF4FF060004FF0A8014FF0C102EF
:10536000FFF7B0F94FF00100FBF7D8FF4FF06000F6
:105370004FF0A9014FF0EF02FFF7A4F94FF0010041
:10538000FBF7CCFF4FF060004FF0AA014FF0920204
:10539000FFF798F94FF00100FBF7C0FF4FF06000F6
:1053A0004FF0AB014FF00402FFF78CF94FF0010012
:1053B000FBF7B4FF4FF060004FF0AC014FF08002FC
:1053C000FFF780F94FF00100FBF7A8FF4FF06000F6
:1053D0004FF0AD014FF08002FFF774F94FF001007C
:1053E000FBF79CFF4FF060004FF0AE014FF08002E2
:1053F000FFF768F94FF00100FBF790FF4FF06000F6
:105400004FF0AF014FF08002FFF75CF94FF0010061
:10541000FBF784FF4FF060004FF0B2014FF0F20253
:10542000FFF750F94FF00100FBF778FF4FF06000F5
:105430004FF0B3014FF02002FFF744F94FF00100A5
:10544000FBF76CFF4FF060004FF0B4014FF020020B
:10545000FFF738F94FF00100FBF760FF4FF06000F5
:105460004FF0B5014FF00002FFF72CF94FF00100AB
:10547000FBF754FF4FF060004FF0B6014FF0AF0262
:10548000FFF720F94FF00100FBF748FF4FF06000F5
:105490004FF0B6014FF0AF02FFF714F94FF00100E3
:1054A000FBF73CFF4FF060004FF0BB014FF0AE0246
:1054B000FFF708F94FF00100FBF730FF4FF06000F5
:1054C0004FF0BC014FF07F02FFF7FCF84FF00100F6
:1054D000FBF724FF4FF060004FF0BD014FF07F025B
:1054E000FFF7F0F84FF00100FBF718FF4FF06000F6
:1054F0004FF0BE014FF07F02FFF7E4F84FF00100DC
:10550000FBF70CFF4FF060004FF0BF014FF07F0240
:10551000FFF7D8F84FF00100FBF700FF4FF06000F5
:105520004FF0BF014FF07F02FFF7CCF84FF00100C2
:10553000FBF7F4FE4FF060004FF0C0014FF0AA02FD
:10554000FFF7C0F84FF00100FBF7E8FE4FF06000F6
:105550004FF0C1014FF0C002FFF7B4F84FF0010067
:10556000FBF7DCFE4FF060004FF0C2014FF001028C
:10557000FFF7A8F84FF00100FBF7D0FE4FF06000F6
:105580004FF0C3014FF04E02FFF79CF84FF00100BF
:10559000FBF7C4FE4FF060004FF0C6014FF005026C
:1055A000FFF790F84FF00100FBF7B8FE4FF06000F6
:1055B0004FF0C7014FF08202FFF784F84FF001006F
:1055C000FBF7ACFE4FF060004FF0C9014FF0E00276
:1055D000FFF778F84FF00100FBF7A0FE4FF06000F6
:1055E0004FF0CA014FF0E802FFF76CF84FF00100EE
:1055F000FBF794FE4FF060004FF0CB014FF0F0024C
:10560000FFF760F84FF00100FBF788FE4FF06000F5
:105610004FF0CC014FF0D802FFF754F84FF00100E3
:10562000FBF77CFE4FF060004FF0CD014FF093028E
:10563000FFF748F84FF00100FBF770FE08BD00BF10
:1056400008B54FF00100FBF769FE4FF060004FF026
:1056500000010A46FFF736F84FF00100FBF75EFE47
:105660004FF060004FF001014FF08002FFF72AF881
:105670004FF00100FBF752FE4FF060004FF00201C7
:105680004FF08002FFF71EF84FF00100FBF746FED7
:105690004FF060004FF003014FF00202FFF712F8E5
:1056A0004FF00100FBF73AFE4FF060004FF00401AD
:1056B0004FF00302FFF706F84FF00100FBF72EFE54
:1056C0004FF060004FF009014FF00102FEF7FAFFC2
:1056D0004FF00100FBF722FE4FF060004FF00B018E
:1056E0004FF05702FEF7EEFF4FF00100FBF716FEFA
:1056F0004FF060004FF00E014FF06102FEF7E2FF45
:105700004FF00100FBF70AFE4FF060004FF00F0171
:105710004FF04002FEF7D6FF4FF00100FBF7FEFD11
:105720004FF060004FF011014FF00102FEF7CAFF89
:105730004FF00100FBF7F2FD4FF060004FF0120157
:105740004FF06202FEF7BEFF4FF00100FBF7E6FDEF
:105750004FF060004FF013014FF0C702FEF7B2FFA9
:105760004FF00100FBF7DAFD4FF060004FF014013D
:105770004FF03A02FEF7A6FF4FF00100FBF7CEFD17
:105780004FF060004FF016014FF02402FEF79AFF31
:105790004FF00100FBF7C2FD4FF060004FF0170122
:1057A0004FF01802FEF78EFF4FF00100FBF7B6FD39
:1057B0004FF060004FF018014FF00402FEF782FF37
:1057C0004FF00100FBF7AAFD4FF060004FF0190108
:1057D0004FF00102FEF776FF4FF00100FBF79EFD50
:1057E0004FF060004FF01A014FF08102FEF76AFFA0
:1057F0004FF00100FBF792FD4FF060004FF01E01EB
:105800004FF03002FEF75EFF4FF00100FBF786FD20
:105810004FF060004FF024014FF03C02FEF752FFC2
:105820004FF00100FBF77AFD4FF060004FF02501CB
:105830004FF03602FEF746FF4FF00100FBF76EFD1A
:105840004FF060004FF026014FF07202FEF73AFF72
:105850004FF00100FBF762FD4FF060004FF02701B1
:105860004FF00802FEF72EFF4FF00100FBF756FD48
:105870004FF060004FF028014FF00802FEF722FFC2
:105880004FF00100FBF74AFD4FF060004FF0290197
:105890004FF01502FEF716FF4FF00100FBF73EFD3B
:1058A0004FF060004FF02A014FF00002FEF70AFFB0
:1058B0004FF00100FBF732FD4FF060004FF02B017D
:1058C0004FF00002FEF7FEFE4FF00100FBF726FD51
:1058D0004FF060004FF02C014FF00802FEF7F2FE8F
:1058E0004FF00100FBF71AFD4FF060004FF032015E
:1058F0004FF01202FEF7E6FE4FF00100FBF70EFD3F
:105900004FF060004FF033014FF00002FEF7DAFE77
:105910004FF00100FBF702FD4FF060004FF0340143
:105920004FF03F02FEF7CEFE4FF00100FBF7F6FC12
:105930004FF060004FF035014FF00002FEF7C2FE5D
:105940004FF00100FBF7EAFC4FF060004FF036012A
:105950004FF03A02FEF7B6FE4FF00100FBF7DEFC17
:105960004FF060004FF038014FF07202FEF7AAFED0
:105970004FF00100FBF7D2FC4FF060004FF039010F
:105980004FF05702FEF79EFE4FF00100FBF7C6FCFA
:105990004FF060004FF03A014FF0CC02FEF792FE5C
:1059A0004FF00100FBF7BAFC4FF060004FF03B01F5
:1059B0004FF00402FEF786FE4FF00100FBF7AEFC4D
:1059C0004FF060004FF03D014FF09902FEF77AFE74
:1059D0004FF00100FBF7A2FC4FF060004FF03E01DA
:1059E0004FF00202FEF76EFE4FF00100FBF796FC4F
:1059F0004FF060004FF03F014FF0C102FEF762FE32
:105A00004FF00100FBF78AFC4FF060004FF04001BF
:105A10004FF0C002FEF756FE4FF00100FBF77EFC90
:105A20004FF060004FF041010A46FEF74BFE4FF089
:105A30000100FBF773FC4FF060004FF042014FF0A4
:105A4000C002FEF73FFE4FF00100FBF767FC4FF08E
:105A500060004FF043014FF00A02FEF733FE4FF0B3
:105A60000100FBF75BFC4FF060004FF044014FF08A
:105A7000F002FEF727FE4FF00100FBF74FFC4FF05E
:105A800060004FF045014FF04602FEF71BFE4FF05D
:105A90000100FBF743FC4FF060004FF046014FF070
:105AA0006202FEF70FFE4FF00100FBF737FC4FF0EC
:105AB00060004FF047014FF02A02FEF703FE4FF05F
:105AC0000100FBF72BFC4FF060004FF048014FF056
:105AD0003C02FEF7F7FD4FF00100FBF71FFC4FF013
